{
  "contractName": "EdDSA",
  "abi": [
    {
      "constant": true,
      "inputs": [
        {
          "name": "data",
          "type": "bytes"
        }
      ],
      "name": "HashToInt",
      "outputs": [
        {
          "name": "",
          "type": "uint256"
        }
      ],
      "payable": false,
      "stateMutability": "pure",
      "type": "function",
      "signature": "0xd0f9f7d0"
    },
    {
      "constant": true,
      "inputs": [
        {
          "name": "pubkey",
          "type": "uint256[2]"
        },
        {
          "name": "hashed_msg",
          "type": "uint256"
        },
        {
          "name": "R",
          "type": "uint256[2]"
        },
        {
          "name": "s",
          "type": "uint256"
        }
      ],
      "name": "Verify",
      "outputs": [
        {
          "name": "",
          "type": "bool"
        }
      ],
      "payable": false,
      "stateMutability": "view",
      "type": "function",
      "signature": "0xda047321"
    }
  ],
  "bytecode": "0x608060405234801561001057600080fd5b50610b2d806100206000396000f3fe60806040526004361061004c576000357c0100000000000000000000000000000000000000000000000000000000900463ffffffff168063d0f9f7d014610051578063da0473211461012d575b600080fd5b34801561005d57600080fd5b506101176004803603602081101561007457600080fd5b810190808035906020019064010000000081111561009157600080fd5b8201836020820111156100a357600080fd5b803590602001918460018302840111640100000000831117156100c557600080fd5b91908080601f016020809104026020016040519081016040528093929190818152602001838380828437600081840152601f19601f82011690508083019250505050505050919291929050505061020c565b6040518082815260200191505060405180910390f35b34801561013957600080fd5b506101f2600480360360c081101561015057600080fd5b8101908080604001906002806020026040519081016040528092919082600260200280828437600081840152601f19601f82011690508083019250505050505091929192908035906020019092919080604001906002806020026040519081016040528092919082600260200280828437600081840152601f19601f8201169050808301925050505050509192919290803590602001909291905050506102e6565b604051808215151515815260200191505060405180910390f35b6000806002836040518082805190602001908083835b6020831015156102475780518252602082019150602081019050602083039250610222565b6001836020036101000a038019825116818451168082178552505050505050905001915050602060405180830381855afa158015610289573d6000803e3d6000fd5b5050506040513d602081101561029e57600080fd5b810190808051906020019092919050505060019004905060007f03ffffffffffffffffffffffffffffffffffffffffffffffffffffffffffffff905080821692505050919050565b60006102f0610a76565b6102f86104cc565b9050610302610a76565b61030a610a76565b61033b83600060028110151561031c57fe5b602002015184600160028110151561033057fe5b60200201518761052e565b83600060028110151561034a57fe5b6020020184600160028110151561035d57fe5b6020020182815250828152505050600061040187600060028110151561037f57fe5b602002015188600160028110151561039357fe5b60200201518b60006002811015156103a757fe5b60200201518c60016002811015156103bb57fe5b60200201518c604051602001808681526020018581526020018481526020018381526020018281526020019550505050505060405160208183030381529060405261020c565b905061043489600060028110151561041557fe5b60200201518a600160028110151561042957fe5b60200201518361052e565b83600060028110151561044357fe5b6020020184600160028110151561045657fe5b602002018281525082815250505081600060028110151561047357fe5b602002015183600060028110151561048757fe5b60200201511480156104be57508160016002811015156104a357fe5b60200201518360016002811015156104b757fe5b6020020151145b945050505050949350505050565b6104d4610a76565b60408051908101604052807f274dbce8d15179969bc0d49fa725bddf9de555e0ba6a693c6adb52fc9ee7a82c81526020017f05ce98c61b05f47fe2eae9a542bd99f6b2e78246231640b54595febfd51eb853815250905090565b600080610539610a98565b610543868661068c565b83600060048110151561055257fe5b6020020184600160048110151561056557fe5b6020020185600260048110151561057857fe5b60200201838152508381525083815250505050600181600360048110151561059c57fe5b6020020181815250506105ad610a98565b6080604051908101604052806000815260200160018152602001600081526020016001815250905060008090505b600086141515610625576000600187161415156105ff576105fc82846106cd565b91505b61060983846106cd565b925060028681151561061757fe5b0495506001810190506105db565b61067d82600060048110151561063757fe5b602002015183600160048110151561064b57fe5b602002015184600260048110151561065f57fe5b602002015185600360048110151561067357fe5b60200201516108df565b94509450505050935093915050565b600080600084847f30644e72e131a029b85045b68181585d2833e84879b9709143e1f593f00000018015156106bd57fe5b8688099250925092509250925092565b6106d5610a98565b60008360006004811015156106e657fe5b602002015114801561070b5750600183600160048110151561070457fe5b6020020151145b801561072a5750600083600260048110151561072357fe5b6020020151145b80156107495750600183600360048110151561074257fe5b6020020151145b15610756578190506108d9565b600082600060048110151561076757fe5b602002015114801561078c5750600182600160048110151561078557fe5b6020020151145b80156107ab575060008260026004811015156107a457fe5b6020020151145b80156107ca575060018260036004811015156107c357fe5b6020020151145b156107d7578290506108d9565b7f30644e72e131a029b85045b68181585d2833e84879b9709143e1f593f0000001620292fc620292f88285518751098360208701516020890151098460408801518660408b015186090985606089015160608b015109868760208b01518b51088860208d01518d510809600185018110156108525787810190505b878582030690506001840181101561086a5787810190505b8784820306905081600184018110156108835788810190505b888482030690508884840889878a0986600182018110156108a4578b810190505b8b8282030690508b8486098d528b81840960208e01528b81860960408e01528b83850960608e01525050505050505050505050505b92915050565b60008061090c837f30644e72e131a029b85045b68181585d2833e84879b9709143e1f593f0000001610975565b92507f30644e72e131a029b85045b68181585d2833e84879b9709143e1f593f000000180151561093857fe5b8387097f30644e72e131a029b85045b68181585d2833e84879b9709143e1f593f000000180151561096557fe5b8487099150915094509492505050565b600061098583600284038461098d565b905092915050565b6000610997610abb565b61099f610ade565b60208160006006811015156109b057fe5b60200201818152505060208160016006811015156109ca57fe5b60200201818152505060208160026006811015156109e457fe5b602002018181525050858160036006811015156109fd57fe5b60200201818152505084816004600681101515610a1657fe5b60200201818152505083816005600681101515610a2f57fe5b602002018181525050600060208360c08460056107d05a03fa9050801515610a5657600080fd5b826000600181101515610a6557fe5b602002015193505050509392505050565b6040805190810160405280600290602082028038833980820191505090505090565b608060405190810160405280600490602082028038833980820191505090505090565b602060405190810160405280600190602082028038833980820191505090505090565b60c06040519081016040528060069060208202803883398082019150509050509056fea165627a7a72305820beda7ff69414370d523de1ca4ffa797db1154e3308d51fc51db0df16065193570029",
  "source": "// Copyright (c) 2018 @HarryR\n// License: LGPL-3.0+\n\npragma solidity ^0.5.0;\n\nimport \"./JubJub.sol\";\n\n\ncontract EdDSA\n{\n    function HashToInt( bytes memory data )\n        public pure returns (uint256)\n    {\n        uint256 hashed = uint256(sha256(data));\n\n        // (2<<249) - 1\n        uint256 mask = 1809251394333065553493296640760748560207343510400633813116524750123642650623;\n\n        return hashed & mask;\n    }\n\n    function Verify( uint256[2] memory pubkey, uint256 hashed_msg, uint256[2] memory R, uint256 s )\n        public view returns (bool)\n    {\n        uint256[2] memory B = JubJub.Generator();\n        uint256[2] memory lhs;\n        uint256[2] memory rhs;\n\n        (lhs[0], lhs[1]) = JubJub.scalarMult(B[0], B[1], s);\n\n        uint256 t = HashToInt(abi.encodePacked(\n            R[0], R[1],\n            pubkey[0], pubkey[1],\n            hashed_msg\n            ));\n\n        (rhs[0], rhs[1]) = JubJub.scalarMult(pubkey[0], pubkey[1], t);\n\n        return lhs[0] == rhs[0] && lhs[1] == rhs[1];\n    }\n}",
  "sourcePath": "/home/user/rollupnc/contracts/dependencies/EdDSA.sol",
  "compiler": {
    "name": "solc",
    "version": "0.5.0+commit.1d4f565a.Emscripten.clang"
  },
  "schemaVersion": "3.0.6",
  "updatedAt": "2019-04-07T16:41:35.499Z",
  "devdoc": {
    "methods": {}
  },
  "userdoc": {
    "methods": {}
  }
}