{
  "contractName": "IMiMC",
  "abi": [
    {
      "constant": true,
      "inputs": [
        {
          "name": "",
          "type": "uint256"
        },
        {
          "name": "",
          "type": "uint256"
        }
      ],
      "name": "MiMCpe7",
      "outputs": [
        {
          "name": "",
          "type": "uint256"
        }
      ],
      "payable": false,
      "stateMutability": "pure",
      "type": "function"
    }
  ],
  "bytecode": "0x608060405234801561001057600080fd5b5060cd8061001f6000396000f3fe608060405260043610603f576000357c0100000000000000000000000000000000000000000000000000000000900463ffffffff168063d15ca109146044575b600080fd5b348015604f57600080fd5b50608360048036036040811015606457600080fd5b8101908080359060200190929190803590602001909291905050506099565b6040518082815260200191505060405180910390f35b60009291505056fea165627a7a7230582017d136f312b2d8abcc829f188d088a490b36d8929d05f3baaa9ec0f980e5e0880029",
  "source": "pragma solidity ^0.5.0;\n\nimport \"../build/Update_verifier.sol\";\nimport \"../build/Withdraw_verifier.sol\";\n\ncontract IMiMC {\n    function MiMCpe7(uint256,uint256) public pure returns(uint256) {}\n}\n\ncontract IMiMCMerkle {\n\n    uint[16] public zeroCache;\n    function getRootFromProof2(\n        uint256,\n        uint256[2] memory,\n        uint256[2] memory\n    ) public view returns(uint) {}\n    function hashBalance(uint[5] memory) public view returns(uint){}\n    function hashTx(uint[8] memory) public view returns(uint) {}\n    function hashPair(uint[2] memory) public view returns(uint){}\n    function hashHeight2Tree(uint[4] memory) public view returns(uint){}\n}\n\ncontract ITokenRegistry {\n    address public coordinator;\n    uint256 public numTokens;\n    mapping(address => bool) public pendingTokens;\n    mapping(uint256 => address) public registeredTokens;\n    modifier onlyCoordinator(){\n        assert (msg.sender == coordinator);\n        _;\n    }\n    function registerToken(address tokenContract) public {}\n    function approveToken(address tokenContract) public onlyCoordinator{}\n}\n\ncontract RollupNC is Update_verifier, Withdraw_verifier{\n\n    IMiMC public mimc;\n    IMiMCMerkle public mimcMerkle;\n    ITokenRegistry public tokenRegistry;\n\n    uint256 public currentRoot;\n    address public coordinator;\n    uint256[] public pendingDeposits;\n    uint public queueNumber;\n    uint public depositSubtreeHeight;\n    uint256 public updateNumber;\n\n    uint256 public BAL_DEPTH = 4;\n    uint256 public TX_DEPTH = 2;\n\n    // (queueNumber => [pubkey_x, pubkey_y, balance, nonce, token_type])\n    mapping(uint256 => uint256) public deposits; //leaf idx => leafHash\n    mapping(uint256 => uint256) public updates; //txRoot => update idx\n\n    event RegisteredToken(uint tokenType, address tokenContract);\n    event RequestDeposit(uint[2] pubkey, uint amount, uint tokenType);\n    event UpdatedState(uint currentRoot, uint oldRoot, uint txRoot);\n    event Withdraw(uint[3] accountInfo, address recipient, uint txRoot, uint[3] txInfo);\n\n    constructor(\n        address _mimcContractAddr,\n        address _mimcMerkleContractAddr,\n        address _tokenRegistryAddr\n    ) public {\n        mimc = IMiMC(_mimcContractAddr);\n        mimcMerkle = IMiMCMerkle(_mimcMerkleContractAddr);\n        tokenRegistry = ITokenRegistry(_tokenRegistryAddr);\n        currentRoot = mimcMerkle.zeroCache(BAL_DEPTH);\n        coordinator = msg.sender;\n        queueNumber = 0;\n        depositSubtreeHeight = 0;\n        updateNumber = 0;\n    }\n\n    modifier onlyCoordinator(){\n        assert(msg.sender == coordinator);\n        _;\n    }\n\n    function updateState(\n            uint[2] memory a,\n            uint[2][2] memory b,\n            uint[2] memory c,\n            uint[3] memory input\n        ) public onlyCoordinator {\n        require(currentRoot == input[2], \"input does not match current root\");\n        //validate proof\n        require(update_verifyProof(a,b,c,input),\n        \"SNARK proof is invalid\");\n        // update merkle root\n        currentRoot = input[0];\n        updateNumber++;\n        updates[input[1]] = updateNumber;\n        emit UpdatedState(input[0], input[1], input[2]); //newRoot, txRoot, oldRoot\n    }\n\n    // user tries to deposit ERC20 tokens\n    function deposit(\n        uint[2] memory pubkey,\n        uint amount,\n        uint tokenType\n    ) public payable {\n        require(\n            (amount > 0 && tokenType > 1) ||\n            (msg.value > 0 && tokenType == 1) ||\n            msg.sender == coordinator,\n            \"Deposit must be greater than 0.\"\n        );\n        require(\n            tokenType == 0 ||\n            tokenType == 1 ||\n            tokenRegistry.registeredTokens(tokenType) != address(0),\n        \"tokenType is not registered.\");\n        uint depositHash = mimcMerkle.hashBalance(\n            [pubkey[0], pubkey[1], amount, 0, tokenType]\n        );\n        pendingDeposits.push(depositHash);\n        emit RequestDeposit(pubkey, amount, tokenType);\n        queueNumber++;\n        uint tmpDepositSubtreeHeight = 0;\n        uint tmp = queueNumber;\n        while(tmp % 2 == 0){\n            pendingDeposits[pendingDeposits.length - 2] = mimcMerkle.hashPair(\n                [pendingDeposits[pendingDeposits.length - 2],\n                pendingDeposits[pendingDeposits.length - 1]]);\n            removeDeposit(pendingDeposits.length - 1);\n            tmp = tmp / 2;\n            tmpDepositSubtreeHeight++;\n        }\n        if (tmpDepositSubtreeHeight > depositSubtreeHeight){\n            depositSubtreeHeight = tmpDepositSubtreeHeight;\n        }\n    }\n\n\n\n    // coordinator adds certain number of deposits to balance tree\n    // coordinator must specify subtree index in the tree since the deposits\n    // are being inserted at a nonzero height\n    function processDeposits(\n        uint[2] memory subtreePosition,\n        uint[2] memory subtreeProof\n    ) public onlyCoordinator returns(uint256){\n        uint emptySubtreeRoot = mimcMerkle.zeroCache(2); //empty subtree of height 2\n        require(currentRoot == mimcMerkle.getRootFromProof2(\n            emptySubtreeRoot, subtreePosition, subtreeProof),\n            \"specified subtree is not empty\");\n        currentRoot = mimcMerkle.getRootFromProof2(\n            pendingDeposits[0], subtreePosition, subtreeProof);\n        removeDeposit(0);\n        queueNumber = queueNumber - 2**depositSubtreeHeight;\n        return currentRoot;\n    }\n\n    function withdraw(\n        uint[3] memory accountInfo, //[pubkeyX, pubkeyY, index]\n        uint[3] memory txInfo, //[nonce, amount, token_type_from]\n        uint[2][2] memory positionAndProof, //[[position], [proof]]\n        uint txRoot,\n        address recipient,\n        uint[2] memory a,\n        uint[2][2] memory b,\n        uint[2] memory c\n    ) public{\n        require(updates[txRoot] > 0, \"txRoot must exist\");\n        uint txLeaf = mimcMerkle.hashTx([\n            accountInfo[0], accountInfo[1], accountInfo[2],\n            0, 0, //withdraw to zero address\n            txInfo[0], txInfo[1], txInfo[2]\n        ]);\n        require(txRoot == mimcMerkle.getRootFromProof2(\n            txLeaf, positionAndProof[0], positionAndProof[1]),\n            \"transaction does not exist in specified transactions root\"\n        );\n\n        // message is hash of nonce and recipient address\n        uint m = mimcMerkle.hashPair([txInfo[0], uint(recipient)]);\n        require(withdraw_verifyProof(\n            a, b, c, [accountInfo[0], accountInfo[1], m]),\n            \"eddsa signature is not valid\");\n\n        emit Withdraw(accountInfo, recipient, txRoot, txInfo);\n    }\n\n    //call methods on TokenRegistry contract\n\n    function registerToken(\n        address tokenContract\n    ) public {\n        tokenRegistry.registerToken(tokenContract);\n    }\n\n    function approveToken(\n        address tokenContract\n    ) public onlyCoordinator {\n        tokenRegistry.approveToken(tokenContract);\n        emit RegisteredToken(tokenRegistry.numTokens(),tokenContract);\n    }\n\n    // helper functions\n    function removeDeposit(uint index) internal returns(uint[] memory) {\n        require(index < pendingDeposits.length, \"index is out of bounds\");\n\n        for (uint i = index; i<pendingDeposits.length-1; i++){\n            pendingDeposits[i] = pendingDeposits[i+1];\n        }\n        delete pendingDeposits[pendingDeposits.length-1];\n        pendingDeposits.length--;\n        return pendingDeposits;\n    }\n}\n",
  "sourcePath": "/home/moss/rollupnc/contracts/RollupNC.sol",
  "compiler": {
    "name": "solc",
    "version": "0.5.0+commit.1d4f565a.Emscripten.clang"
  },
  "schemaVersion": "3.0.6",
  "updatedAt": "2019-07-04T13:50:16.060Z",
  "devdoc": {
    "methods": {}
  },
  "userdoc": {
    "methods": {}
  }
}