{
  "contractName": "MiMC",
  "abi": [
    {
      "constant": true,
      "inputs": [
        {
          "name": "",
          "type": "uint256"
        },
        {
          "name": "",
          "type": "uint256"
        }
      ],
      "name": "MiMCpe7",
      "outputs": [
        {
          "name": "",
          "type": "uint256"
        }
      ],
      "payable": false,
      "stateMutability": "pure",
      "type": "function"
    }
  ],
  "bytecode": "0x608060405234801561001057600080fd5b5060cd8061001f6000396000f3fe608060405260043610603f576000357c0100000000000000000000000000000000000000000000000000000000900463ffffffff168063d15ca109146044575b600080fd5b348015604f57600080fd5b50608360048036036040811015606457600080fd5b8101908080359060200190929190803590602001909291905050506099565b6040518082815260200191505060405180910390f35b60009291505056fea165627a7a72305820b1894e2d083d2ffb375064c3cbd448ffd4212371fd5c0ad1c26576a1c224b8b30029",
  "source": "pragma solidity >=0.4.21;\n\ncontract MiMC {\n\n    function MiMCpe7(uint256,uint256) public pure returns(uint256) {}\n\n}\n\ncontract MiMCMerkle{\n\n    MiMC public mimc;\n    uint public IV = 15021630795539610737508582392395901278341266317943626182700664337106830745361;\n\n    constructor(\n        address _mimcContractAddr\n    ) public {\n        mimc = MiMC(_mimcContractAddr);\n    }\n\n    function verifyMerkleProof(\n        uint256 _leaf,\n        uint256[2] memory _position,\n        uint256[2] memory _proof,\n        uint256 _claimedRoot\n    ) public view returns(bool) {\n        uint256[2] memory root;\n\n        uint r = IV;\n\n        // if leaf is left sibling\n        if (_position[0] == 0){\n            root[0] = mimc.MiMCpe7(mimc.MiMCpe7(r, _leaf), _proof[0]);\n        } \n        // if leaf is right sibling\n        else if (_position[0] == 1){\n            root[0] = mimc.MiMCpe7(mimc.MiMCpe7(r, _proof[0]), _leaf);\n        }\n\n        for (uint i = 1; i < _proof.length; i++){\n            // if leaf is left sibling\n            if (_position[i] == 0){\n                root[i] = mimc.MiMCpe7(mimc.MiMCpe7(r, root[i - 1]), _proof[i]);\n            } \n            // if leaf is right sibling\n            else if (_position[i] == 1){\n                root[i] = mimc.MiMCpe7(mimc.MiMCpe7(r, _proof[i]), root[i - 1]);            }\n            \n        }\n        return (_claimedRoot == root[root.length - 1]);\n    }\n\n    function hashTx(uint[6] memory array) public returns(uint){\n        uint r = IV;\n        for (uint i = 0; i < array.length; i++){\n            r = mimc.MiMCpe7(r, array[i]);\n        }\n        return r;\n    }\n}\n",
  "sourcePath": "/home/user/RollupNC/contracts/dependencies/MiMCMerkle.sol",
  "compiler": {
    "name": "solc",
    "version": "0.5.0+commit.1d4f565a.Emscripten.clang"
  },
  "schemaVersion": "3.0.8",
  "updatedAt": "2019-04-27T14:58:44.276Z",
  "devdoc": {
    "methods": {}
  },
  "userdoc": {
    "methods": {}
  }
}