{
  "contractName": "MiMCMerkle",
  "abi": [
    {
      "constant": true,
      "inputs": [],
      "name": "IV",
      "outputs": [
        {
          "name": "",
          "type": "uint256"
        }
      ],
      "payable": false,
      "stateMutability": "view",
      "type": "function"
    },
    {
      "constant": true,
      "inputs": [],
      "name": "mimc",
      "outputs": [
        {
          "name": "",
          "type": "address"
        }
      ],
      "payable": false,
      "stateMutability": "view",
      "type": "function"
    },
    {
      "constant": true,
      "inputs": [
        {
          "name": "",
          "type": "uint256"
        }
      ],
      "name": "zeroCache",
      "outputs": [
        {
          "name": "",
          "type": "uint256"
        }
      ],
      "payable": false,
      "stateMutability": "view",
      "type": "function"
    },
    {
      "inputs": [
        {
          "name": "_mimcContractAddr",
          "type": "address"
        }
      ],
      "payable": false,
      "stateMutability": "nonpayable",
      "type": "constructor"
    },
    {
      "constant": true,
      "inputs": [
        {
          "name": "_leaf",
          "type": "uint256"
        },
        {
          "name": "_position",
          "type": "uint256[2]"
        },
        {
          "name": "_proof",
          "type": "uint256[2]"
        }
      ],
      "name": "getRootFromProof2",
      "outputs": [
        {
          "name": "",
          "type": "uint256"
        }
      ],
      "payable": false,
      "stateMutability": "view",
      "type": "function"
    },
    {
      "constant": true,
      "inputs": [
        {
          "name": "array",
          "type": "uint256[5]"
        }
      ],
      "name": "hashBalance",
      "outputs": [
        {
          "name": "",
          "type": "uint256"
        }
      ],
      "payable": false,
      "stateMutability": "view",
      "type": "function"
    },
    {
      "constant": true,
      "inputs": [
        {
          "name": "array",
          "type": "uint256[7]"
        }
      ],
      "name": "hashTx",
      "outputs": [
        {
          "name": "",
          "type": "uint256"
        }
      ],
      "payable": false,
      "stateMutability": "view",
      "type": "function"
    },
    {
      "constant": true,
      "inputs": [
        {
          "name": "array",
          "type": "uint256[2]"
        }
      ],
      "name": "hashPair",
      "outputs": [
        {
          "name": "",
          "type": "uint256"
        }
      ],
      "payable": false,
      "stateMutability": "view",
      "type": "function"
    },
    {
      "constant": true,
      "inputs": [
        {
          "name": "array",
          "type": "uint256[4]"
        }
      ],
      "name": "hashHeight2Tree",
      "outputs": [
        {
          "name": "",
          "type": "uint256"
        }
      ],
      "payable": false,
      "stateMutability": "view",
      "type": "function"
    }
  ],
  "bytecode": "0x60806040527f2135f11566d68962f4fe37980ad595e1af37e18212b60dc2f3852531b4f1df1160015560a0604051908101604052807f26783ec0750d0eb31ab266a510cca9f6c8483cb6aea0150bcbfbda924f47f6b181526020017f0d844d711b8178b5163d0ba1533eea8a068c4373012e2d668fdb8fc4aae9d05481526020017f0da9c36a000c315925b846630b7938f41558f87944432da9d3696e1fcb69f1e581526020017f2d9e57d5658412471099c1b62eeef6255917f7cf67c2e6f6277da207e2bc482a81526020017f2c22d75eabb0fccbfba833bafac865d52cc6603adfd6ab8bf0e1b3f0d4ae2beb8152506002906005610100929190610184565b5034801561010d57600080fd5b5060405160208061130d8339810180604052602081101561012d57600080fd5b8101908080519060200190929190505050806000806101000a81548173ffffffffffffffffffffffffffffffffffffffff021916908373ffffffffffffffffffffffffffffffffffffffff160217905550506101e9565b82600581019282156101b3579160200282015b828111156101b2578251825591602001919060010190610197565b5b5090506101c091906101c4565b5090565b6101e691905b808211156101e25760008160009055506001016101ca565b5090565b90565b611115806101f86000396000f3fe60806040526004361061008e576000357c0100000000000000000000000000000000000000000000000000000000900463ffffffff1680630e41a1a7146100935780631e2d6a4d146101195780636b78f8e91461019f57806373e10737146101ca57806376385cc31461025057806382505735146102a75780639a12886c1461032d578063c34ca641146103fe575b600080fd5b34801561009f57600080fd5b50610103600480360360808110156100b657600080fd5b8101908080608001906004806020026040519081016040528092919082600460200280828437600081840152601f19601f820116905080830192505050505050919291929050505061044d565b6040518082815260200191505060405180910390f35b34801561012557600080fd5b50610189600480360360e081101561013c57600080fd5b810190808060e001906007806020026040519081016040528092919082600760200280828437600081840152601f19601f8201169050808301925050505050509192919290505050610526565b6040518082815260200191505060405180910390f35b3480156101ab57600080fd5b506101b4610639565b6040518082815260200191505060405180910390f35b3480156101d657600080fd5b5061023a600480360360408110156101ed57600080fd5b8101908080604001906002806020026040519081016040528092919082600260200280828437600081840152601f19601f820116905080830192505050505050919291929050505061063f565b6040518082815260200191505060405180910390f35b34801561025c57600080fd5b50610265610752565b604051808273ffffffffffffffffffffffffffffffffffffffff1673ffffffffffffffffffffffffffffffffffffffff16815260200191505060405180910390f35b3480156102b357600080fd5b50610317600480360360a08110156102ca57600080fd5b810190808060a001906005806020026040519081016040528092919082600560200280828437600081840152601f19601f8201169050808301925050505050509192919290505050610777565b6040518082815260200191505060405180910390f35b34801561033957600080fd5b506103e8600480360360a081101561035057600080fd5b810190808035906020019092919080604001906002806020026040519081016040528092919082600260200280828437600081840152601f19601f820116905080830192505050505050919291929080604001906002806020026040519081016040528092919082600260200280828437600081840152601f19601f820116905080830192505050505050919291929050505061088a565b6040518082815260200191505060405180910390f35b34801561040a57600080fd5b506104376004803603602081101561042157600080fd5b81019080803590602001909291905050506110ad565b6040518082815260200191505060405180910390f35b60006104576110c7565b60008090505b60028110156104d4576104b06040805190810160405280868460020260048110151561048557fe5b6020020151815260200186600185600202016004811015156104a357fe5b602002015181525061063f565b82826002811015156104be57fe5b602002018181525050808060010191505061045d565b50600061051a60408051908101604052808460006002811015156104f457fe5b6020020151815260200184600160028110151561050d57fe5b602002015181525061063f565b90508092505050919050565b600080600154905060008090505b600781101561062f576000809054906101000a900473ffffffffffffffffffffffffffffffffffffffff1673ffffffffffffffffffffffffffffffffffffffff1663d15ca10983868460078110151561058957fe5b60200201516040518363ffffffff167c0100000000000000000000000000000000000000000000000000000000028152600401808381526020018281526020019250505060206040518083038186803b1580156105e557600080fd5b505afa1580156105f9573d6000803e3d6000fd5b505050506040513d602081101561060f57600080fd5b810190808051906020019092919050505091508080600101915050610534565b5080915050919050565b60015481565b600080600154905060008090505b6002811015610748576000809054906101000a900473ffffffffffffffffffffffffffffffffffffffff1673ffffffffffffffffffffffffffffffffffffffff1663d15ca1098386846002811015156106a257fe5b60200201516040518363ffffffff167c0100000000000000000000000000000000000000000000000000000000028152600401808381526020018281526020019250505060206040518083038186803b1580156106fe57600080fd5b505afa158015610712573d6000803e3d6000fd5b505050506040513d602081101561072857600080fd5b81019080805190602001909291905050509150808060010191505061064d565b5080915050919050565b6000809054906101000a900473ffffffffffffffffffffffffffffffffffffffff1681565b600080600154905060008090505b6005811015610880576000809054906101000a900473ffffffffffffffffffffffffffffffffffffffff1673ffffffffffffffffffffffffffffffffffffffff1663d15ca1098386846005811015156107da57fe5b60200201516040518363ffffffff167c0100000000000000000000000000000000000000000000000000000000028152600401808381526020018281526020019250505060206040518083038186803b15801561083657600080fd5b505afa15801561084a573d6000803e3d6000fd5b505050506040513d602081101561086057600080fd5b810190808051906020019092919050505091508080600101915050610785565b5080915050919050565b60006108946110c7565b6000600154905060008560006002811015156108ac57fe5b60200201511415610a88576000809054906101000a900473ffffffffffffffffffffffffffffffffffffffff1673ffffffffffffffffffffffffffffffffffffffff1663d15ca1096000809054906101000a900473ffffffffffffffffffffffffffffffffffffffff1673ffffffffffffffffffffffffffffffffffffffff1663d15ca109848a6040518363ffffffff167c0100000000000000000000000000000000000000000000000000000000028152600401808381526020018281526020019250505060206040518083038186803b15801561098a57600080fd5b505afa15801561099e573d6000803e3d6000fd5b505050506040513d60208110156109b457600080fd5b81019080805190602001909291905050508660006002811015156109d457fe5b60200201516040518363ffffffff167c0100000000000000000000000000000000000000000000000000000000028152600401808381526020018281526020019250505060206040518083038186803b158015610a3057600080fd5b505afa158015610a44573d6000803e3d6000fd5b505050506040513d6020811015610a5a57600080fd5b8101908080519060200190929190505050826000600281101515610a7a57fe5b602002018181525050610c72565b6001856000600281101515610a9957fe5b60200201511415610c71576000809054906101000a900473ffffffffffffffffffffffffffffffffffffffff1673ffffffffffffffffffffffffffffffffffffffff1663d15ca1096000809054906101000a900473ffffffffffffffffffffffffffffffffffffffff1673ffffffffffffffffffffffffffffffffffffffff1663d15ca10984886000600281101515610b2e57fe5b60200201516040518363ffffffff167c0100000000000000000000000000000000000000000000000000000000028152600401808381526020018281526020019250505060206040518083038186803b158015610b8a57600080fd5b505afa158015610b9e573d6000803e3d6000fd5b505050506040513d6020811015610bb457600080fd5b8101908080519060200190929190505050886040518363ffffffff167c0100000000000000000000000000000000000000000000000000000000028152600401808381526020018281526020019250505060206040518083038186803b158015610c1d57600080fd5b505afa158015610c31573d6000803e3d6000fd5b505050506040513d6020811015610c4757600080fd5b8101908080519060200190929190505050826000600281101515610c6757fe5b6020020181815250505b5b6000600190505b600281101561108a5760008682600281101515610c9257fe5b60200201511415610e81576000809054906101000a900473ffffffffffffffffffffffffffffffffffffffff1673ffffffffffffffffffffffffffffffffffffffff1663d15ca1096000809054906101000a900473ffffffffffffffffffffffffffffffffffffffff1673ffffffffffffffffffffffffffffffffffffffff1663d15ca109858760018703600281101515610d2957fe5b60200201516040518363ffffffff167c0100000000000000000000000000000000000000000000000000000000028152600401808381526020018281526020019250505060206040518083038186803b158015610d8557600080fd5b505afa158015610d99573d6000803e3d6000fd5b505050506040513d6020811015610daf57600080fd5b81019080805190602001909291905050508784600281101515610dce57fe5b60200201516040518363ffffffff167c0100000000000000000000000000000000000000000000000000000000028152600401808381526020018281526020019250505060206040518083038186803b158015610e2a57600080fd5b505afa158015610e3e573d6000803e3d6000fd5b505050506040513d6020811015610e5457600080fd5b81019080805190602001909291905050508382600281101515610e7357fe5b60200201818152505061107d565b60018682600281101515610e9157fe5b6020020151141561107c576000809054906101000a900473ffffffffffffffffffffffffffffffffffffffff1673ffffffffffffffffffffffffffffffffffffffff1663d15ca1096000809054906101000a900473ffffffffffffffffffffffffffffffffffffffff1673ffffffffffffffffffffffffffffffffffffffff1663d15ca109858986600281101515610f2557fe5b60200201516040518363ffffffff167c0100000000000000000000000000000000000000000000000000000000028152600401808381526020018281526020019250505060206040518083038186803b158015610f8157600080fd5b505afa158015610f95573d6000803e3d6000fd5b505050506040513d6020811015610fab57600080fd5b81019080805190602001909291905050508560018503600281101515610fcd57fe5b60200201516040518363ffffffff167c0100000000000000000000000000000000000000000000000000000000028152600401808381526020018281526020019250505060206040518083038186803b15801561102957600080fd5b505afa15801561103d573d6000803e3d6000fd5b505050506040513d602081101561105357600080fd5b8101908080519060200190929190505050838260028110151561107257fe5b6020020181815250505b5b8080600101915050610c79565b5081600160020360028110151561109d57fe5b6020020151925050509392505050565b6002816005811015156110bc57fe5b016000915090505481565b604080519081016040528060029060208202803883398082019150509050509056fea165627a7a723058208d1204c19e05f85962399a8510844925c01d6a4b4fa21cacdc5071f98a5e3c570029",
  "source": "pragma solidity >=0.4.21;\n\ncontract MiMC {\n\n    function MiMCpe7(uint256,uint256) public pure returns(uint256) {}\n\n}\n\ncontract MiMCMerkle{\n\n    MiMC public mimc;\n    uint public IV = 15021630795539610737508582392395901278341266317943626182700664337106830745361;\n    // hashes for empty tree of depth 16\n    uint[5] public zeroCache = [\n        17400342990847699622034895903486521563192531922107760411846337521891653711537, //H0 = empty leaf\n        6113825327972579408082802166670133747202624653742570870320185423954556080212,  //H1 = hash(H0, H0)\n        6180012883826996691682233524035352980520561433337754209809143632670877151717,  //H2 = hash(H1, H1)\n        20633846227573655562891472654875498275532732787736199734105126629336915134506, //...and so on\n        19963324565646943143661364524780633879811696094118783241060299022396942068715\n    ];\n\n    constructor(\n        address _mimcContractAddr\n    ) public {\n        mimc = MiMC(_mimcContractAddr);\n    }\n\n    function getRootFromProof2(\n        uint256 _leaf,\n        uint256[2] memory _position,\n        uint256[2] memory _proof\n    ) public view returns(uint) {\n        uint256[2] memory root;\n\n        uint r = IV;\n\n        // if leaf is left sibling\n        if (_position[0] == 0){\n            root[0] = mimc.MiMCpe7(mimc.MiMCpe7(r, _leaf), _proof[0]);\n        }\n        // if leaf is right sibling\n        else if (_position[0] == 1){\n            root[0] = mimc.MiMCpe7(mimc.MiMCpe7(r, _proof[0]), _leaf);\n        }\n\n        for (uint i = 1; i < _proof.length; i++){\n            // if leaf is left sibling\n            if (_position[i] == 0){\n                root[i] = mimc.MiMCpe7(mimc.MiMCpe7(r, root[i - 1]), _proof[i]);\n            }\n            // if leaf is right sibling\n            else if (_position[i] == 1){\n                root[i] = mimc.MiMCpe7(mimc.MiMCpe7(r, _proof[i]), root[i - 1]);\n            }\n        }\n        // return (_claimedRoot == root[root.length - 1]);\n        return root[root.length - 1];\n    }\n\n    function hashBalance(uint[5] memory array) public view returns(uint){\n        //[pubkey_x, pubkey_y, balance, nonce, token_type]\n        uint r = IV;\n        for (uint i = 0; i < array.length; i++){\n            r = mimc.MiMCpe7(r, array[i]);\n        }\n        return r;\n    }\n\n    function hashTx(uint[7] memory array) public view returns(uint){\n        //[from_x, from_y, to_x, to_y, amt, token_type]\n        uint r = IV;\n        for (uint i = 0; i < array.length; i++){\n            r = mimc.MiMCpe7(r, array[i]);\n        }\n        return r;\n    }\n\n    function hashPair(uint[2] memory array) public view returns(uint){\n        uint r = IV;\n        for (uint i = 0; i < array.length; i++){\n            r = mimc.MiMCpe7(r, array[i]);\n        }\n        return r;\n    }\n\n    function hashHeight2Tree(uint[4] memory array) public view returns(uint){\n\n        uint[2] memory level1;\n        for (uint i = 0; i < level1.length; i++){\n            level1[i] = hashPair([array[2*i], array[2*i + 1]]);\n        }\n        uint level2;\n        level2 = hashPair([level1[0], level1[1]]);\n        return level2;\n    }\n\n}\n",
  "sourcePath": "/home/moss/rollupnc/contracts/helpers/MiMCMerkle.sol",
  "compiler": {
    "name": "solc",
    "version": "0.5.0+commit.1d4f565a.Emscripten.clang"
  },
  "schemaVersion": "3.0.6",
  "updatedAt": "2019-06-30T15:41:01.755Z",
  "devdoc": {
    "methods": {}
  },
  "userdoc": {
    "methods": {}
  }
}