{
  "contractName": "MiMC",
  "abi": [
    {
      "constant": true,
      "inputs": [
        {
          "name": "",
          "type": "uint256"
        },
        {
          "name": "",
          "type": "uint256"
        }
      ],
      "name": "MiMCpe7",
      "outputs": [
        {
          "name": "",
          "type": "uint256"
        }
      ],
      "payable": false,
      "stateMutability": "pure",
      "type": "function"
    }
  ],
  "bytecode": "0x608060405234801561001057600080fd5b5060cd8061001f6000396000f3fe608060405260043610603f576000357c0100000000000000000000000000000000000000000000000000000000900463ffffffff168063d15ca109146044575b600080fd5b348015604f57600080fd5b50608360048036036040811015606457600080fd5b8101908080359060200190929190803590602001909291905050506099565b6040518082815260200191505060405180910390f35b60009291505056fea165627a7a7230582040a6d25c2640007ef5812017fe826d79ff12b32db79c0c04097db745eb9345a70029",
  "source": "pragma solidity >=0.4.21;\n\ncontract MiMC {\n\n    function MiMCpe7(uint256,uint256) public pure returns(uint256) {}\n\n}\n\ncontract MiMCMerkle{\n\n    MiMC public mimc;\n    uint public IV = 15021630795539610737508582392395901278341266317943626182700664337106830745361;\n    // hashes for empty tree of depth 16\n    uint[5] public zeroCache = [\n        17400342990847699622034895903486521563192531922107760411846337521891653711537, //H0 = empty leaf\n        6113825327972579408082802166670133747202624653742570870320185423954556080212,  //H1 = hash(H0, H0)\n        6180012883826996691682233524035352980520561433337754209809143632670877151717,  //H2 = hash(H1, H1)\n        20633846227573655562891472654875498275532732787736199734105126629336915134506, //...and so on\n        19963324565646943143661364524780633879811696094118783241060299022396942068715\n    ];\n\n    constructor(\n        address _mimcContractAddr\n    ) public {\n        mimc = MiMC(_mimcContractAddr);\n    }\n\n    function getRootFromProof2(\n        uint256 _leaf,\n        uint256[2] memory _position,\n        uint256[2] memory _proof\n    ) public view returns(uint) {\n        uint256[2] memory root;\n\n        uint r = IV;\n\n        // if leaf is left sibling\n        if (_position[0] == 0){\n            root[0] = mimc.MiMCpe7(mimc.MiMCpe7(r, _leaf), _proof[0]);\n        }\n        // if leaf is right sibling\n        else if (_position[0] == 1){\n            root[0] = mimc.MiMCpe7(mimc.MiMCpe7(r, _proof[0]), _leaf);\n        }\n\n        for (uint i = 1; i < _proof.length; i++){\n            // if leaf is left sibling\n            if (_position[i] == 0){\n                root[i] = mimc.MiMCpe7(mimc.MiMCpe7(r, root[i - 1]), _proof[i]);\n            }\n            // if leaf is right sibling\n            else if (_position[i] == 1){\n                root[i] = mimc.MiMCpe7(mimc.MiMCpe7(r, _proof[i]), root[i - 1]);\n            }\n        }\n        // return (_claimedRoot == root[root.length - 1]);\n        return root[root.length - 1];\n    }\n\n    function hashBalance(uint[5] memory array) public view returns(uint){\n        //[pubkey_x, pubkey_y, balance, nonce, token_type]\n        uint r = IV;\n        for (uint i = 0; i < array.length; i++){\n            r = mimc.MiMCpe7(r, array[i]);\n        }\n        return r;\n    }\n\n    function hashTx(uint[8] memory array) public view returns(uint){\n        //[from_x, from_y,from_index, to_x, to_y, amt, token_type]\n        uint r = IV;\n        for (uint i = 0; i < array.length; i++){\n            r = mimc.MiMCpe7(r, array[i]);\n        }\n        return r;\n    }\n\n    function hashPair(uint[2] memory array) public view returns(uint){\n        uint r = IV;\n        for (uint i = 0; i < array.length; i++){\n            r = mimc.MiMCpe7(r, array[i]);\n        }\n        return r;\n    }\n\n    function hashHeight2Tree(uint[4] memory array) public view returns(uint){\n\n        uint[2] memory level1;\n        for (uint i = 0; i < level1.length; i++){\n            level1[i] = hashPair([array[2*i], array[2*i + 1]]);\n        }\n        uint level2;\n        level2 = hashPair([level1[0], level1[1]]);\n        return level2;\n    }\n\n}\n",
  "sourcePath": "/home/moss/rollupnc/contracts/helpers/MiMCMerkle.sol",
  "compiler": {
    "name": "solc",
    "version": "0.5.0+commit.1d4f565a.Emscripten.clang"
  },
  "schemaVersion": "3.0.6",
  "updatedAt": "2019-07-04T13:50:16.158Z",
  "devdoc": {
    "methods": {}
  },
  "userdoc": {
    "methods": {}
  }
}