{
  "contractName": "RollupNC",
  "abi": [
    {
      "constant": true,
      "inputs": [],
      "name": "withdraw",
      "outputs": [
        {
          "name": "",
          "type": "address"
        }
      ],
      "payable": false,
      "stateMutability": "view",
      "type": "function"
    },
    {
      "constant": true,
      "inputs": [],
      "name": "transferVerifier",
      "outputs": [
        {
          "name": "",
          "type": "address"
        }
      ],
      "payable": false,
      "stateMutability": "view",
      "type": "function"
    },
    {
      "inputs": [
        {
          "name": "_transferVerifierContractAddr",
          "type": "address"
        },
        {
          "name": "_withdrawContractAddr",
          "type": "address"
        }
      ],
      "payable": false,
      "stateMutability": "nonpayable",
      "type": "constructor"
    },
    {
      "constant": false,
      "inputs": [
        {
          "name": "a",
          "type": "uint256[2]"
        },
        {
          "name": "b",
          "type": "uint256[2][2]"
        },
        {
          "name": "c",
          "type": "uint256[2]"
        },
        {
          "name": "input",
          "type": "uint256[2]"
        }
      ],
      "name": "snarkTransition",
      "outputs": [],
      "payable": false,
      "stateMutability": "nonpayable",
      "type": "function"
    }
  ],
  "bytecode": "0x608060405234801561001057600080fd5b506040516040806106358339810180604052604081101561003057600080fd5b810190808051906020019092919080519060200190929190505050816000806101000a81548173ffffffffffffffffffffffffffffffffffffffff021916908373ffffffffffffffffffffffffffffffffffffffff16021790555080600160006101000a81548173ffffffffffffffffffffffffffffffffffffffff021916908373ffffffffffffffffffffffffffffffffffffffff16021790555033600360006101000a81548173ffffffffffffffffffffffffffffffffffffffff021916908373ffffffffffffffffffffffffffffffffffffffff16021790555050506105178061011e6000396000f3fe608060405260043610610057576000357c0100000000000000000000000000000000000000000000000000000000900463ffffffff1680633ccfd60b1461005c5780638daed528146100b357806392a382921461010a575b600080fd5b34801561006857600080fd5b50610071610278565b604051808273ffffffffffffffffffffffffffffffffffffffff1673ffffffffffffffffffffffffffffffffffffffff16815260200191505060405180910390f35b3480156100bf57600080fd5b506100c861029e565b604051808273ffffffffffffffffffffffffffffffffffffffff1673ffffffffffffffffffffffffffffffffffffffff16815260200191505060405180910390f35b34801561011657600080fd5b50610276600480360361014081101561012e57600080fd5b8101908080604001906002806020026040519081016040528092919082600260200280828437600081840152601f19601f82011690508083019250505050505091929192908060800190600280602002604051908101604052809291906000905b828210156101e3578382604002016002806020026040519081016040528092919082600260200280828437600081840152601f19601f8201169050808301925050505050508152602001906001019061018f565b50505050919291929080604001906002806020026040519081016040528092919082600260200280828437600081840152601f19601f820116905080830192505050505050919291929080604001906002806020026040519081016040528092919082600260200280828437600081840152601f19601f82011690508083019250505050505091929192905050506102c3565b005b600160009054906101000a900473ffffffffffffffffffffffffffffffffffffffff1681565b6000809054906101000a900473ffffffffffffffffffffffffffffffffffffffff1681565b600360009054906101000a900473ffffffffffffffffffffffffffffffffffffffff1673ffffffffffffffffffffffffffffffffffffffff163373ffffffffffffffffffffffffffffffffffffffff1614151561031c57fe5b6000809054906101000a900473ffffffffffffffffffffffffffffffffffffffff1673ffffffffffffffffffffffffffffffffffffffff1663f5c9d69e858585856040518563ffffffff167c01000000000000000000000000000000000000000000000000000000000281526004018085600260200280838360005b838110156103b3578082015181840152602081019050610398565b505050509050018460026000925b818410156104075782846020020151600260200280838360005b838110156103f65780820151818401526020810190506103db565b5050505090500192600101926103c1565b9250505083600260200280838360005b83811015610432578082015181840152602081019050610417565b5050505090500182600260200280838360005b83811015610460578082015181840152602081019050610445565b5050505090500194505050505060206040518083038186803b15801561048557600080fd5b505afa158015610499573d6000803e3d6000fd5b505050506040513d60208110156104af57600080fd5b810190808051906020019092919050505015156104cb57600080fd5b8060006002811015156104da57fe5b60200201516002819055505050505056fea165627a7a72305820362d86d78022b144aea6cd6610cba98de905232520c98183a6d4b2fdd4f2f1a80029",
  "source": "pragma solidity >=0.4.21;\n\nimport './TransferVerifier.sol';\nimport './Withdraw.sol';\n\n// contract MiMC {\n\n//     function MiMCpe7(uint256,uint256) public pure returns(uint256) {}\n\n// }\n\ncontract RollupNC {\n\n    TransferVerifier public transferVerifier;\n    Withdraw public withdraw;\n    // MiMC public mimc; //Rinkeby: 0xbB9da456E4918A450A936dc952F6f5d68EB76F69\n\n    uint256 merkleRoot;\n    address operator;\n\n    constructor(\n        // address _mimcContractAddr,\n        address _transferVerifierContractAddr,\n        address _withdrawContractAddr\n    ) public {\n        transferVerifier = TransferVerifier(_transferVerifierContractAddr);\n        withdraw = Withdraw(_withdrawContractAddr);\n        // mimc = MiMC(_mimcContractAddr); \n        operator = msg.sender;\n    }\n\n    modifier onlyOperator(){\n        assert(msg.sender == operator);\n        _;\n    }\n\n    function snarkTransition (\n            uint[2] memory a,\n            uint[2][2] memory b,\n            uint[2] memory c,\n            uint[2] memory input) public onlyOperator {\n        \n        //validate proof\n        require(transferVerifier.verifyProof(a,b,c,input));\n        \n        // update merkle root\n        merkleRoot = input[0];\n    }\n\n    // function withdraw(\n    //     bytes memory pubkey_from,\n    //     bytes memory pubkey_to,\n    //     uint amount,\n    //     uint token_type_from, \n    //     uint256 tx_merkle_root, \n    //     uint256[24] memory proof, \n    //     bool[24] memory path, \n    //     uint256 leaf,\n    //     address recipient\n    // ) public{\n    //     require(pubkey_to.equals(bytes(\"0\")));\n    //     require(membership_proof(tx_merkle_root,leaf,proof,path));\n\n    // }\n\n    // function membership_proof(\n    //     uint256 root, \n    //     uint256 leaf, \n    //     uint256[24] memory proof, \n    //     bool[24] memory path\n    // ) internal view returns(bool) {\n    //     for (uint i=0;i<proof.length;i++) {\n    //         if (path[i]) {\n    //             leaf = hash(leaf, proof[i]);\n    //         }\n    //         else {\n    //             leaf = hash(proof[i], leaf);\n    //         }\n    //     }\n    //     return(leaf == root);\n    // }\n\n    // function hash(uint256 in_x, uint256 in_k) public view returns(uint256) {\n    //     uint256 res = mimc.MiMCpe7(in_x,in_k);\n    //     return(res);\n    // }\n\n}",
  "sourcePath": "/home/user/rollupnc/contracts/RollupNC.sol",
  "compiler": {
    "name": "solc",
    "version": "0.5.0+commit.1d4f565a.Emscripten.clang"
  },
  "schemaVersion": "3.0.6",
  "updatedAt": "2019-04-07T16:33:05.070Z",
  "devdoc": {
    "methods": {}
  },
  "userdoc": {
    "methods": {}
  }
}