{
  "contractName": "RollupNC",
  "abi": [
    {
      "constant": true,
      "inputs": [],
      "name": "withdrawVerifier",
      "outputs": [
        {
          "name": "",
          "type": "address"
        }
      ],
      "payable": false,
      "stateMutability": "view",
      "type": "function",
      "signature": "0x864eb164"
    },
    {
      "constant": true,
      "inputs": [],
      "name": "transferVerifier",
      "outputs": [
        {
          "name": "",
          "type": "address"
        }
      ],
      "payable": false,
      "stateMutability": "view",
      "type": "function",
      "signature": "0x8daed528"
    },
    {
      "inputs": [
        {
          "name": "_transferVerifierContractAddr",
          "type": "address"
        },
        {
          "name": "_withdrawVerifierContractAddr",
          "type": "address"
        }
      ],
      "payable": false,
      "stateMutability": "nonpayable",
      "type": "constructor",
      "signature": "constructor"
    },
    {
      "constant": false,
      "inputs": [
        {
          "name": "a",
          "type": "uint256[2]"
        },
        {
          "name": "b",
          "type": "uint256[2][2]"
        },
        {
          "name": "c",
          "type": "uint256[2]"
        },
        {
          "name": "input",
          "type": "uint256[2]"
        }
      ],
      "name": "snarkTransition",
      "outputs": [],
      "payable": false,
      "stateMutability": "nonpayable",
      "type": "function",
      "signature": "0x92a38292"
    },
    {
      "constant": false,
      "inputs": [
        {
          "name": "a",
          "type": "uint256[2]"
        },
        {
          "name": "b",
          "type": "uint256[2][2]"
        },
        {
          "name": "c",
          "type": "uint256[2]"
        },
        {
          "name": "input",
          "type": "uint256[8]"
        }
      ],
      "name": "withdraw",
      "outputs": [],
      "payable": false,
      "stateMutability": "nonpayable",
      "type": "function",
      "signature": "0x91035a9e"
    }
  ],
  "bytecode": "0x608060405234801561001057600080fd5b5060405160408061097f8339810180604052604081101561003057600080fd5b810190808051906020019092919080519060200190929190505050816000806101000a81548173ffffffffffffffffffffffffffffffffffffffff021916908373ffffffffffffffffffffffffffffffffffffffff16021790555080600160006101000a81548173ffffffffffffffffffffffffffffffffffffffff021916908373ffffffffffffffffffffffffffffffffffffffff16021790555033600360006101000a81548173ffffffffffffffffffffffffffffffffffffffff021916908373ffffffffffffffffffffffffffffffffffffffff16021790555050506108618061011e6000396000f3fe608060405260043610610062576000357c0100000000000000000000000000000000000000000000000000000000900463ffffffff168063864eb164146100675780638daed528146100be57806391035a9e1461011557806392a3829214610284575b600080fd5b34801561007357600080fd5b5061007c6103f2565b604051808273ffffffffffffffffffffffffffffffffffffffff1673ffffffffffffffffffffffffffffffffffffffff16815260200191505060405180910390f35b3480156100ca57600080fd5b506100d3610418565b604051808273ffffffffffffffffffffffffffffffffffffffff1673ffffffffffffffffffffffffffffffffffffffff16815260200191505060405180910390f35b34801561012157600080fd5b50610282600480360361020081101561013957600080fd5b8101908080604001906002806020026040519081016040528092919082600260200280828437600081840152601f19601f82011690508083019250505050505091929192908060800190600280602002604051908101604052809291906000905b828210156101ee578382604002016002806020026040519081016040528092919082600260200280828437600081840152601f19601f8201169050808301925050505050508152602001906001019061019a565b50505050919291929080604001906002806020026040519081016040528092919082600260200280828437600081840152601f19601f82011690508083019250505050505091929192908061010001906008806020026040519081016040528092919082600860200280828437600081840152601f19601f820116905080830192505050505050919291929050505061043d565b005b34801561029057600080fd5b506103f060048036036101408110156102a857600080fd5b8101908080604001906002806020026040519081016040528092919082600260200280828437600081840152601f19601f82011690508083019250505050505091929192908060800190600280602002604051908101604052809291906000905b8282101561035d578382604002016002806020026040519081016040528092919082600260200280828437600081840152601f19601f82011690508083019250505050505081526020019060010190610309565b50505050919291929080604001906002806020026040519081016040528092919082600260200280828437600081840152601f19601f820116905080830192505050505050919291929080604001906002806020026040519081016040528092919082600260200280828437600081840152601f19601f820116905080830192505050505050919291929050505061060d565b005b600160009054906101000a900473ffffffffffffffffffffffffffffffffffffffff1681565b6000809054906101000a900473ffffffffffffffffffffffffffffffffffffffff1681565b600160009054906101000a900473ffffffffffffffffffffffffffffffffffffffff1673ffffffffffffffffffffffffffffffffffffffff1663c9219a7a858585856040518563ffffffff167c01000000000000000000000000000000000000000000000000000000000281526004018085600260200280838360005b838110156104d55780820151818401526020810190506104ba565b505050509050018460026000925b818410156105295782846020020151600260200280838360005b838110156105185780820151818401526020810190506104fd565b5050505090500192600101926104e3565b9250505083600260200280838360005b83811015610554578082015181840152602081019050610539565b5050505090500182600860200280838360005b83811015610582578082015181840152602081019050610567565b5050505090500194505050505060206040518083038186803b1580156105a757600080fd5b505afa1580156105bb573d6000803e3d6000fd5b505050506040513d60208110156105d157600080fd5b810190808051906020019092919050505015156105ed57600080fd5b8060006008811015156105fc57fe5b602002015160028190555050505050565b600360009054906101000a900473ffffffffffffffffffffffffffffffffffffffff1673ffffffffffffffffffffffffffffffffffffffff163373ffffffffffffffffffffffffffffffffffffffff1614151561066657fe5b6000809054906101000a900473ffffffffffffffffffffffffffffffffffffffff1673ffffffffffffffffffffffffffffffffffffffff1663f5c9d69e858585856040518563ffffffff167c01000000000000000000000000000000000000000000000000000000000281526004018085600260200280838360005b838110156106fd5780820151818401526020810190506106e2565b505050509050018460026000925b818410156107515782846020020151600260200280838360005b83811015610740578082015181840152602081019050610725565b50505050905001926001019261070b565b9250505083600260200280838360005b8381101561077c578082015181840152602081019050610761565b5050505090500182600260200280838360005b838110156107aa57808201518184015260208101905061078f565b5050505090500194505050505060206040518083038186803b1580156107cf57600080fd5b505afa1580156107e3573d6000803e3d6000fd5b505050506040513d60208110156107f957600080fd5b8101908080519060200190929190505050151561081557600080fd5b80600060028110151561082457fe5b60200201516002819055505050505056fea165627a7a7230582098376703da0fdb0ae4cab130f6068fef7ca591e78b5f78c6056a5744a6d680e50029",
  "source": "pragma solidity >=0.4.21;\n\nimport './TransferVerifier.sol';\nimport './WithdrawVerifier.sol';\n\ncontract RollupNC {\n\n    TransferVerifier public transferVerifier;\n    WithdrawVerifier public withdrawVerifier;\n\n    uint256 merkleRoot;\n    address operator;\n\n    constructor(\n        address _transferVerifierContractAddr,\n        address _withdrawVerifierContractAddr) \n    public {\n        transferVerifier = TransferVerifier(_transferVerifierContractAddr);\n        withdrawVerifier = WithdrawVerifier(_withdrawVerifierContractAddr);\n        operator = msg.sender;\n    }\n\n    modifier onlyOperator(){\n        assert(msg.sender == operator);\n        _;\n    }\n\n    function snarkTransition (\n            uint[2] memory a,\n            uint[2][2] memory b,\n            uint[2] memory c,\n            uint[2] memory input) public onlyOperator {\n        \n        //validate proof\n        require(transferVerifier.verifyProof(a,b,c,input));\n        \n        // update merkle root\n        merkleRoot = input[0];\n    }\n\n    function withdraw(\n            uint[2] memory a,\n            uint[2][2] memory b,\n            uint[2] memory c,\n            uint[8] memory input\n    ) public{\n\n        //validate withdraw proof\n        require(withdrawVerifier.verifyProof(a,b,c,input));\n        \n        //update merkle root\n        merkleRoot = input[0];\n    }\n\n}",
  "sourcePath": "/home/yingtong/RollupNC/contracts/RollupNC.sol",
  "compiler": {
    "name": "solc",
    "version": "0.5.0+commit.1d4f565a.Emscripten.clang"
  },
  "schemaVersion": "3.0.2",
  "updatedAt": "2019-03-25T14:43:23.283Z",
  "devdoc": {
    "methods": {}
  },
  "userdoc": {
    "methods": {}
  }
}