{
  "contractName": "RollupNC",
  "abi": [
    {
      "constant": true,
      "inputs": [],
      "name": "verifier",
      "outputs": [
        {
          "name": "",
          "type": "address"
        }
      ],
      "payable": false,
      "stateMutability": "view",
      "type": "function",
      "signature": "0x2b7ac3f3"
    },
    {
      "inputs": [
        {
          "name": "_verifierContractAddr",
          "type": "address"
        }
      ],
      "payable": false,
      "stateMutability": "nonpayable",
      "type": "constructor",
      "signature": "constructor"
    },
    {
      "constant": false,
      "inputs": [
        {
          "name": "a",
          "type": "uint256[2]"
        },
        {
          "name": "b",
          "type": "uint256[2][2]"
        },
        {
          "name": "c",
          "type": "uint256[2]"
        },
        {
          "name": "input",
          "type": "uint256[2]"
        }
      ],
      "name": "snarkTransition",
      "outputs": [],
      "payable": false,
      "stateMutability": "nonpayable",
      "type": "function",
      "signature": "0x92a38292"
    },
    {
      "constant": false,
      "inputs": [
        {
          "name": "a",
          "type": "uint256[2]"
        },
        {
          "name": "b",
          "type": "uint256[2][2]"
        },
        {
          "name": "c",
          "type": "uint256[2]"
        },
        {
          "name": "input",
          "type": "uint256[2]"
        }
      ],
      "name": "withdraw",
      "outputs": [],
      "payable": false,
      "stateMutability": "nonpayable",
      "type": "function",
      "signature": "0xc78784d7"
    }
  ],
  "bytecode": "0x608060405234801561001057600080fd5b506040516020806106fa8339810180604052602081101561003057600080fd5b8101908080519060200190929190505050806000806101000a81548173ffffffffffffffffffffffffffffffffffffffff021916908373ffffffffffffffffffffffffffffffffffffffff16021790555033600260006101000a81548173ffffffffffffffffffffffffffffffffffffffff021916908373ffffffffffffffffffffffffffffffffffffffff16021790555050610628806100d26000396000f3fe608060405260043610610057576000357c0100000000000000000000000000000000000000000000000000000000900463ffffffff1680632b7ac3f31461005c57806392a38292146100b3578063c78784d714610221575b600080fd5b34801561006857600080fd5b5061007161038f565b604051808273ffffffffffffffffffffffffffffffffffffffff1673ffffffffffffffffffffffffffffffffffffffff16815260200191505060405180910390f35b3480156100bf57600080fd5b5061021f60048036036101408110156100d757600080fd5b8101908080604001906002806020026040519081016040528092919082600260200280828437600081840152601f19601f82011690508083019250505050505091929192908060800190600280602002604051908101604052809291906000905b8282101561018c578382604002016002806020026040519081016040528092919082600260200280828437600081840152601f19601f82011690508083019250505050505081526020019060010190610138565b50505050919291929080604001906002806020026040519081016040528092919082600260200280828437600081840152601f19601f820116905080830192505050505050919291929080604001906002806020026040519081016040528092919082600260200280828437600081840152601f19601f82011690508083019250505050505091929192905050506103b4565b005b34801561022d57600080fd5b5061038d600480360361014081101561024557600080fd5b8101908080604001906002806020026040519081016040528092919082600260200280828437600081840152601f19601f82011690508083019250505050505091929192908060800190600280602002604051908101604052809291906000905b828210156102fa578382604002016002806020026040519081016040528092919082600260200280828437600081840152601f19601f820116905080830192505050505050815260200190600101906102a6565b50505050919291929080604001906002806020026040519081016040528092919082600260200280828437600081840152601f19601f820116905080830192505050505050919291929080604001906002806020026040519081016040528092919082600260200280828437600081840152601f19601f82011690508083019250505050505091929192905050506105dc565b005b6000809054906101000a900473ffffffffffffffffffffffffffffffffffffffff1681565b600260009054906101000a900473ffffffffffffffffffffffffffffffffffffffff1673ffffffffffffffffffffffffffffffffffffffff163373ffffffffffffffffffffffffffffffffffffffff1614151561040d57fe5b6000809054906101000a900473ffffffffffffffffffffffffffffffffffffffff1673ffffffffffffffffffffffffffffffffffffffff1663f5c9d69e858585856040518563ffffffff167c01000000000000000000000000000000000000000000000000000000000281526004018085600260200280838360005b838110156104a4578082015181840152602081019050610489565b505050509050018460026000925b818410156104f85782846020020151600260200280838360005b838110156104e75780820151818401526020810190506104cc565b5050505090500192600101926104b2565b9250505083600260200280838360005b83811015610523578082015181840152602081019050610508565b5050505090500182600260200280838360005b83811015610551578082015181840152602081019050610536565b5050505090500194505050505060206040518083038186803b15801561057657600080fd5b505afa15801561058a573d6000803e3d6000fd5b505050506040513d60208110156105a057600080fd5b810190808051906020019092919050505015156105bc57600080fd5b8060006002811015156105cb57fe5b602002015160018190555050505050565b8060006002811015156105eb57fe5b60200201516001819055505050505056fea165627a7a72305820c3870803b42fde7b37aff32a35a6a677c506c378d3d9c217c0e735fc76cb61a90029",
  "source": "pragma solidity >=0.4.21;\n\nimport './Verifier.sol';\n\ncontract RollupNC {\n\n    Verifier public verifier;\n    // WithdrawVerifier public withdrawVerifier;\n\n    uint256 merkleRoot;\n    address operator;\n\n    constructor(address _verifierContractAddr) public {\n        verifier = Verifier(_verifierContractAddr);\n        // withdrawVerifier = new WithdrawVerifier();\n        operator = msg.sender;\n    }\n\n    modifier onlyOperator(){\n        assert(msg.sender == operator);\n        _;\n    }\n\n    function snarkTransition (\n            uint[2] memory a,\n            uint[2][2] memory b,\n            uint[2] memory c,\n            uint[2] memory input) public onlyOperator {\n        \n        //validate proof\n        require(verifier.verifyProof(a,b,c,input));\n        \n        // update merkle root\n        merkleRoot = input[0];\n    }\n\n    function withdraw(\n            uint[2] memory a,\n            uint[2][2] memory b,\n            uint[2] memory c,\n            uint[2] memory input\n    ) public{\n\n        //validate withdraw proof\n        // require(withdrawVerifier.verifyProof(a,b,c,input));\n        \n        //update merkle root\n        merkleRoot = input[0];\n    }\n\n}",
  "sourcePath": "/home/yingtong/RollupNC/contracts/RollupNC.sol",
  "compiler": {
    "name": "solc",
    "version": "0.5.0+commit.1d4f565a.Emscripten.clang"
  },
  "schemaVersion": "3.0.2",
  "updatedAt": "2019-03-25T12:05:09.553Z",
  "devdoc": {
    "methods": {}
  },
  "userdoc": {
    "methods": {}
  }
}