{
  "contractName": "RollupNC",
  "abi": [
    {
      "constant": true,
      "inputs": [],
      "name": "coordinator",
      "outputs": [
        {
          "name": "",
          "type": "address"
        }
      ],
      "payable": false,
      "stateMutability": "view",
      "type": "function"
    },
    {
      "constant": true,
      "inputs": [],
      "name": "updateNumber",
      "outputs": [
        {
          "name": "",
          "type": "uint256"
        }
      ],
      "payable": false,
      "stateMutability": "view",
      "type": "function"
    },
    {
      "constant": true,
      "inputs": [],
      "name": "depositSubtreeHeight",
      "outputs": [
        {
          "name": "",
          "type": "uint256"
        }
      ],
      "payable": false,
      "stateMutability": "view",
      "type": "function"
    },
    {
      "constant": true,
      "inputs": [],
      "name": "queueNumber",
      "outputs": [
        {
          "name": "",
          "type": "uint256"
        }
      ],
      "payable": false,
      "stateMutability": "view",
      "type": "function"
    },
    {
      "constant": true,
      "inputs": [
        {
          "name": "a",
          "type": "uint256[2]"
        },
        {
          "name": "b",
          "type": "uint256[2][2]"
        },
        {
          "name": "c",
          "type": "uint256[2]"
        },
        {
          "name": "input",
          "type": "uint256[3]"
        }
      ],
      "name": "withdraw_verifyProof",
      "outputs": [
        {
          "name": "r",
          "type": "bool"
        }
      ],
      "payable": false,
      "stateMutability": "view",
      "type": "function"
    },
    {
      "constant": true,
      "inputs": [],
      "name": "mimc",
      "outputs": [
        {
          "name": "",
          "type": "address"
        }
      ],
      "payable": false,
      "stateMutability": "view",
      "type": "function"
    },
    {
      "constant": true,
      "inputs": [],
      "name": "mimcMerkle",
      "outputs": [
        {
          "name": "",
          "type": "address"
        }
      ],
      "payable": false,
      "stateMutability": "view",
      "type": "function"
    },
    {
      "constant": true,
      "inputs": [],
      "name": "tokenRegistry",
      "outputs": [
        {
          "name": "",
          "type": "address"
        }
      ],
      "payable": false,
      "stateMutability": "view",
      "type": "function"
    },
    {
      "constant": true,
      "inputs": [
        {
          "name": "",
          "type": "uint256"
        }
      ],
      "name": "pendingDeposits",
      "outputs": [
        {
          "name": "",
          "type": "uint256"
        }
      ],
      "payable": false,
      "stateMutability": "view",
      "type": "function"
    },
    {
      "constant": true,
      "inputs": [
        {
          "name": "",
          "type": "uint256"
        }
      ],
      "name": "deposits",
      "outputs": [
        {
          "name": "",
          "type": "uint256"
        }
      ],
      "payable": false,
      "stateMutability": "view",
      "type": "function"
    },
    {
      "constant": true,
      "inputs": [
        {
          "name": "",
          "type": "uint256"
        }
      ],
      "name": "updates",
      "outputs": [
        {
          "name": "",
          "type": "uint256"
        }
      ],
      "payable": false,
      "stateMutability": "view",
      "type": "function"
    },
    {
      "constant": true,
      "inputs": [
        {
          "name": "a",
          "type": "uint256[2]"
        },
        {
          "name": "b",
          "type": "uint256[2][2]"
        },
        {
          "name": "c",
          "type": "uint256[2]"
        },
        {
          "name": "input",
          "type": "uint256[3]"
        }
      ],
      "name": "update_verifyProof",
      "outputs": [
        {
          "name": "r",
          "type": "bool"
        }
      ],
      "payable": false,
      "stateMutability": "view",
      "type": "function"
    },
    {
      "constant": true,
      "inputs": [],
      "name": "BAL_DEPTH",
      "outputs": [
        {
          "name": "",
          "type": "uint256"
        }
      ],
      "payable": false,
      "stateMutability": "view",
      "type": "function"
    },
    {
      "constant": true,
      "inputs": [],
      "name": "TX_DEPTH",
      "outputs": [
        {
          "name": "",
          "type": "uint256"
        }
      ],
      "payable": false,
      "stateMutability": "view",
      "type": "function"
    },
    {
      "constant": true,
      "inputs": [],
      "name": "currentRoot",
      "outputs": [
        {
          "name": "",
          "type": "uint256"
        }
      ],
      "payable": false,
      "stateMutability": "view",
      "type": "function"
    },
    {
      "inputs": [
        {
          "name": "_mimcContractAddr",
          "type": "address"
        },
        {
          "name": "_mimcMerkleContractAddr",
          "type": "address"
        },
        {
          "name": "_tokenRegistryAddr",
          "type": "address"
        }
      ],
      "payable": false,
      "stateMutability": "nonpayable",
      "type": "constructor"
    },
    {
      "anonymous": false,
      "inputs": [
        {
          "indexed": false,
          "name": "tokenType",
          "type": "uint256"
        },
        {
          "indexed": false,
          "name": "tokenContract",
          "type": "address"
        }
      ],
      "name": "RegisteredToken",
      "type": "event"
    },
    {
      "anonymous": false,
      "inputs": [
        {
          "indexed": false,
          "name": "pubkey",
          "type": "uint256[2]"
        },
        {
          "indexed": false,
          "name": "amount",
          "type": "uint256"
        },
        {
          "indexed": false,
          "name": "tokenType",
          "type": "uint256"
        }
      ],
      "name": "RequestDeposit",
      "type": "event"
    },
    {
      "anonymous": false,
      "inputs": [
        {
          "indexed": false,
          "name": "currentRoot",
          "type": "uint256"
        },
        {
          "indexed": false,
          "name": "oldRoot",
          "type": "uint256"
        },
        {
          "indexed": false,
          "name": "txRoot",
          "type": "uint256"
        }
      ],
      "name": "UpdatedState",
      "type": "event"
    },
    {
      "anonymous": false,
      "inputs": [
        {
          "indexed": false,
          "name": "pubkey_from",
          "type": "uint256[2]"
        },
        {
          "indexed": false,
          "name": "recipient",
          "type": "address"
        },
        {
          "indexed": false,
          "name": "txRoot",
          "type": "uint256"
        },
        {
          "indexed": false,
          "name": "txInfo",
          "type": "uint256[3]"
        }
      ],
      "name": "Withdraw",
      "type": "event"
    },
    {
      "constant": false,
      "inputs": [
        {
          "name": "a",
          "type": "uint256[2]"
        },
        {
          "name": "b",
          "type": "uint256[2][2]"
        },
        {
          "name": "c",
          "type": "uint256[2]"
        },
        {
          "name": "input",
          "type": "uint256[3]"
        }
      ],
      "name": "updateState",
      "outputs": [],
      "payable": false,
      "stateMutability": "nonpayable",
      "type": "function"
    },
    {
      "constant": false,
      "inputs": [
        {
          "name": "pubkey",
          "type": "uint256[2]"
        },
        {
          "name": "amount",
          "type": "uint256"
        },
        {
          "name": "tokenType",
          "type": "uint256"
        }
      ],
      "name": "deposit",
      "outputs": [],
      "payable": true,
      "stateMutability": "payable",
      "type": "function"
    },
    {
      "constant": false,
      "inputs": [
        {
          "name": "subtreePosition",
          "type": "uint256[2]"
        },
        {
          "name": "subtreeProof",
          "type": "uint256[2]"
        }
      ],
      "name": "processDeposits",
      "outputs": [
        {
          "name": "",
          "type": "uint256"
        }
      ],
      "payable": false,
      "stateMutability": "nonpayable",
      "type": "function"
    },
    {
      "constant": false,
      "inputs": [
        {
          "name": "pubkey_from",
          "type": "uint256[2]"
        },
        {
          "name": "txInfo",
          "type": "uint256[3]"
        },
        {
          "name": "positionAndProof",
          "type": "uint256[2][2]"
        },
        {
          "name": "txRoot",
          "type": "uint256"
        },
        {
          "name": "recipient",
          "type": "address"
        },
        {
          "name": "a",
          "type": "uint256[2]"
        },
        {
          "name": "b",
          "type": "uint256[2][2]"
        },
        {
          "name": "c",
          "type": "uint256[2]"
        }
      ],
      "name": "withdraw",
      "outputs": [],
      "payable": false,
      "stateMutability": "nonpayable",
      "type": "function"
    },
    {
      "constant": false,
      "inputs": [
        {
          "name": "tokenContract",
          "type": "address"
        }
      ],
      "name": "registerToken",
      "outputs": [],
      "payable": false,
      "stateMutability": "nonpayable",
      "type": "function"
    },
    {
      "constant": false,
      "inputs": [
        {
          "name": "tokenContract",
          "type": "address"
        }
      ],
      "name": "approveToken",
      "outputs": [],
      "payable": false,
      "stateMutability": "nonpayable",
      "type": "function"
    }
  ],
  "bytecode": "0x608060405260046009556002600a553480156200001b57600080fd5b50604051606080620043e5833981018060405260608110156200003d57600080fd5b81019080805190602001909291908051906020019092919080519060200190929190505050826000806101000a81548173ffffffffffffffffffffffffffffffffffffffff021916908373ffffffffffffffffffffffffffffffffffffffff16021790555081600160006101000a81548173ffffffffffffffffffffffffffffffffffffffff021916908373ffffffffffffffffffffffffffffffffffffffff16021790555080600260006101000a81548173ffffffffffffffffffffffffffffffffffffffff021916908373ffffffffffffffffffffffffffffffffffffffff160217905550600160009054906101000a900473ffffffffffffffffffffffffffffffffffffffff1673ffffffffffffffffffffffffffffffffffffffff1663c34ca6416009546040518263ffffffff167c01000000000000000000000000000000000000000000000000000000000281526004018082815260200191505060206040518083038186803b158015620001b657600080fd5b505afa158015620001cb573d6000803e3d6000fd5b505050506040513d6020811015620001e257600080fd5b810190808051906020019092919050505060038190555033600460006101000a81548173ffffffffffffffffffffffffffffffffffffffff021916908373ffffffffffffffffffffffffffffffffffffffff16021790555060006006819055506000600781905550600060088190555050505061418080620002656000396000f3fe60806040526004361061011d576000357c0100000000000000000000000000000000000000000000000000000000900463ffffffff16806309824a80146101225780630a009097146101735780631b6a2481146101ca5780632882dd98146101f55780632fa6779a146102205780633734d2f01461024b5780633ec18cf7146103d1578063455deb3d1461049857806376385cc3146106ea5780637f38a9831461074157806380b2edd8146107985780639d23c4c7146107e9578063a793279414610840578063b02c43d01461088f578063b4c2f727146108de578063b67868e61461092d578063ca717ee214610ab3578063d63a2c1814610ade578063f94fe63a14610b09578063fdab463d14610c77578063ff1bbc4e14610ca2575b600080fd5b34801561012e57600080fd5b506101716004803603602081101561014557600080fd5b81019080803573ffffffffffffffffffffffffffffffffffffffff169060200190929190505050610d1b565b005b34801561017f57600080fd5b50610188610df3565b604051808273ffffffffffffffffffffffffffffffffffffffff1673ffffffffffffffffffffffffffffffffffffffff16815260200191505060405180910390f35b3480156101d657600080fd5b506101df610e19565b6040518082815260200191505060405180910390f35b34801561020157600080fd5b5061020a610e1f565b6040518082815260200191505060405180910390f35b34801561022c57600080fd5b50610235610e25565b6040518082815260200191505060405180910390f35b34801561025757600080fd5b506103b7600480360361016081101561026f57600080fd5b8101908080604001906002806020026040519081016040528092919082600260200280828437600081840152601f19601f82011690508083019250505050505091929192908060800190600280602002604051908101604052809291906000905b82821015610324578382604002016002806020026040519081016040528092919082600260200280828437600081840152601f19601f820116905080830192505050505050815260200190600101906102d0565b50505050919291929080604001906002806020026040519081016040528092919082600260200280828437600081840152601f19601f820116905080830192505050505050919291929080606001906003806020026040519081016040528092919082600360200280828437600081840152601f19601f8201169050808301925050505050509192919290505050610e2b565b604051808215151515815260200191505060405180910390f35b3480156103dd57600080fd5b50610482600480360360808110156103f457600080fd5b8101908080604001906002806020026040519081016040528092919082600260200280828437600081840152601f19601f820116905080830192505050505050919291929080604001906002806020026040519081016040528092919082600260200280828437600081840152601f19601f8201169050808301925050505050509192919290505050611045565b6040518082815260200191505060405180910390f35b3480156104a457600080fd5b506106e860048036036102608110156104bc57600080fd5b8101908080604001906002806020026040519081016040528092919082600260200280828437600081840152601f19601f820116905080830192505050505050919291929080606001906003806020026040519081016040528092919082600360200280828437600081840152601f19601f82011690508083019250505050505091929192908060800190600280602002604051908101604052809291906000905b828210156105b2578382604002016002806020026040519081016040528092919082600260200280828437600081840152601f19601f8201169050808301925050505050508152602001906001019061055e565b50505050919291929080359060200190929190803573ffffffffffffffffffffffffffffffffffffffff16906020019092919080604001906002806020026040519081016040528092919082600260200280828437600081840152601f19601f82011690508083019250505050505091929192908060800190600280602002604051908101604052809291906000905b82821015610696578382604002016002806020026040519081016040528092919082600260200280828437600081840152601f19601f82011690508083019250505050505081526020019060010190610642565b50505050919291929080604001906002806020026040519081016040528092919082600260200280828437600081840152601f19601f8201169050808301925050505050509192919290505050611482565b005b3480156106f657600080fd5b506106ff611b4e565b604051808273ffffffffffffffffffffffffffffffffffffffff1673ffffffffffffffffffffffffffffffffffffffff16815260200191505060405180910390f35b34801561074d57600080fd5b50610756611b73565b604051808273ffffffffffffffffffffffffffffffffffffffff1673ffffffffffffffffffffffffffffffffffffffff16815260200191505060405180910390f35b3480156107a457600080fd5b506107e7600480360360208110156107bb57600080fd5b81019080803573ffffffffffffffffffffffffffffffffffffffff169060200190929190505050611b99565b005b3480156107f557600080fd5b506107fe611df3565b604051808273ffffffffffffffffffffffffffffffffffffffff1673ffffffffffffffffffffffffffffffffffffffff16815260200191505060405180910390f35b34801561084c57600080fd5b506108796004803603602081101561086357600080fd5b8101908080359060200190929190505050611e19565b6040518082815260200191505060405180910390f35b34801561089b57600080fd5b506108c8600480360360208110156108b257600080fd5b8101908080359060200190929190505050611e3c565b6040518082815260200191505060405180910390f35b3480156108ea57600080fd5b506109176004803603602081101561090157600080fd5b8101908080359060200190929190505050611e54565b6040518082815260200191505060405180910390f35b34801561093957600080fd5b50610a99600480360361016081101561095157600080fd5b8101908080604001906002806020026040519081016040528092919082600260200280828437600081840152601f19601f82011690508083019250505050505091929192908060800190600280602002604051908101604052809291906000905b82821015610a06578382604002016002806020026040519081016040528092919082600260200280828437600081840152601f19601f820116905080830192505050505050815260200190600101906109b2565b50505050919291929080604001906002806020026040519081016040528092919082600260200280828437600081840152601f19601f820116905080830192505050505050919291929080606001906003806020026040519081016040528092919082600360200280828437600081840152601f19601f8201169050808301925050505050509192919290505050611e6c565b604051808215151515815260200191505060405180910390f35b348015610abf57600080fd5b50610ac8612086565b6040518082815260200191505060405180910390f35b348015610aea57600080fd5b50610af361208c565b6040518082815260200191505060405180910390f35b348015610b1557600080fd5b50610c756004803603610160811015610b2d57600080fd5b8101908080604001906002806020026040519081016040528092919082600260200280828437600081840152601f19601f82011690508083019250505050505091929192908060800190600280602002604051908101604052809291906000905b82821015610be2578382604002016002806020026040519081016040528092919082600260200280828437600081840152601f19601f82011690508083019250505050505081526020019060010190610b8e565b50505050919291929080604001906002806020026040519081016040528092919082600260200280828437600081840152601f19601f820116905080830192505050505050919291929080606001906003806020026040519081016040528092919082600360200280828437600081840152601f19601f8201169050808301925050505050509192919290505050612092565b005b348015610c8357600080fd5b50610c8c6122fc565b6040518082815260200191505060405180910390f35b610d1960048036036080811015610cb857600080fd5b8101908080604001906002806020026040519081016040528092919082600260200280828437600081840152601f19601f82011690508083019250505050505091929192908035906020019092919080359060200190929190505050612302565b005b600260009054906101000a900473ffffffffffffffffffffffffffffffffffffffff1673ffffffffffffffffffffffffffffffffffffffff166309824a80826040518263ffffffff167c0100000000000000000000000000000000000000000000000000000000028152600401808273ffffffffffffffffffffffffffffffffffffffff1673ffffffffffffffffffffffffffffffffffffffff168152602001915050600060405180830381600087803b158015610dd857600080fd5b505af1158015610dec573d6000803e3d6000fd5b5050505050565b600460009054906101000a900473ffffffffffffffffffffffffffffffffffffffff1681565b60085481565b60075481565b60065481565b6000610e35613f21565b6040805190810160405280876000600281101515610e4f57fe5b60200201518152602001876001600281101515610e6857fe5b6020020151815250816000018190525060408051908101604052806040805190810160405280886000600281101515610e9d57fe5b60200201516000600281101515610eb057fe5b60200201518152602001886000600281101515610ec957fe5b60200201516001600281101515610edc57fe5b602002015181525081526020016040805190810160405280886001600281101515610f0357fe5b60200201516000600281101515610f1657fe5b60200201518152602001886001600281101515610f2f57fe5b60200201516001600281101515610f4257fe5b602002015181525081525081602001819052506040805190810160405280856000600281101515610f6f57fe5b60200201518152602001856001600281101515610f8857fe5b6020020151815250816040018190525060606003604051908082528060200260200182016040528015610fca5781602001602082028038833980820191505090505b50905060008090505b6003811015611018578481600381101515610fea57fe5b60200201518282815181101515610ffd57fe5b90602001906020020181815250508080600101915050610fd3565b5060006110258284612941565b14156110365760019250505061103d565b6000925050505b949350505050565b6000600460009054906101000a900473ffffffffffffffffffffffffffffffffffffffff1673ffffffffffffffffffffffffffffffffffffffff163373ffffffffffffffffffffffffffffffffffffffff161415156110a057fe5b6000600160009054906101000a900473ffffffffffffffffffffffffffffffffffffffff1673ffffffffffffffffffffffffffffffffffffffff1663c34ca64160026040518263ffffffff167c01000000000000000000000000000000000000000000000000000000000281526004018082815260200191505060206040518083038186803b15801561113257600080fd5b505afa158015611146573d6000803e3d6000fd5b505050506040513d602081101561115c57600080fd5b81019080805190602001909291905050509050600160009054906101000a900473ffffffffffffffffffffffffffffffffffffffff1673ffffffffffffffffffffffffffffffffffffffff16639a12886c8286866040518463ffffffff167c01000000000000000000000000000000000000000000000000000000000281526004018084815260200183600260200280838360005b8381101561120c5780820151818401526020810190506111f1565b5050505090500182600260200280838360005b8381101561123a57808201518184015260208101905061121f565b50505050905001935050505060206040518083038186803b15801561125e57600080fd5b505afa158015611272573d6000803e3d6000fd5b505050506040513d602081101561128857600080fd5b8101908080519060200190929190505050600354141515611311576040517f08c379a000000000000000000000000000000000000000000000000000000000815260040180806020018281038252601e8152602001807f7370656369666965642073756274726565206973206e6f7420656d707479000081525060200191505060405180910390fd5b600160009054906101000a900473ffffffffffffffffffffffffffffffffffffffff1673ffffffffffffffffffffffffffffffffffffffff16639a12886c6005600081548110151561135f57fe5b906000526020600020015486866040518463ffffffff167c01000000000000000000000000000000000000000000000000000000000281526004018084815260200183600260200280838360005b838110156113c85780820151818401526020810190506113ad565b5050505090500182600260200280838360005b838110156113f65780820151818401526020810190506113db565b50505050905001935050505060206040518083038186803b15801561141a57600080fd5b505afa15801561142e573d6000803e3d6000fd5b505050506040513d602081101561144457600080fd5b81019080805190602001909291905050506003819055506114656000612ad7565b5060075460020a6006540360068190555060035491505092915050565b6000600c60008781526020019081526020016000205411151561150d576040517f08c379a00000000000000000000000000000000000000000000000000000000081526004018080602001828103825260118152602001807f7478526f6f74206d75737420657869737400000000000000000000000000000081525060200191505060405180910390fd5b6000600160009054906101000a900473ffffffffffffffffffffffffffffffffffffffff1673ffffffffffffffffffffffffffffffffffffffff16631e2d6a4d60e0604051908101604052808c600060028110151561156857fe5b602002015181526020018c600160028110151561158157fe5b6020020151815260200160008152602001600081526020018b60006003811015156115a857fe5b602002015181526020018b60016003811015156115c157fe5b602002015181526020018b60026003811015156115da57fe5b60200201518152506040518263ffffffff167c01000000000000000000000000000000000000000000000000000000000281526004018082600760200280838360005b8381101561163857808201518184015260208101905061161d565b5050505090500191505060206040518083038186803b15801561165a57600080fd5b505afa15801561166e573d6000803e3d6000fd5b505050506040513d602081101561168457600080fd5b81019080805190602001909291905050509050600160009054906101000a900473ffffffffffffffffffffffffffffffffffffffff1673ffffffffffffffffffffffffffffffffffffffff16639a12886c828960006002811015156116e557fe5b60200201518a60016002811015156116f957fe5b60200201516040518463ffffffff167c01000000000000000000000000000000000000000000000000000000000281526004018084815260200183600260200280838360005b8381101561175a57808201518184015260208101905061173f565b5050505090500182600260200280838360005b8381101561178857808201518184015260208101905061176d565b50505050905001935050505060206040518083038186803b1580156117ac57600080fd5b505afa1580156117c0573d6000803e3d6000fd5b505050506040513d60208110156117d657600080fd5b810190808051906020019092919050505086141515611883576040517f08c379a00000000000000000000000000000000000000000000000000000000081526004018080602001828103825260398152602001807f7472616e73616374696f6e20646f6573206e6f7420657869737420696e20737081526020017f65636966696564207472616e73616374696f6e7320726f6f740000000000000081525060400191505060405180910390fd5b6000600160009054906101000a900473ffffffffffffffffffffffffffffffffffffffff1673ffffffffffffffffffffffffffffffffffffffff166373e1073760408051908101604052808c60006003811015156118dd57fe5b602002015181526020018973ffffffffffffffffffffffffffffffffffffffff168152506040518263ffffffff167c01000000000000000000000000000000000000000000000000000000000281526004018082600260200280838360005b8381101561195757808201518184015260208101905061193c565b5050505090500191505060206040518083038186803b15801561197957600080fd5b505afa15801561198d573d6000803e3d6000fd5b505050506040513d60208110156119a357600080fd5b81019080805190602001909291905050509050611a038585856060604051908101604052808f60006002811015156119d757fe5b602002015181526020018f60016002811015156119f057fe5b6020020151815260200186815250610e2b565b1515611a77576040517f08c379a000000000000000000000000000000000000000000000000000000000815260040180806020018281038252601c8152602001807f6564647361207369676e6174757265206973206e6f742076616c69640000000081525060200191505060405180910390fd5b7f9254e9982536fc7c34958e6a054469f269ea82708ef52f4701b46baae20ed73a8a87898c6040518085600260200280838360005b83811015611ac7578082015181840152602081019050611aac565b505050509050018473ffffffffffffffffffffffffffffffffffffffff1673ffffffffffffffffffffffffffffffffffffffff16815260200183815260200182600360200280838360005b83811015611b2d578082015181840152602081019050611b12565b5050505090500194505050505060405180910390a150505050505050505050565b6000809054906101000a900473ffffffffffffffffffffffffffffffffffffffff1681565b600160009054906101000a900473ffffffffffffffffffffffffffffffffffffffff1681565b600460009054906101000a900473ffffffffffffffffffffffffffffffffffffffff1673ffffffffffffffffffffffffffffffffffffffff163373ffffffffffffffffffffffffffffffffffffffff16141515611bf257fe5b600260009054906101000a900473ffffffffffffffffffffffffffffffffffffffff1673ffffffffffffffffffffffffffffffffffffffff166380b2edd8826040518263ffffffff167c0100000000000000000000000000000000000000000000000000000000028152600401808273ffffffffffffffffffffffffffffffffffffffff1673ffffffffffffffffffffffffffffffffffffffff168152602001915050600060405180830381600087803b158015611caf57600080fd5b505af1158015611cc3573d6000803e3d6000fd5b505050507f5dbaa701a7acef513f72a61799f7e50f4653f462b9f780d88d1b9bec89de2168600260009054906101000a900473ffffffffffffffffffffffffffffffffffffffff1673ffffffffffffffffffffffffffffffffffffffff16638e499bcf6040518163ffffffff167c010000000000000000000000000000000000000000000000000000000002815260040160206040518083038186803b158015611d6c57600080fd5b505afa158015611d80573d6000803e3d6000fd5b505050506040513d6020811015611d9657600080fd5b810190808051906020019092919050505082604051808381526020018273ffffffffffffffffffffffffffffffffffffffff1673ffffffffffffffffffffffffffffffffffffffff1681526020019250505060405180910390a150565b600260009054906101000a900473ffffffffffffffffffffffffffffffffffffffff1681565b600581815481101515611e2857fe5b906000526020600020016000915090505481565b600b6020528060005260406000206000915090505481565b600c6020528060005260406000206000915090505481565b6000611e76613f56565b6040805190810160405280876000600281101515611e9057fe5b60200201518152602001876001600281101515611ea957fe5b6020020151815250816000018190525060408051908101604052806040805190810160405280886000600281101515611ede57fe5b60200201516000600281101515611ef157fe5b60200201518152602001886000600281101515611f0a57fe5b60200201516001600281101515611f1d57fe5b602002015181525081526020016040805190810160405280886001600281101515611f4457fe5b60200201516000600281101515611f5757fe5b60200201518152602001886001600281101515611f7057fe5b60200201516001600281101515611f8357fe5b602002015181525081525081602001819052506040805190810160405280856000600281101515611fb057fe5b60200201518152602001856001600281101515611fc957fe5b602002015181525081604001819052506060600360405190808252806020026020018201604052801561200b5781602001602082028038833980820191505090505b50905060008090505b600381101561205957848160038110151561202b57fe5b6020020151828281518110151561203e57fe5b90602001906020020181815250508080600101915050612014565b5060006120668284612c46565b14156120775760019250505061207e565b6000925050505b949350505050565b60095481565b600a5481565b600460009054906101000a900473ffffffffffffffffffffffffffffffffffffffff1673ffffffffffffffffffffffffffffffffffffffff163373ffffffffffffffffffffffffffffffffffffffff161415156120eb57fe5b8060026003811015156120fa57fe5b602002015160035414151561219d576040517f08c379a00000000000000000000000000000000000000000000000000000000081526004018080602001828103825260218152602001807f696e70757420646f6573206e6f74206d617463682063757272656e7420726f6f81526020017f740000000000000000000000000000000000000000000000000000000000000081525060400191505060405180910390fd5b6121a984848484611e6c565b151561221d576040517f08c379a00000000000000000000000000000000000000000000000000000000081526004018080602001828103825260168152602001807f534e41524b2070726f6f6620697320696e76616c69640000000000000000000081525060200191505060405180910390fd5b80600060038110151561222c57fe5b6020020151600381905550600860008154809291906001019190505550600854600c600083600160038110151561225f57fe5b60200201518152602001908152602001600020819055507fbe4212065768908e69f6c63172b1d155abe731f87bfc61b83a5c3b93f12c853f8160006003811015156122a657fe5b60200201518260016003811015156122ba57fe5b60200201518360026003811015156122ce57fe5b602002015160405180848152602001838152602001828152602001935050505060405180910390a150505050565b60035481565b6000821180156123125750600181115b8061232957506000341180156123285750600181145b5b806123815750600460009054906101000a900473ffffffffffffffffffffffffffffffffffffffff1673ffffffffffffffffffffffffffffffffffffffff163373ffffffffffffffffffffffffffffffffffffffff16145b15156123f5576040517f08c379a000000000000000000000000000000000000000000000000000000000815260040180806020018281038252601f8152602001807f4465706f736974206d7573742062652067726561746572207468616e20302e0081525060200191505060405180910390fd5b60008114806124045750600181145b806125055750600073ffffffffffffffffffffffffffffffffffffffff16600260009054906101000a900473ffffffffffffffffffffffffffffffffffffffff1673ffffffffffffffffffffffffffffffffffffffff16639a0ba2ea836040518263ffffffff167c01000000000000000000000000000000000000000000000000000000000281526004018082815260200191505060206040518083038186803b1580156124b157600080fd5b505afa1580156124c5573d6000803e3d6000fd5b505050506040513d60208110156124db57600080fd5b810190808051906020019092919050505073ffffffffffffffffffffffffffffffffffffffff1614155b1515612579576040517f08c379a000000000000000000000000000000000000000000000000000000000815260040180806020018281038252601c8152602001807f746f6b656e54797065206973206e6f7420726567697374657265642e0000000081525060200191505060405180910390fd5b6000600160009054906101000a900473ffffffffffffffffffffffffffffffffffffffff1673ffffffffffffffffffffffffffffffffffffffff16638250573560a0604051908101604052808760006002811015156125d457fe5b602002015181526020018760016002811015156125ed57fe5b6020020151815260200186815260200160008152602001858152506040518263ffffffff167c01000000000000000000000000000000000000000000000000000000000281526004018082600560200280838360005b8381101561265e578082015181840152602081019050612643565b5050505090500191505060206040518083038186803b15801561268057600080fd5b505afa158015612694573d6000803e3d6000fd5b505050506040513d60208110156126aa57600080fd5b8101908080519060200190929190505050905060058190806001815401808255809150509060018203906000526020600020016000909192909190915055507f595b7e310cd1b7e94b72db62a3257c5fa242cbca10740eb40ae49044f5dcff1f8484846040518084600260200280838360005b8381101561273857808201518184015260208101905061271d565b50505050905001838152602001828152602001935050505060405180910390a16006600081548092919060010191905055506000809050600060065490505b600060028281151561278557fe5b06141561292757600160009054906101000a900473ffffffffffffffffffffffffffffffffffffffff1673ffffffffffffffffffffffffffffffffffffffff166373e10737604080519081016040528060056002600580549050038154811015156127ec57fe5b90600052602060002001548152602001600560016005805490500381548110151561281357fe5b90600052602060002001548152506040518263ffffffff167c01000000000000000000000000000000000000000000000000000000000281526004018082600260200280838360005b8381101561287757808201518184015260208101905061285c565b5050505090500191505060206040518083038186803b15801561289957600080fd5b505afa1580156128ad573d6000803e3d6000fd5b505050506040513d60208110156128c357600080fd5b810190808051906020019092919050505060056002600580549050038154811015156128eb57fe5b906000526020600020018190555061290a600160058054905003612ad7565b5060028181151561291757fe5b0490508180600101925050612777565b60075482111561293957816007819055505b505050505050565b600061294b613f8b565b612953612ddc565b905080608001515160018551011415156129d5576040517f08c379a00000000000000000000000000000000000000000000000000000000081526004018080602001828103825260128152602001807f76657269666965722d6261642d696e707574000000000000000000000000000081525060200191505060405180910390fd5b6129dd613fd4565b6040805190810160405280600081526020016000815250905060008090505b8551811015612a5c57612a4d82612a48856080015160018501815181101515612a2157fe5b906020019060200201518985815181101515612a3957fe5b906020019060200201516132aa565b6133ad565b915080806001019150506129fc565b50612a838183608001516000815181101515612a7457fe5b906020019060200201516133ad565b9050612ab9612a9585600001516134d1565b8560200151846000015185602001518587604001518a60400151896060015161356d565b1515612aca57600192505050612ad1565b6000925050505b92915050565b606060058054905082101515612b55576040517f08c379a00000000000000000000000000000000000000000000000000000000081526004018080602001828103825260168152602001807f696e646578206973206f7574206f6620626f756e64730000000000000000000081525060200191505060405180910390fd5b60008290505b600160058054905003811015612bb257600560018201815481101515612b7d57fe5b9060005260206000200154600582815481101515612b9757fe5b90600052602060002001819055508080600101915050612b5b565b506005600160058054905003815481101515612bca57fe5b90600052602060002001600090556005805480919060019003612bed9190613fee565b506005805480602002602001604051908101604052809291908181526020018280548015612c3a57602002820191906000526020600020905b815481526020019060010190808311612c26575b50505050509050919050565b6000612c5061401a565b612c586136f1565b90508060800151516001855101141515612cda576040517f08c379a00000000000000000000000000000000000000000000000000000000081526004018080602001828103825260128152602001807f76657269666965722d6261642d696e707574000000000000000000000000000081525060200191505060405180910390fd5b612ce2613fd4565b6040805190810160405280600081526020016000815250905060008090505b8551811015612d6157612d5282612d4d856080015160018501815181101515612d2657fe5b906020019060200201518985815181101515612d3e57fe5b906020019060200201516132aa565b6133ad565b91508080600101915050612d01565b50612d888183608001516000815181101515612d7957fe5b906020019060200201516133ad565b9050612dbe612d9a85600001516134d1565b8560200151846000015185602001518587604001518a60400151896060015161356d565b1515612dcf57600192505050612dd6565b6000925050505b92915050565b612de4613f8b565b60408051908101604052807f0f4e2a80831358f59fe25973a20fc025f0440da813c252d461416fe2c053d19b81526020017f0a9ed884827f6ee85db87bfff877cfebe1b3a1cde80138ef4ae02823639f1d6d8152508160000181905250604080519081016040528060408051908101604052807f182c5bfada417d9d3ea90c47ca25fc3c1e36a1a34e30790df7934c4b6df6ec8981526020017f27b36d848276c6f456818e3f206772febb6ed453d328924fbe04feb8777ac528815250815260200160408051908101604052807f26d7490c23c6edc6a9eccd6476208ebb762ae8eccfb8dcdc3138914eef44244b81526020017f19b24f495c4da58e7669249c4b20b3dad00f07b4ce0522da3e77d611a58202578152508152508160200181905250604080519081016040528060408051908101604052807f051e2386568775afdc6d09da26887ede5053dbd0433e5de98c1e51a11a1676dc81526020017f1fbc374ae8b7220ef3a56cd442bdf262b1ccfe90113998f7c8b5f142f9d73cab815250815260200160408051908101604052807ef5a374bd8e13317d80af74f90db315ff279457c7b1e8207a86108b1b93e31481526020017f09cf3f2e3aa379cff0a708d3627345fc2aa0f0edd933a3d6bf48db87637c82d68152508152508160400181905250604080519081016040528060408051908101604052807f0c78ddfafe12f5215fdbf22f37aed2d3dd6334626244ad55c6b132bc721accf381526020017f2a4a01377a1614be4db9fed8260fe5ce35d56d8e71c20d0112fc8acfa124d4b4815250815260200160408051908101604052807f1a468bf509164c7b2129dc4290234b95e46765f4cbe93c1b43feafd7b5b10dc881526020017f1e7ec150a235e5126beea381c3bffe4d23b8c03f31f6d42ec8835c4ad817f7cb815250815250816060018190525060046040519080825280602002602001820160405280156130ca57816020015b6130b7614063565b8152602001906001900390816130af5790505b50816080018190525060408051908101604052807f284f75407c5a95d3c575e2b06ddb6cf3b5ccef3cbcad8aec1d04612ce2c5ed4481526020017f10514647ef7afe31bd9d47851ce0c8256ba679eed9acc23707d98ac9c94f0f998152508160800151600081518110151561313b57fe5b9060200190602002018190525060408051908101604052807f041b8c180433e2d7c476bd0967827f18da208be7ab15352d9b5b2dbca8f8ae8a81526020017f1e8922f68d2a09a8fcb9feb8f27217203ca40b31d32a946ed33772b71687097d815250816080015160018151811015156131b057fe5b9060200190602002018190525060408051908101604052807f093c8d884113ed07736a1dff6c7197df08febeff7b7abe1a64f564515fbbbced81526020017f020824baf8143fe6621fe78b3fd58b2fac65e9fb7f005ef6d905a6d45e79a5538152508160800151600281518110151561322557fe5b9060200190602002018190525060408051908101604052807f191cc269ba636687c62c15257c72baff07519f5eb59ed2748a9e7444223a6d2981526020017f13d78660111881720eaec6ca8b0532a0619a1cdc6400d2adad4857dbd0365f6c8152508160800151600381518110151561329a57fe5b9060200190602002018190525090565b6132b2613fd4565b6132ba61407d565b83600001518160006003811015156132ce57fe5b60200201818152505083602001518160016003811015156132eb57fe5b6020020181815250508281600260038110151561330457fe5b602002018181525050600060608360808460076107d05a03fa9050806000811461332d5761332f565bfe5b508015156133a5576040517f08c379a00000000000000000000000000000000000000000000000000000000081526004018080602001828103825260128152602001807f70616972696e672d6d756c2d6661696c6564000000000000000000000000000081525060200191505060405180910390fd5b505092915050565b6133b5613fd4565b6133bd6140a0565b83600001518160006004811015156133d157fe5b60200201818152505083602001518160016004811015156133ee57fe5b602002018181525050826000015181600260048110151561340b57fe5b602002018181525050826020015181600360048110151561342857fe5b602002018181525050600060608360c08460066107d05a03fa9050806000811461345157613453565bfe5b508015156134c9576040517f08c379a00000000000000000000000000000000000000000000000000000000081526004018080602001828103825260128152602001807f70616972696e672d6164642d6661696c6564000000000000000000000000000081525060200191505060405180910390fd5b505092915050565b6134d9613fd4565b60007f30644e72e131a029b85045b68181585d97816a916871ca8d3c208c16d87cfd47905060008360000151148015613516575060008360200151145b1561353a576040805190810160405280600081526020016000815250915050613568565b60408051908101604052808460000151815260200182856020015181151561355e57fe5b0683038152509150505b919050565b6000606060046040519080825280602002602001820160405280156135ac57816020015b613599614063565b8152602001906001900390816135915790505b509050606060046040519080825280602002602001820160405280156135ec57816020015b6135d96140c3565b8152602001906001900390816135d15790505b5090508a8260008151811015156135ff57fe5b906020019060200201819052508882600181518110151561361c57fe5b906020019060200201819052508682600281518110151561363957fe5b906020019060200201819052508482600381518110151561365657fe5b906020019060200201819052508981600081518110151561367357fe5b906020019060200201819052508781600181518110151561369057fe5b90602001906020020181905250858160028151811015156136ad57fe5b90602001906020020181905250838160038151811015156136ca57fe5b906020019060200201819052506136e18282613bbe565b9250505098975050505050505050565b6136f961401a565b60408051908101604052807e54814d29dce7d78e56a7fa2e347e5a59194c6e105468bce7bc7290a1b9958681526020017eaedc990cd5be725c87458a337da71758748f5573b4b02824fe5914418e3d5d8152508160000181905250604080519081016040528060408051908101604052807f15e761cdf2d3ecc539c229850158616f913af7d7bd43c36787dbbd6eefac0d3281526020017f125b17778b31e0497f12865aac3acbb158b4725fb57fca4d66751b3c87c63e4f815250815260200160408051908101604052807f0cf852a8bc9bac3320e7cde8d1ddc3da2fc4bc4ed218f73ae7e75397d15d23c481526020017f02f9126cb90467b03d20b9e30d9ba06ab83c1b45696d09de2b1987bc3fcdc64d8152508152508160200181905250604080519081016040528060408051908101604052807f03b8139b96e5b19b0adcb946f911de7d1d49b5c5a4274721faec4c402ec452e781526020017f25e048457b132568aeae833e0e36f765da57892eb92e019b142d9b67ddbd7b50815250815260200160408051908101604052807f2244ad215c5c1b2145b38c57cf3ab654af6f9968feb406c0d08a7f1f99e9c40e81526020017f21b1aae1a72d3abe1f29e93e941b928524dd382705b88749085d63abd62569f68152508152508160400181905250604080519081016040528060408051908101604052807f0f38e189f3b9c22e7906b946e6ea4ecc01843ffec4e4b29470c603df482516f281526020017f04ab2058d11fd5559d6688745be349a55568ec8a6ce0350030083fbc2096b2bf815250815260200160408051908101604052807f05f8950f3a391a4b3a8556f969d31ed7abfa8fff3fba5af2631555c93464fb9081526020017f0f0a0c3d95fd6865b0c19def1e281a36bfecf3bb3f9d1b3be68c0d53b1d78b73815250815250816060018190525060046040519080825280602002602001820160405280156139de57816020015b6139cb614063565b8152602001906001900390816139c35790505b50816080018190525060408051908101604052807f16cc22771c154cac3a2cfc5e572e0dfdfe42f59e3d388e633a31442d2391524581526020017f26413195581a109fc11da97214fbd0c358992288cf0c3e7189123ca9978eea0a81525081608001516000815181101515613a4f57fe5b9060200190602002018190525060408051908101604052807f0a727d88b26d2250806687ec5151c89f05dda5729fb60e9a817aa7d2bb902a4f81526020017f1a5b429e6164512b183bbf2e99bd074bdcbbb3abe6758f844b95943cf7b7257181525081608001516001815181101515613ac457fe5b9060200190602002018190525060408051908101604052807f0e1e725a099150e9906f09188387f475ffd1ebb30e09c105f47b9caaf3c97da581526020017f0260501f451e3bc3c2698c610a598a84d1b734cc2f6de100126eb57a042e0f7581525081608001516002815181101515613b3957fe5b9060200190602002018190525060408051908101604052807f1ca7809be04be7eb1d4223b1df08d19bf6b572f22f9ba57291dc0597a6b90b1881526020017f0f6d5a9e299f98bbf93c5975fc679705f33161908e0366434408092e059b99ba81525081608001516003815181101515613bae57fe5b9060200190602002018190525090565b600081518351141515613c39576040517f08c379a00000000000000000000000000000000000000000000000000000000081526004018080602001828103825260168152602001807f70616972696e672d6c656e677468732d6661696c65640000000000000000000081525060200191505060405180910390fd5b6000835190506000600682029050606081604051908082528060200260200182016040528015613c785781602001602082028038833980820191505090505b50905060008090505b83811015613e56578681815181101515613c9757fe5b90602001906020020151600001518260006006840201815181101515613cb957fe5b90602001906020020181815250508681815181101515613cd557fe5b90602001906020020151602001518260016006840201815181101515613cf757fe5b90602001906020020181815250508581815181101515613d1357fe5b90602001906020020151600001516000600281101515613d2f57fe5b60200201518260026006840201815181101515613d4857fe5b90602001906020020181815250508581815181101515613d6457fe5b90602001906020020151600001516001600281101515613d8057fe5b60200201518260036006840201815181101515613d9957fe5b90602001906020020181815250508581815181101515613db557fe5b90602001906020020151602001516000600281101515613dd157fe5b60200201518260046006840201815181101515613dea57fe5b90602001906020020181815250508581815181101515613e0657fe5b90602001906020020151602001516001600281101515613e2257fe5b60200201518260056006840201815181101515613e3b57fe5b90602001906020020181815250508080600101915050613c81565b50613e5f6140ea565b6000602082602086026020860160086107d05a03fa90508060008114613e8457613e86565bfe5b50801515613efc576040517f08c379a00000000000000000000000000000000000000000000000000000000081526004018080602001828103825260158152602001807f70616972696e672d6f70636f64652d6661696c6564000000000000000000000081525060200191505060405180910390fd5b6000826000600181101515613f0d57fe5b602002015114159550505050505092915050565b61010060405190810160405280613f36614063565b8152602001613f436140c3565b8152602001613f50614063565b81525090565b61010060405190810160405280613f6b614063565b8152602001613f786140c3565b8152602001613f85614063565b81525090565b6101e060405190810160405280613fa0614063565b8152602001613fad6140c3565b8152602001613fba6140c3565b8152602001613fc76140c3565b8152602001606081525090565b604080519081016040528060008152602001600081525090565b81548183558181111561401557818360005260206000209182019101614014919061410d565b5b505050565b6101e06040519081016040528061402f614063565b815260200161403c6140c3565b81526020016140496140c3565b81526020016140566140c3565b8152602001606081525090565b604080519081016040528060008152602001600081525090565b606060405190810160405280600390602082028038833980820191505090505090565b608060405190810160405280600490602082028038833980820191505090505090565b6080604051908101604052806140d7614132565b81526020016140e4614132565b81525090565b602060405190810160405280600190602082028038833980820191505090505090565b61412f91905b8082111561412b576000816000905550600101614113565b5090565b90565b604080519081016040528060029060208202803883398082019150509050509056fea165627a7a72305820641d7c71aee073f4783ebc0d7803e9bb11030180e3c6d4ce12d7fa866fce94ef0029",
  "source": "pragma solidity ^0.5.0;\n\nimport \"../build/Update_verifier.sol\";\nimport \"../build/Withdraw_verifier.sol\";\n\ncontract IMiMC {\n    function MiMCpe7(uint256,uint256) public pure returns(uint256) {}\n}\n\ncontract IMiMCMerkle {\n\n    uint[16] public zeroCache;\n    function getRootFromProof2(\n        uint256,\n        uint256[2] memory,\n        uint256[2] memory\n    ) public view returns(uint) {}\n    function hashBalance(uint[5] memory) public view returns(uint){}\n    function hashTx(uint[7] memory) public view returns(uint) {}\n    function hashPair(uint[2] memory) public view returns(uint){}\n    function hashHeight2Tree(uint[4] memory) public view returns(uint){}\n}\n\ncontract ITokenRegistry {\n    address public coordinator;\n    uint256 public numTokens;\n    mapping(address => bool) public pendingTokens;\n    mapping(uint256 => address) public registeredTokens;\n    modifier onlyCoordinator(){\n        assert (msg.sender == coordinator);\n        _;\n    }\n    function registerToken(address tokenContract) public {}\n    function approveToken(address tokenContract) public onlyCoordinator{}\n}\n\ncontract RollupNC is Update_verifier, Withdraw_verifier{\n\n    IMiMC public mimc;\n    IMiMCMerkle public mimcMerkle;\n    ITokenRegistry public tokenRegistry;\n\n    uint256 public currentRoot;\n    address public coordinator;\n    uint256[] public pendingDeposits;\n    uint public queueNumber;\n    uint public depositSubtreeHeight;\n    uint256 public updateNumber;\n\n    uint256 public BAL_DEPTH = 4;\n    uint256 public TX_DEPTH = 2;\n\n    // (queueNumber => [pubkey_x, pubkey_y, balance, nonce, token_type])\n    mapping(uint256 => uint256) public deposits; //leaf idx => leafHash\n    mapping(uint256 => uint256) public updates; //txRoot => update idx\n\n    event RegisteredToken(uint tokenType, address tokenContract);\n    event RequestDeposit(uint[2] pubkey, uint amount, uint tokenType);\n    event UpdatedState(uint currentRoot, uint oldRoot, uint txRoot);\n    event Withdraw(uint[2] pubkey_from, address recipient, uint txRoot, uint[3] txInfo);\n\n    constructor(\n        address _mimcContractAddr,\n        address _mimcMerkleContractAddr,\n        address _tokenRegistryAddr\n    ) public {\n        mimc = IMiMC(_mimcContractAddr);\n        mimcMerkle = IMiMCMerkle(_mimcMerkleContractAddr);\n        tokenRegistry = ITokenRegistry(_tokenRegistryAddr);\n        currentRoot = mimcMerkle.zeroCache(BAL_DEPTH);\n        coordinator = msg.sender;\n        queueNumber = 0;\n        depositSubtreeHeight = 0;\n        updateNumber = 0;\n    }\n\n    modifier onlyCoordinator(){\n        assert(msg.sender == coordinator);\n        _;\n    }\n\n    function updateState(\n            uint[2] memory a,\n            uint[2][2] memory b,\n            uint[2] memory c,\n            uint[3] memory input\n        ) public onlyCoordinator {\n        require(currentRoot == input[2], \"input does not match current root\");\n        //validate proof\n        require(update_verifyProof(a,b,c,input),\n        \"SNARK proof is invalid\");\n        // update merkle root\n        currentRoot = input[0];\n        updateNumber++;\n        updates[input[1]] = updateNumber;\n        emit UpdatedState(input[0], input[1], input[2]); //newRoot, txRoot, oldRoot\n    }\n\n    // user tries to deposit ERC20 tokens\n    function deposit(\n        uint[2] memory pubkey,\n        uint amount,\n        uint tokenType\n    ) public payable {\n        require(\n            (amount > 0 && tokenType > 1) ||\n            (msg.value > 0 && tokenType == 1) ||\n            msg.sender == coordinator,\n            \"Deposit must be greater than 0.\"\n        );\n        require(\n            tokenType == 0 ||\n            tokenType == 1 ||\n            tokenRegistry.registeredTokens(tokenType) != address(0),\n        \"tokenType is not registered.\");\n        uint depositHash = mimcMerkle.hashBalance(\n            [pubkey[0], pubkey[1], amount, 0, tokenType]\n        );\n        pendingDeposits.push(depositHash);\n        emit RequestDeposit(pubkey, amount, tokenType);\n        queueNumber++;\n        uint tmpDepositSubtreeHeight = 0;\n        uint tmp = queueNumber;\n        while(tmp % 2 == 0){\n            pendingDeposits[pendingDeposits.length - 2] = mimcMerkle.hashPair(\n                [pendingDeposits[pendingDeposits.length - 2],\n                pendingDeposits[pendingDeposits.length - 1]]);\n            removeDeposit(pendingDeposits.length - 1);\n            tmp = tmp / 2;\n            tmpDepositSubtreeHeight++;\n        }\n        if (tmpDepositSubtreeHeight > depositSubtreeHeight){\n            depositSubtreeHeight = tmpDepositSubtreeHeight;\n        }\n    }\n\n\n\n    // coordinator adds certain number of deposits to balance tree\n    // coordinator must specify subtree index in the tree since the deposits\n    // are being inserted at a nonzero height\n    function processDeposits(\n        uint[2] memory subtreePosition,\n        uint[2] memory subtreeProof\n    ) public onlyCoordinator returns(uint256){\n        uint emptySubtreeRoot = mimcMerkle.zeroCache(2); //empty subtree of height 2\n        require(currentRoot == mimcMerkle.getRootFromProof2(\n            emptySubtreeRoot, subtreePosition, subtreeProof),\n            \"specified subtree is not empty\");\n        currentRoot = mimcMerkle.getRootFromProof2(\n            pendingDeposits[0], subtreePosition, subtreeProof);\n        removeDeposit(0);\n        queueNumber = queueNumber - 2**depositSubtreeHeight;\n        return currentRoot;\n    }\n\n    function withdraw(\n        uint[2] memory pubkey_from,\n        uint[3] memory txInfo, //[nonce, amount, token_type_from]\n        uint[2][2] memory positionAndProof, //[[position], [proof]]\n        uint txRoot,\n        address recipient,\n        uint[2] memory a,\n        uint[2][2] memory b,\n        uint[2] memory c\n    ) public{\n        require(updates[txRoot] > 0, \"txRoot must exist\");\n        uint txLeaf = mimcMerkle.hashTx([\n            pubkey_from[0], pubkey_from[1],\n            0, 0, //withdraw to zero address\n            txInfo[0], txInfo[1], txInfo[2]\n        ]);\n        require(txRoot == mimcMerkle.getRootFromProof2(\n            txLeaf, positionAndProof[0], positionAndProof[1]),\n            \"transaction does not exist in specified transactions root\"\n        );\n\n        // message is hash of nonce and recipient address\n        uint m = mimcMerkle.hashPair([txInfo[0], uint(recipient)]);\n        require(withdraw_verifyProof(\n            a, b, c, [pubkey_from[0], pubkey_from[1], m]),\n            \"eddsa signature is not valid\");\n\n        emit Withdraw(pubkey_from, recipient, txRoot, txInfo);\n    }\n\n    //call methods on TokenRegistry contract\n\n    function registerToken(\n        address tokenContract\n    ) public {\n        tokenRegistry.registerToken(tokenContract);\n    }\n\n    function approveToken(\n        address tokenContract\n    ) public onlyCoordinator {\n        tokenRegistry.approveToken(tokenContract);\n        emit RegisteredToken(tokenRegistry.numTokens(),tokenContract);\n    }\n\n    // helper functions\n    function removeDeposit(uint index) internal returns(uint[] memory) {\n        require(index < pendingDeposits.length, \"index is out of bounds\");\n\n        for (uint i = index; i<pendingDeposits.length-1; i++){\n            pendingDeposits[i] = pendingDeposits[i+1];\n        }\n        delete pendingDeposits[pendingDeposits.length-1];\n        pendingDeposits.length--;\n        return pendingDeposits;\n    }\n}\n",
  "sourcePath": "/home/moss/rollupnc/contracts/RollupNC.sol",
  "compiler": {
    "name": "solc",
    "version": "0.5.0+commit.1d4f565a.Emscripten.clang"
  },
  "schemaVersion": "3.0.6",
  "updatedAt": "2019-06-30T15:41:01.739Z",
  "devdoc": {
    "methods": {}
  },
  "userdoc": {
    "methods": {}
  }
}