{
  "contractName": "RollupNC",
  "abi": [
    {
      "constant": true,
      "inputs": [],
      "name": "coordinator",
      "outputs": [
        {
          "name": "",
          "type": "address"
        }
      ],
      "payable": false,
      "stateMutability": "view",
      "type": "function"
    },
    {
      "constant": true,
      "inputs": [],
      "name": "updateNumber",
      "outputs": [
        {
          "name": "",
          "type": "uint256"
        }
      ],
      "payable": false,
      "stateMutability": "view",
      "type": "function"
    },
    {
      "constant": true,
      "inputs": [],
      "name": "depositSubtreeHeight",
      "outputs": [
        {
          "name": "",
          "type": "uint256"
        }
      ],
      "payable": false,
      "stateMutability": "view",
      "type": "function"
    },
    {
      "constant": true,
      "inputs": [],
      "name": "queueNumber",
      "outputs": [
        {
          "name": "",
          "type": "uint256"
        }
      ],
      "payable": false,
      "stateMutability": "view",
      "type": "function"
    },
    {
      "constant": true,
      "inputs": [
        {
          "name": "a",
          "type": "uint256[2]"
        },
        {
          "name": "b",
          "type": "uint256[2][2]"
        },
        {
          "name": "c",
          "type": "uint256[2]"
        },
        {
          "name": "input",
          "type": "uint256[3]"
        }
      ],
      "name": "withdraw_verifyProof",
      "outputs": [
        {
          "name": "r",
          "type": "bool"
        }
      ],
      "payable": false,
      "stateMutability": "view",
      "type": "function"
    },
    {
      "constant": true,
      "inputs": [],
      "name": "mimc",
      "outputs": [
        {
          "name": "",
          "type": "address"
        }
      ],
      "payable": false,
      "stateMutability": "view",
      "type": "function"
    },
    {
      "constant": true,
      "inputs": [],
      "name": "mimcMerkle",
      "outputs": [
        {
          "name": "",
          "type": "address"
        }
      ],
      "payable": false,
      "stateMutability": "view",
      "type": "function"
    },
    {
      "constant": true,
      "inputs": [],
      "name": "tokenRegistry",
      "outputs": [
        {
          "name": "",
          "type": "address"
        }
      ],
      "payable": false,
      "stateMutability": "view",
      "type": "function"
    },
    {
      "constant": true,
      "inputs": [
        {
          "name": "",
          "type": "uint256"
        }
      ],
      "name": "pendingDeposits",
      "outputs": [
        {
          "name": "",
          "type": "uint256"
        }
      ],
      "payable": false,
      "stateMutability": "view",
      "type": "function"
    },
    {
      "constant": true,
      "inputs": [
        {
          "name": "",
          "type": "uint256"
        }
      ],
      "name": "deposits",
      "outputs": [
        {
          "name": "",
          "type": "uint256"
        }
      ],
      "payable": false,
      "stateMutability": "view",
      "type": "function"
    },
    {
      "constant": true,
      "inputs": [
        {
          "name": "",
          "type": "uint256"
        }
      ],
      "name": "updates",
      "outputs": [
        {
          "name": "",
          "type": "uint256"
        }
      ],
      "payable": false,
      "stateMutability": "view",
      "type": "function"
    },
    {
      "constant": true,
      "inputs": [
        {
          "name": "a",
          "type": "uint256[2]"
        },
        {
          "name": "b",
          "type": "uint256[2][2]"
        },
        {
          "name": "c",
          "type": "uint256[2]"
        },
        {
          "name": "input",
          "type": "uint256[3]"
        }
      ],
      "name": "update_verifyProof",
      "outputs": [
        {
          "name": "r",
          "type": "bool"
        }
      ],
      "payable": false,
      "stateMutability": "view",
      "type": "function"
    },
    {
      "constant": true,
      "inputs": [],
      "name": "BAL_DEPTH",
      "outputs": [
        {
          "name": "",
          "type": "uint256"
        }
      ],
      "payable": false,
      "stateMutability": "view",
      "type": "function"
    },
    {
      "constant": true,
      "inputs": [],
      "name": "TX_DEPTH",
      "outputs": [
        {
          "name": "",
          "type": "uint256"
        }
      ],
      "payable": false,
      "stateMutability": "view",
      "type": "function"
    },
    {
      "constant": true,
      "inputs": [],
      "name": "currentRoot",
      "outputs": [
        {
          "name": "",
          "type": "uint256"
        }
      ],
      "payable": false,
      "stateMutability": "view",
      "type": "function"
    },
    {
      "inputs": [
        {
          "name": "_mimcContractAddr",
          "type": "address"
        },
        {
          "name": "_mimcMerkleContractAddr",
          "type": "address"
        },
        {
          "name": "_tokenRegistryAddr",
          "type": "address"
        }
      ],
      "payable": false,
      "stateMutability": "nonpayable",
      "type": "constructor"
    },
    {
      "anonymous": false,
      "inputs": [
        {
          "indexed": false,
          "name": "tokenType",
          "type": "uint256"
        },
        {
          "indexed": false,
          "name": "tokenContract",
          "type": "address"
        }
      ],
      "name": "RegisteredToken",
      "type": "event"
    },
    {
      "anonymous": false,
      "inputs": [
        {
          "indexed": false,
          "name": "pubkey",
          "type": "uint256[2]"
        },
        {
          "indexed": false,
          "name": "amount",
          "type": "uint256"
        },
        {
          "indexed": false,
          "name": "tokenType",
          "type": "uint256"
        }
      ],
      "name": "RequestDeposit",
      "type": "event"
    },
    {
      "anonymous": false,
      "inputs": [
        {
          "indexed": false,
          "name": "currentRoot",
          "type": "uint256"
        },
        {
          "indexed": false,
          "name": "oldRoot",
          "type": "uint256"
        },
        {
          "indexed": false,
          "name": "txRoot",
          "type": "uint256"
        }
      ],
      "name": "UpdatedState",
      "type": "event"
    },
    {
      "anonymous": false,
      "inputs": [
        {
          "indexed": false,
          "name": "accountInfo",
          "type": "uint256[3]"
        },
        {
          "indexed": false,
          "name": "recipient",
          "type": "address"
        },
        {
          "indexed": false,
          "name": "txRoot",
          "type": "uint256"
        },
        {
          "indexed": false,
          "name": "txInfo",
          "type": "uint256[3]"
        }
      ],
      "name": "Withdraw",
      "type": "event"
    },
    {
      "constant": false,
      "inputs": [
        {
          "name": "a",
          "type": "uint256[2]"
        },
        {
          "name": "b",
          "type": "uint256[2][2]"
        },
        {
          "name": "c",
          "type": "uint256[2]"
        },
        {
          "name": "input",
          "type": "uint256[3]"
        }
      ],
      "name": "updateState",
      "outputs": [],
      "payable": false,
      "stateMutability": "nonpayable",
      "type": "function"
    },
    {
      "constant": false,
      "inputs": [
        {
          "name": "pubkey",
          "type": "uint256[2]"
        },
        {
          "name": "amount",
          "type": "uint256"
        },
        {
          "name": "tokenType",
          "type": "uint256"
        }
      ],
      "name": "deposit",
      "outputs": [],
      "payable": true,
      "stateMutability": "payable",
      "type": "function"
    },
    {
      "constant": false,
      "inputs": [
        {
          "name": "subtreePosition",
          "type": "uint256[2]"
        },
        {
          "name": "subtreeProof",
          "type": "uint256[2]"
        }
      ],
      "name": "processDeposits",
      "outputs": [
        {
          "name": "",
          "type": "uint256"
        }
      ],
      "payable": false,
      "stateMutability": "nonpayable",
      "type": "function"
    },
    {
      "constant": false,
      "inputs": [
        {
          "name": "accountInfo",
          "type": "uint256[3]"
        },
        {
          "name": "txInfo",
          "type": "uint256[3]"
        },
        {
          "name": "positionAndProof",
          "type": "uint256[2][2]"
        },
        {
          "name": "txRoot",
          "type": "uint256"
        },
        {
          "name": "recipient",
          "type": "address"
        },
        {
          "name": "a",
          "type": "uint256[2]"
        },
        {
          "name": "b",
          "type": "uint256[2][2]"
        },
        {
          "name": "c",
          "type": "uint256[2]"
        }
      ],
      "name": "withdraw",
      "outputs": [],
      "payable": false,
      "stateMutability": "nonpayable",
      "type": "function"
    },
    {
      "constant": false,
      "inputs": [
        {
          "name": "tokenContract",
          "type": "address"
        }
      ],
      "name": "registerToken",
      "outputs": [],
      "payable": false,
      "stateMutability": "nonpayable",
      "type": "function"
    },
    {
      "constant": false,
      "inputs": [
        {
          "name": "tokenContract",
          "type": "address"
        }
      ],
      "name": "approveToken",
      "outputs": [],
      "payable": false,
      "stateMutability": "nonpayable",
      "type": "function"
    }
  ],
  "bytecode": "0x608060405260046009556002600a553480156200001b57600080fd5b5060405160608062004401833981018060405260608110156200003d57600080fd5b81019080805190602001909291908051906020019092919080519060200190929190505050826000806101000a81548173ffffffffffffffffffffffffffffffffffffffff021916908373ffffffffffffffffffffffffffffffffffffffff16021790555081600160006101000a81548173ffffffffffffffffffffffffffffffffffffffff021916908373ffffffffffffffffffffffffffffffffffffffff16021790555080600260006101000a81548173ffffffffffffffffffffffffffffffffffffffff021916908373ffffffffffffffffffffffffffffffffffffffff160217905550600160009054906101000a900473ffffffffffffffffffffffffffffffffffffffff1673ffffffffffffffffffffffffffffffffffffffff1663c34ca6416009546040518263ffffffff167c01000000000000000000000000000000000000000000000000000000000281526004018082815260200191505060206040518083038186803b158015620001b657600080fd5b505afa158015620001cb573d6000803e3d6000fd5b505050506040513d6020811015620001e257600080fd5b810190808051906020019092919050505060038190555033600460006101000a81548173ffffffffffffffffffffffffffffffffffffffff021916908373ffffffffffffffffffffffffffffffffffffffff16021790555060006006819055506000600781905550600060088190555050505061419c80620002656000396000f3fe60806040526004361061011d576000357c0100000000000000000000000000000000000000000000000000000000900463ffffffff16806309824a80146101225780630a009097146101735780630e7a39f0146101ca5780631b6a24811461041c5780632882dd98146104475780632fa6779a146104725780633734d2f01461049d5780633ec18cf71461062357806376385cc3146106ea5780637f38a9831461074157806380b2edd8146107985780639d23c4c7146107e9578063a793279414610840578063b02c43d01461088f578063b4c2f727146108de578063b67868e61461092d578063ca717ee214610ab3578063d63a2c1814610ade578063f94fe63a14610b09578063fdab463d14610c77578063ff1bbc4e14610ca2575b600080fd5b34801561012e57600080fd5b506101716004803603602081101561014557600080fd5b81019080803573ffffffffffffffffffffffffffffffffffffffff169060200190929190505050610d1b565b005b34801561017f57600080fd5b50610188610df3565b604051808273ffffffffffffffffffffffffffffffffffffffff1673ffffffffffffffffffffffffffffffffffffffff16815260200191505060405180910390f35b3480156101d657600080fd5b5061041a60048036036102808110156101ee57600080fd5b8101908080606001906003806020026040519081016040528092919082600360200280828437600081840152601f19601f820116905080830192505050505050919291929080606001906003806020026040519081016040528092919082600360200280828437600081840152601f19601f82011690508083019250505050505091929192908060800190600280602002604051908101604052809291906000905b828210156102e4578382604002016002806020026040519081016040528092919082600260200280828437600081840152601f19601f82011690508083019250505050505081526020019060010190610290565b50505050919291929080359060200190929190803573ffffffffffffffffffffffffffffffffffffffff16906020019092919080604001906002806020026040519081016040528092919082600260200280828437600081840152601f19601f82011690508083019250505050505091929192908060800190600280602002604051908101604052809291906000905b828210156103c8578382604002016002806020026040519081016040528092919082600260200280828437600081840152601f19601f82011690508083019250505050505081526020019060010190610374565b50505050919291929080604001906002806020026040519081016040528092919082600260200280828437600081840152601f19601f8201169050808301925050505050509192919290505050610e19565b005b34801561042857600080fd5b506104316114ff565b6040518082815260200191505060405180910390f35b34801561045357600080fd5b5061045c611505565b6040518082815260200191505060405180910390f35b34801561047e57600080fd5b5061048761150b565b6040518082815260200191505060405180910390f35b3480156104a957600080fd5b5061060960048036036101608110156104c157600080fd5b8101908080604001906002806020026040519081016040528092919082600260200280828437600081840152601f19601f82011690508083019250505050505091929192908060800190600280602002604051908101604052809291906000905b82821015610576578382604002016002806020026040519081016040528092919082600260200280828437600081840152601f19601f82011690508083019250505050505081526020019060010190610522565b50505050919291929080604001906002806020026040519081016040528092919082600260200280828437600081840152601f19601f820116905080830192505050505050919291929080606001906003806020026040519081016040528092919082600360200280828437600081840152601f19601f8201169050808301925050505050509192919290505050611511565b604051808215151515815260200191505060405180910390f35b34801561062f57600080fd5b506106d46004803603608081101561064657600080fd5b8101908080604001906002806020026040519081016040528092919082600260200280828437600081840152601f19601f820116905080830192505050505050919291929080604001906002806020026040519081016040528092919082600260200280828437600081840152601f19601f820116905080830192505050505050919291929050505061172b565b6040518082815260200191505060405180910390f35b3480156106f657600080fd5b506106ff611b68565b604051808273ffffffffffffffffffffffffffffffffffffffff1673ffffffffffffffffffffffffffffffffffffffff16815260200191505060405180910390f35b34801561074d57600080fd5b50610756611b8d565b604051808273ffffffffffffffffffffffffffffffffffffffff1673ffffffffffffffffffffffffffffffffffffffff16815260200191505060405180910390f35b3480156107a457600080fd5b506107e7600480360360208110156107bb57600080fd5b81019080803573ffffffffffffffffffffffffffffffffffffffff169060200190929190505050611bb3565b005b3480156107f557600080fd5b506107fe611e0d565b604051808273ffffffffffffffffffffffffffffffffffffffff1673ffffffffffffffffffffffffffffffffffffffff16815260200191505060405180910390f35b34801561084c57600080fd5b506108796004803603602081101561086357600080fd5b8101908080359060200190929190505050611e33565b6040518082815260200191505060405180910390f35b34801561089b57600080fd5b506108c8600480360360208110156108b257600080fd5b8101908080359060200190929190505050611e56565b6040518082815260200191505060405180910390f35b3480156108ea57600080fd5b506109176004803603602081101561090157600080fd5b8101908080359060200190929190505050611e6e565b6040518082815260200191505060405180910390f35b34801561093957600080fd5b50610a99600480360361016081101561095157600080fd5b8101908080604001906002806020026040519081016040528092919082600260200280828437600081840152601f19601f82011690508083019250505050505091929192908060800190600280602002604051908101604052809291906000905b82821015610a06578382604002016002806020026040519081016040528092919082600260200280828437600081840152601f19601f820116905080830192505050505050815260200190600101906109b2565b50505050919291929080604001906002806020026040519081016040528092919082600260200280828437600081840152601f19601f820116905080830192505050505050919291929080606001906003806020026040519081016040528092919082600360200280828437600081840152601f19601f8201169050808301925050505050509192919290505050611e86565b604051808215151515815260200191505060405180910390f35b348015610abf57600080fd5b50610ac86120a0565b6040518082815260200191505060405180910390f35b348015610aea57600080fd5b50610af36120a6565b6040518082815260200191505060405180910390f35b348015610b1557600080fd5b50610c756004803603610160811015610b2d57600080fd5b8101908080604001906002806020026040519081016040528092919082600260200280828437600081840152601f19601f82011690508083019250505050505091929192908060800190600280602002604051908101604052809291906000905b82821015610be2578382604002016002806020026040519081016040528092919082600260200280828437600081840152601f19601f82011690508083019250505050505081526020019060010190610b8e565b50505050919291929080604001906002806020026040519081016040528092919082600260200280828437600081840152601f19601f820116905080830192505050505050919291929080606001906003806020026040519081016040528092919082600360200280828437600081840152601f19601f82011690508083019250505050505091929192905050506120ac565b005b348015610c8357600080fd5b50610c8c612316565b6040518082815260200191505060405180910390f35b610d1960048036036080811015610cb857600080fd5b8101908080604001906002806020026040519081016040528092919082600260200280828437600081840152601f19601f8201169050808301925050505050509192919290803590602001909291908035906020019092919050505061231c565b005b600260009054906101000a900473ffffffffffffffffffffffffffffffffffffffff1673ffffffffffffffffffffffffffffffffffffffff166309824a80826040518263ffffffff167c0100000000000000000000000000000000000000000000000000000000028152600401808273ffffffffffffffffffffffffffffffffffffffff1673ffffffffffffffffffffffffffffffffffffffff168152602001915050600060405180830381600087803b158015610dd857600080fd5b505af1158015610dec573d6000803e3d6000fd5b5050505050565b600460009054906101000a900473ffffffffffffffffffffffffffffffffffffffff1681565b6000600c600087815260200190815260200160002054111515610ea4576040517f08c379a00000000000000000000000000000000000000000000000000000000081526004018080602001828103825260118152602001807f7478526f6f74206d75737420657869737400000000000000000000000000000081525060200191505060405180910390fd5b6000600160009054906101000a900473ffffffffffffffffffffffffffffffffffffffff1673ffffffffffffffffffffffffffffffffffffffff16639396e152610100604051908101604052808c6000600381101515610f0057fe5b602002015181526020018c6001600381101515610f1957fe5b602002015181526020018c6002600381101515610f3257fe5b6020020151815260200160008152602001600081526020018b6000600381101515610f5957fe5b602002015181526020018b6001600381101515610f7257fe5b602002015181526020018b6002600381101515610f8b57fe5b60200201518152506040518263ffffffff167c01000000000000000000000000000000000000000000000000000000000281526004018082600860200280838360005b83811015610fe9578082015181840152602081019050610fce565b5050505090500191505060206040518083038186803b15801561100b57600080fd5b505afa15801561101f573d6000803e3d6000fd5b505050506040513d602081101561103557600080fd5b81019080805190602001909291905050509050600160009054906101000a900473ffffffffffffffffffffffffffffffffffffffff1673ffffffffffffffffffffffffffffffffffffffff16639a12886c8289600060028110151561109657fe5b60200201518a60016002811015156110aa57fe5b60200201516040518463ffffffff167c01000000000000000000000000000000000000000000000000000000000281526004018084815260200183600260200280838360005b8381101561110b5780820151818401526020810190506110f0565b5050505090500182600260200280838360005b8381101561113957808201518184015260208101905061111e565b50505050905001935050505060206040518083038186803b15801561115d57600080fd5b505afa158015611171573d6000803e3d6000fd5b505050506040513d602081101561118757600080fd5b810190808051906020019092919050505086141515611234576040517f08c379a00000000000000000000000000000000000000000000000000000000081526004018080602001828103825260398152602001807f7472616e73616374696f6e20646f6573206e6f7420657869737420696e20737081526020017f65636966696564207472616e73616374696f6e7320726f6f740000000000000081525060400191505060405180910390fd5b6000600160009054906101000a900473ffffffffffffffffffffffffffffffffffffffff1673ffffffffffffffffffffffffffffffffffffffff166373e1073760408051908101604052808c600060038110151561128e57fe5b602002015181526020018973ffffffffffffffffffffffffffffffffffffffff168152506040518263ffffffff167c01000000000000000000000000000000000000000000000000000000000281526004018082600260200280838360005b838110156113085780820151818401526020810190506112ed565b5050505090500191505060206040518083038186803b15801561132a57600080fd5b505afa15801561133e573d6000803e3d6000fd5b505050506040513d602081101561135457600080fd5b810190808051906020019092919050505090506113b48585856060604051908101604052808f600060038110151561138857fe5b602002015181526020018f60016003811015156113a157fe5b6020020151815260200186815250611511565b1515611428576040517f08c379a000000000000000000000000000000000000000000000000000000000815260040180806020018281038252601c8152602001807f6564647361207369676e6174757265206973206e6f742076616c69640000000081525060200191505060405180910390fd5b7f28ef37854a517a691de576871e81bc1b248e2a9bbbe495ed92dc60089858040e8a87898c6040518085600360200280838360005b8381101561147857808201518184015260208101905061145d565b505050509050018473ffffffffffffffffffffffffffffffffffffffff1673ffffffffffffffffffffffffffffffffffffffff16815260200183815260200182600360200280838360005b838110156114de5780820151818401526020810190506114c3565b5050505090500194505050505060405180910390a150505050505050505050565b60085481565b60075481565b60065481565b600061151b613f3d565b604080519081016040528087600060028110151561153557fe5b6020020151815260200187600160028110151561154e57fe5b602002015181525081600001819052506040805190810160405280604080519081016040528088600060028110151561158357fe5b6020020151600060028110151561159657fe5b602002015181526020018860006002811015156115af57fe5b602002015160016002811015156115c257fe5b6020020151815250815260200160408051908101604052808860016002811015156115e957fe5b602002015160006002811015156115fc57fe5b6020020151815260200188600160028110151561161557fe5b6020020151600160028110151561162857fe5b60200201518152508152508160200181905250604080519081016040528085600060028110151561165557fe5b6020020151815260200185600160028110151561166e57fe5b60200201518152508160400181905250606060036040519080825280602002602001820160405280156116b05781602001602082028038833980820191505090505b50905060008090505b60038110156116fe5784816003811015156116d057fe5b602002015182828151811015156116e357fe5b906020019060200201818152505080806001019150506116b9565b50600061170b828461295b565b141561171c57600192505050611723565b6000925050505b949350505050565b6000600460009054906101000a900473ffffffffffffffffffffffffffffffffffffffff1673ffffffffffffffffffffffffffffffffffffffff163373ffffffffffffffffffffffffffffffffffffffff1614151561178657fe5b6000600160009054906101000a900473ffffffffffffffffffffffffffffffffffffffff1673ffffffffffffffffffffffffffffffffffffffff1663c34ca64160026040518263ffffffff167c01000000000000000000000000000000000000000000000000000000000281526004018082815260200191505060206040518083038186803b15801561181857600080fd5b505afa15801561182c573d6000803e3d6000fd5b505050506040513d602081101561184257600080fd5b81019080805190602001909291905050509050600160009054906101000a900473ffffffffffffffffffffffffffffffffffffffff1673ffffffffffffffffffffffffffffffffffffffff16639a12886c8286866040518463ffffffff167c01000000000000000000000000000000000000000000000000000000000281526004018084815260200183600260200280838360005b838110156118f25780820151818401526020810190506118d7565b5050505090500182600260200280838360005b83811015611920578082015181840152602081019050611905565b50505050905001935050505060206040518083038186803b15801561194457600080fd5b505afa158015611958573d6000803e3d6000fd5b505050506040513d602081101561196e57600080fd5b81019080805190602001909291905050506003541415156119f7576040517f08c379a000000000000000000000000000000000000000000000000000000000815260040180806020018281038252601e8152602001807f7370656369666965642073756274726565206973206e6f7420656d707479000081525060200191505060405180910390fd5b600160009054906101000a900473ffffffffffffffffffffffffffffffffffffffff1673ffffffffffffffffffffffffffffffffffffffff16639a12886c60056000815481101515611a4557fe5b906000526020600020015486866040518463ffffffff167c01000000000000000000000000000000000000000000000000000000000281526004018084815260200183600260200280838360005b83811015611aae578082015181840152602081019050611a93565b5050505090500182600260200280838360005b83811015611adc578082015181840152602081019050611ac1565b50505050905001935050505060206040518083038186803b158015611b0057600080fd5b505afa158015611b14573d6000803e3d6000fd5b505050506040513d6020811015611b2a57600080fd5b8101908080519060200190929190505050600381905550611b4b6000612af1565b5060075460020a6006540360068190555060035491505092915050565b6000809054906101000a900473ffffffffffffffffffffffffffffffffffffffff1681565b600160009054906101000a900473ffffffffffffffffffffffffffffffffffffffff1681565b600460009054906101000a900473ffffffffffffffffffffffffffffffffffffffff1673ffffffffffffffffffffffffffffffffffffffff163373ffffffffffffffffffffffffffffffffffffffff16141515611c0c57fe5b600260009054906101000a900473ffffffffffffffffffffffffffffffffffffffff1673ffffffffffffffffffffffffffffffffffffffff166380b2edd8826040518263ffffffff167c0100000000000000000000000000000000000000000000000000000000028152600401808273ffffffffffffffffffffffffffffffffffffffff1673ffffffffffffffffffffffffffffffffffffffff168152602001915050600060405180830381600087803b158015611cc957600080fd5b505af1158015611cdd573d6000803e3d6000fd5b505050507f5dbaa701a7acef513f72a61799f7e50f4653f462b9f780d88d1b9bec89de2168600260009054906101000a900473ffffffffffffffffffffffffffffffffffffffff1673ffffffffffffffffffffffffffffffffffffffff16638e499bcf6040518163ffffffff167c010000000000000000000000000000000000000000000000000000000002815260040160206040518083038186803b158015611d8657600080fd5b505afa158015611d9a573d6000803e3d6000fd5b505050506040513d6020811015611db057600080fd5b810190808051906020019092919050505082604051808381526020018273ffffffffffffffffffffffffffffffffffffffff1673ffffffffffffffffffffffffffffffffffffffff1681526020019250505060405180910390a150565b600260009054906101000a900473ffffffffffffffffffffffffffffffffffffffff1681565b600581815481101515611e4257fe5b906000526020600020016000915090505481565b600b6020528060005260406000206000915090505481565b600c6020528060005260406000206000915090505481565b6000611e90613f72565b6040805190810160405280876000600281101515611eaa57fe5b60200201518152602001876001600281101515611ec357fe5b6020020151815250816000018190525060408051908101604052806040805190810160405280886000600281101515611ef857fe5b60200201516000600281101515611f0b57fe5b60200201518152602001886000600281101515611f2457fe5b60200201516001600281101515611f3757fe5b602002015181525081526020016040805190810160405280886001600281101515611f5e57fe5b60200201516000600281101515611f7157fe5b60200201518152602001886001600281101515611f8a57fe5b60200201516001600281101515611f9d57fe5b602002015181525081525081602001819052506040805190810160405280856000600281101515611fca57fe5b60200201518152602001856001600281101515611fe357fe5b60200201518152508160400181905250606060036040519080825280602002602001820160405280156120255781602001602082028038833980820191505090505b50905060008090505b600381101561207357848160038110151561204557fe5b6020020151828281518110151561205857fe5b9060200190602002018181525050808060010191505061202e565b5060006120808284612c60565b141561209157600192505050612098565b6000925050505b949350505050565b60095481565b600a5481565b600460009054906101000a900473ffffffffffffffffffffffffffffffffffffffff1673ffffffffffffffffffffffffffffffffffffffff163373ffffffffffffffffffffffffffffffffffffffff1614151561210557fe5b80600260038110151561211457fe5b60200201516003541415156121b7576040517f08c379a00000000000000000000000000000000000000000000000000000000081526004018080602001828103825260218152602001807f696e70757420646f6573206e6f74206d617463682063757272656e7420726f6f81526020017f740000000000000000000000000000000000000000000000000000000000000081525060400191505060405180910390fd5b6121c384848484611e86565b1515612237576040517f08c379a00000000000000000000000000000000000000000000000000000000081526004018080602001828103825260168152602001807f534e41524b2070726f6f6620697320696e76616c69640000000000000000000081525060200191505060405180910390fd5b80600060038110151561224657fe5b6020020151600381905550600860008154809291906001019190505550600854600c600083600160038110151561227957fe5b60200201518152602001908152602001600020819055507fbe4212065768908e69f6c63172b1d155abe731f87bfc61b83a5c3b93f12c853f8160006003811015156122c057fe5b60200201518260016003811015156122d457fe5b60200201518360026003811015156122e857fe5b602002015160405180848152602001838152602001828152602001935050505060405180910390a150505050565b60035481565b60008211801561232c5750600181115b8061234357506000341180156123425750600181145b5b8061239b5750600460009054906101000a900473ffffffffffffffffffffffffffffffffffffffff1673ffffffffffffffffffffffffffffffffffffffff163373ffffffffffffffffffffffffffffffffffffffff16145b151561240f576040517f08c379a000000000000000000000000000000000000000000000000000000000815260040180806020018281038252601f8152602001807f4465706f736974206d7573742062652067726561746572207468616e20302e0081525060200191505060405180910390fd5b600081148061241e5750600181145b8061251f5750600073ffffffffffffffffffffffffffffffffffffffff16600260009054906101000a900473ffffffffffffffffffffffffffffffffffffffff1673ffffffffffffffffffffffffffffffffffffffff16639a0ba2ea836040518263ffffffff167c01000000000000000000000000000000000000000000000000000000000281526004018082815260200191505060206040518083038186803b1580156124cb57600080fd5b505afa1580156124df573d6000803e3d6000fd5b505050506040513d60208110156124f557600080fd5b810190808051906020019092919050505073ffffffffffffffffffffffffffffffffffffffff1614155b1515612593576040517f08c379a000000000000000000000000000000000000000000000000000000000815260040180806020018281038252601c8152602001807f746f6b656e54797065206973206e6f7420726567697374657265642e0000000081525060200191505060405180910390fd5b6000600160009054906101000a900473ffffffffffffffffffffffffffffffffffffffff1673ffffffffffffffffffffffffffffffffffffffff16638250573560a0604051908101604052808760006002811015156125ee57fe5b6020020151815260200187600160028110151561260757fe5b6020020151815260200186815260200160008152602001858152506040518263ffffffff167c01000000000000000000000000000000000000000000000000000000000281526004018082600560200280838360005b8381101561267857808201518184015260208101905061265d565b5050505090500191505060206040518083038186803b15801561269a57600080fd5b505afa1580156126ae573d6000803e3d6000fd5b505050506040513d60208110156126c457600080fd5b8101908080519060200190929190505050905060058190806001815401808255809150509060018203906000526020600020016000909192909190915055507f595b7e310cd1b7e94b72db62a3257c5fa242cbca10740eb40ae49044f5dcff1f8484846040518084600260200280838360005b83811015612752578082015181840152602081019050612737565b50505050905001838152602001828152602001935050505060405180910390a16006600081548092919060010191905055506000809050600060065490505b600060028281151561279f57fe5b06141561294157600160009054906101000a900473ffffffffffffffffffffffffffffffffffffffff1673ffffffffffffffffffffffffffffffffffffffff166373e107376040805190810160405280600560026005805490500381548110151561280657fe5b90600052602060002001548152602001600560016005805490500381548110151561282d57fe5b90600052602060002001548152506040518263ffffffff167c01000000000000000000000000000000000000000000000000000000000281526004018082600260200280838360005b83811015612891578082015181840152602081019050612876565b5050505090500191505060206040518083038186803b1580156128b357600080fd5b505afa1580156128c7573d6000803e3d6000fd5b505050506040513d60208110156128dd57600080fd5b8101908080519060200190929190505050600560026005805490500381548110151561290557fe5b9060005260206000200181905550612924600160058054905003612af1565b5060028181151561293157fe5b0490508180600101925050612791565b60075482111561295357816007819055505b505050505050565b6000612965613fa7565b61296d612df6565b905080608001515160018551011415156129ef576040517f08c379a00000000000000000000000000000000000000000000000000000000081526004018080602001828103825260128152602001807f76657269666965722d6261642d696e707574000000000000000000000000000081525060200191505060405180910390fd5b6129f7613ff0565b6040805190810160405280600081526020016000815250905060008090505b8551811015612a7657612a6782612a62856080015160018501815181101515612a3b57fe5b906020019060200201518985815181101515612a5357fe5b906020019060200201516132c4565b6133c7565b91508080600101915050612a16565b50612a9d8183608001516000815181101515612a8e57fe5b906020019060200201516133c7565b9050612ad3612aaf85600001516134eb565b8560200151846000015185602001518587604001518a604001518960600151613587565b1515612ae457600192505050612aeb565b6000925050505b92915050565b606060058054905082101515612b6f576040517f08c379a00000000000000000000000000000000000000000000000000000000081526004018080602001828103825260168152602001807f696e646578206973206f7574206f6620626f756e64730000000000000000000081525060200191505060405180910390fd5b60008290505b600160058054905003811015612bcc57600560018201815481101515612b9757fe5b9060005260206000200154600582815481101515612bb157fe5b90600052602060002001819055508080600101915050612b75565b506005600160058054905003815481101515612be457fe5b90600052602060002001600090556005805480919060019003612c07919061400a565b506005805480602002602001604051908101604052809291908181526020018280548015612c5457602002820191906000526020600020905b815481526020019060010190808311612c40575b50505050509050919050565b6000612c6a614036565b612c7261370b565b90508060800151516001855101141515612cf4576040517f08c379a00000000000000000000000000000000000000000000000000000000081526004018080602001828103825260128152602001807f76657269666965722d6261642d696e707574000000000000000000000000000081525060200191505060405180910390fd5b612cfc613ff0565b6040805190810160405280600081526020016000815250905060008090505b8551811015612d7b57612d6c82612d67856080015160018501815181101515612d4057fe5b906020019060200201518985815181101515612d5857fe5b906020019060200201516132c4565b6133c7565b91508080600101915050612d1b565b50612da28183608001516000815181101515612d9357fe5b906020019060200201516133c7565b9050612dd8612db485600001516134eb565b8560200151846000015185602001518587604001518a604001518960600151613587565b1515612de957600192505050612df0565b6000925050505b92915050565b612dfe613fa7565b60408051908101604052807f0f4e2a80831358f59fe25973a20fc025f0440da813c252d461416fe2c053d19b81526020017f0a9ed884827f6ee85db87bfff877cfebe1b3a1cde80138ef4ae02823639f1d6d8152508160000181905250604080519081016040528060408051908101604052807f182c5bfada417d9d3ea90c47ca25fc3c1e36a1a34e30790df7934c4b6df6ec8981526020017f27b36d848276c6f456818e3f206772febb6ed453d328924fbe04feb8777ac528815250815260200160408051908101604052807f26d7490c23c6edc6a9eccd6476208ebb762ae8eccfb8dcdc3138914eef44244b81526020017f19b24f495c4da58e7669249c4b20b3dad00f07b4ce0522da3e77d611a58202578152508152508160200181905250604080519081016040528060408051908101604052807f051e2386568775afdc6d09da26887ede5053dbd0433e5de98c1e51a11a1676dc81526020017f1fbc374ae8b7220ef3a56cd442bdf262b1ccfe90113998f7c8b5f142f9d73cab815250815260200160408051908101604052807ef5a374bd8e13317d80af74f90db315ff279457c7b1e8207a86108b1b93e31481526020017f09cf3f2e3aa379cff0a708d3627345fc2aa0f0edd933a3d6bf48db87637c82d68152508152508160400181905250604080519081016040528060408051908101604052807f0c78ddfafe12f5215fdbf22f37aed2d3dd6334626244ad55c6b132bc721accf381526020017f2a4a01377a1614be4db9fed8260fe5ce35d56d8e71c20d0112fc8acfa124d4b4815250815260200160408051908101604052807f1a468bf509164c7b2129dc4290234b95e46765f4cbe93c1b43feafd7b5b10dc881526020017f1e7ec150a235e5126beea381c3bffe4d23b8c03f31f6d42ec8835c4ad817f7cb815250815250816060018190525060046040519080825280602002602001820160405280156130e457816020015b6130d161407f565b8152602001906001900390816130c95790505b50816080018190525060408051908101604052807f284f75407c5a95d3c575e2b06ddb6cf3b5ccef3cbcad8aec1d04612ce2c5ed4481526020017f10514647ef7afe31bd9d47851ce0c8256ba679eed9acc23707d98ac9c94f0f998152508160800151600081518110151561315557fe5b9060200190602002018190525060408051908101604052807f041b8c180433e2d7c476bd0967827f18da208be7ab15352d9b5b2dbca8f8ae8a81526020017f1e8922f68d2a09a8fcb9feb8f27217203ca40b31d32a946ed33772b71687097d815250816080015160018151811015156131ca57fe5b9060200190602002018190525060408051908101604052807f093c8d884113ed07736a1dff6c7197df08febeff7b7abe1a64f564515fbbbced81526020017f020824baf8143fe6621fe78b3fd58b2fac65e9fb7f005ef6d905a6d45e79a5538152508160800151600281518110151561323f57fe5b9060200190602002018190525060408051908101604052807f191cc269ba636687c62c15257c72baff07519f5eb59ed2748a9e7444223a6d2981526020017f13d78660111881720eaec6ca8b0532a0619a1cdc6400d2adad4857dbd0365f6c815250816080015160038151811015156132b457fe5b9060200190602002018190525090565b6132cc613ff0565b6132d4614099565b83600001518160006003811015156132e857fe5b602002018181525050836020015181600160038110151561330557fe5b6020020181815250508281600260038110151561331e57fe5b602002018181525050600060608360808460076107d05a03fa9050806000811461334757613349565bfe5b508015156133bf576040517f08c379a00000000000000000000000000000000000000000000000000000000081526004018080602001828103825260128152602001807f70616972696e672d6d756c2d6661696c6564000000000000000000000000000081525060200191505060405180910390fd5b505092915050565b6133cf613ff0565b6133d76140bc565b83600001518160006004811015156133eb57fe5b602002018181525050836020015181600160048110151561340857fe5b602002018181525050826000015181600260048110151561342557fe5b602002018181525050826020015181600360048110151561344257fe5b602002018181525050600060608360c08460066107d05a03fa9050806000811461346b5761346d565bfe5b508015156134e3576040517f08c379a00000000000000000000000000000000000000000000000000000000081526004018080602001828103825260128152602001807f70616972696e672d6164642d6661696c6564000000000000000000000000000081525060200191505060405180910390fd5b505092915050565b6134f3613ff0565b60007f30644e72e131a029b85045b68181585d97816a916871ca8d3c208c16d87cfd47905060008360000151148015613530575060008360200151145b15613554576040805190810160405280600081526020016000815250915050613582565b60408051908101604052808460000151815260200182856020015181151561357857fe5b0683038152509150505b919050565b6000606060046040519080825280602002602001820160405280156135c657816020015b6135b361407f565b8152602001906001900390816135ab5790505b5090506060600460405190808252806020026020018201604052801561360657816020015b6135f36140df565b8152602001906001900390816135eb5790505b5090508a82600081518110151561361957fe5b906020019060200201819052508882600181518110151561363657fe5b906020019060200201819052508682600281518110151561365357fe5b906020019060200201819052508482600381518110151561367057fe5b906020019060200201819052508981600081518110151561368d57fe5b90602001906020020181905250878160018151811015156136aa57fe5b90602001906020020181905250858160028151811015156136c757fe5b90602001906020020181905250838160038151811015156136e457fe5b906020019060200201819052506136fb8282613bda565b9250505098975050505050505050565b613713614036565b60408051908101604052807f1180f2a64985d0035aec188f48d7b48ff3b916781ea0f9cf1020958dbafd140a81526020017f0af2833680e2e442c7930a3ebfbb358634dd7494bf15ece7335e46087c4f80bb8152508160000181905250604080519081016040528060408051908101604052807f139f21b5d030fa5858b651ad99736fa6f0ec20eb2cfbcf7583efd38dd83c5c1e81526020017f1bf6ce013790fe83682a15c7b930dd9e1a837116ed23071e97997ac202e4a036815250815260200160408051908101604052807f17f93eb3b07ffc372b968b3ac0d5f8c2f34d42d0952c8c3e07a3225558909f0781526020017f1cb9b60f30edcd81c08482849a32ce15e72c5c7fb2d55cd1b112056ec4a9677a8152508152508160200181905250604080519081016040528060408051908101604052807f0c1a98f9ca0817e3dd441f25166169cbeb32a50efeccf7ca462e184634056c0981526020017f16a7e84b99087133e28742f014d7c6b60bde436048c0b65862a74a01ed25f7c0815250815260200160408051908101604052807f25eb6bb1610954f9d89376ebcc1efbe6dd5349a523feb5de72fd35673b2cc09581526020017f019d6f1ea7d013662d033b9155221f98faa8cf0db3b7d1231783601fcc6efe018152508152508160400181905250604080519081016040528060408051908101604052807f1a9a2e6d5328a829c7577d9fc81aebbd6eb2e9bfc837c7d9b79873a03c2179ce81526020017f2e6cd312fe248f3ea3f6148061369c3bd92efc1dff6f960736ed33111ee5d800815250815260200160408051908101604052807f023cecde2009689e52e807e34b5050118d2d3b92eabf24cee16fc9b737d7888c81526020017f1968091ebef2de35912189e3e6293a80118b570d28f100472d4100d11e4e41f8815250815250816060018190525060046040519080825280602002602001820160405280156139fa57816020015b6139e761407f565b8152602001906001900390816139df5790505b50816080018190525060408051908101604052807f29b317b0d4cdcb973043f05582d3f4b17390af99f872a1bfbc67a55e5e80101c81526020017f17d85d949b80d8a08040823c0eb3059579dea250409529b1a6d4ddcca6b711f281525081608001516000815181101515613a6b57fe5b9060200190602002018190525060408051908101604052807f02edfe3de2a21de11de89cab44eb8e73e35ceac1c836f6ba9127a8e51a32181f81526020017f219b443b1e8b2c8f6d4f88677c5b17580cf6fe34e3b9982a72eb7ead12c7c0e781525081608001516001815181101515613ae057fe5b9060200190602002018190525060408051908101604052807f21d4b5428517e4a4c6ec1f9b0e34d3464146db6ec7fdc94dd5ac4c732ee397cb81526020017f101c0caea2455e3cd0c8a30f2e8a2ec973dcf769b363c55a87793da3fdd5c3bf81525081608001516002815181101515613b5557fe5b9060200190602002018190525060408051908101604052807f07e05ab4c1016e9257836f65e5eb83650e19c5b834231485c4fd1a7fd15da2df81526020017f0f18a650af3b8c2ed12ec9ee5ffe63bb975341cea06ad7a11f57ee1bbaaed3a681525081608001516003815181101515613bca57fe5b9060200190602002018190525090565b600081518351141515613c55576040517f08c379a00000000000000000000000000000000000000000000000000000000081526004018080602001828103825260168152602001807f70616972696e672d6c656e677468732d6661696c65640000000000000000000081525060200191505060405180910390fd5b6000835190506000600682029050606081604051908082528060200260200182016040528015613c945781602001602082028038833980820191505090505b50905060008090505b83811015613e72578681815181101515613cb357fe5b90602001906020020151600001518260006006840201815181101515613cd557fe5b90602001906020020181815250508681815181101515613cf157fe5b90602001906020020151602001518260016006840201815181101515613d1357fe5b90602001906020020181815250508581815181101515613d2f57fe5b90602001906020020151600001516000600281101515613d4b57fe5b60200201518260026006840201815181101515613d6457fe5b90602001906020020181815250508581815181101515613d8057fe5b90602001906020020151600001516001600281101515613d9c57fe5b60200201518260036006840201815181101515613db557fe5b90602001906020020181815250508581815181101515613dd157fe5b90602001906020020151602001516000600281101515613ded57fe5b60200201518260046006840201815181101515613e0657fe5b90602001906020020181815250508581815181101515613e2257fe5b90602001906020020151602001516001600281101515613e3e57fe5b60200201518260056006840201815181101515613e5757fe5b90602001906020020181815250508080600101915050613c9d565b50613e7b614106565b6000602082602086026020860160086107d05a03fa90508060008114613ea057613ea2565bfe5b50801515613f18576040517f08c379a00000000000000000000000000000000000000000000000000000000081526004018080602001828103825260158152602001807f70616972696e672d6f70636f64652d6661696c6564000000000000000000000081525060200191505060405180910390fd5b6000826000600181101515613f2957fe5b602002015114159550505050505092915050565b61010060405190810160405280613f5261407f565b8152602001613f5f6140df565b8152602001613f6c61407f565b81525090565b61010060405190810160405280613f8761407f565b8152602001613f946140df565b8152602001613fa161407f565b81525090565b6101e060405190810160405280613fbc61407f565b8152602001613fc96140df565b8152602001613fd66140df565b8152602001613fe36140df565b8152602001606081525090565b604080519081016040528060008152602001600081525090565b815481835581811115614031578183600052602060002091820191016140309190614129565b5b505050565b6101e06040519081016040528061404b61407f565b81526020016140586140df565b81526020016140656140df565b81526020016140726140df565b8152602001606081525090565b604080519081016040528060008152602001600081525090565b606060405190810160405280600390602082028038833980820191505090505090565b608060405190810160405280600490602082028038833980820191505090505090565b6080604051908101604052806140f361414e565b815260200161410061414e565b81525090565b602060405190810160405280600190602082028038833980820191505090505090565b61414b91905b8082111561414757600081600090555060010161412f565b5090565b90565b604080519081016040528060029060208202803883398082019150509050509056fea165627a7a72305820d3c68d014971b1ef27eb2556a29b9a3ccbce5b616ed460098e8ca346620c6b900029",
  "source": "pragma solidity ^0.5.0;\n\nimport \"../build/Update_verifier.sol\";\nimport \"../build/Withdraw_verifier.sol\";\n\ncontract IMiMC {\n    function MiMCpe7(uint256,uint256) public pure returns(uint256) {}\n}\n\ncontract IMiMCMerkle {\n\n    uint[16] public zeroCache;\n    function getRootFromProof2(\n        uint256,\n        uint256[2] memory,\n        uint256[2] memory\n    ) public view returns(uint) {}\n    function hashBalance(uint[5] memory) public view returns(uint){}\n    function hashTx(uint[8] memory) public view returns(uint) {}\n    function hashPair(uint[2] memory) public view returns(uint){}\n    function hashHeight2Tree(uint[4] memory) public view returns(uint){}\n}\n\ncontract ITokenRegistry {\n    address public coordinator;\n    uint256 public numTokens;\n    mapping(address => bool) public pendingTokens;\n    mapping(uint256 => address) public registeredTokens;\n    modifier onlyCoordinator(){\n        assert (msg.sender == coordinator);\n        _;\n    }\n    function registerToken(address tokenContract) public {}\n    function approveToken(address tokenContract) public onlyCoordinator{}\n}\n\ncontract RollupNC is Update_verifier, Withdraw_verifier{\n\n    IMiMC public mimc;\n    IMiMCMerkle public mimcMerkle;\n    ITokenRegistry public tokenRegistry;\n\n    uint256 public currentRoot;\n    address public coordinator;\n    uint256[] public pendingDeposits;\n    uint public queueNumber;\n    uint public depositSubtreeHeight;\n    uint256 public updateNumber;\n\n    uint256 public BAL_DEPTH = 4;\n    uint256 public TX_DEPTH = 2;\n\n    // (queueNumber => [pubkey_x, pubkey_y, balance, nonce, token_type])\n    mapping(uint256 => uint256) public deposits; //leaf idx => leafHash\n    mapping(uint256 => uint256) public updates; //txRoot => update idx\n\n    event RegisteredToken(uint tokenType, address tokenContract);\n    event RequestDeposit(uint[2] pubkey, uint amount, uint tokenType);\n    event UpdatedState(uint currentRoot, uint oldRoot, uint txRoot);\n    event Withdraw(uint[3] accountInfo, address recipient, uint txRoot, uint[3] txInfo);\n\n    constructor(\n        address _mimcContractAddr,\n        address _mimcMerkleContractAddr,\n        address _tokenRegistryAddr\n    ) public {\n        mimc = IMiMC(_mimcContractAddr);\n        mimcMerkle = IMiMCMerkle(_mimcMerkleContractAddr);\n        tokenRegistry = ITokenRegistry(_tokenRegistryAddr);\n        currentRoot = mimcMerkle.zeroCache(BAL_DEPTH);\n        coordinator = msg.sender;\n        queueNumber = 0;\n        depositSubtreeHeight = 0;\n        updateNumber = 0;\n    }\n\n    modifier onlyCoordinator(){\n        assert(msg.sender == coordinator);\n        _;\n    }\n\n    function updateState(\n            uint[2] memory a,\n            uint[2][2] memory b,\n            uint[2] memory c,\n            uint[3] memory input\n        ) public onlyCoordinator {\n        require(currentRoot == input[2], \"input does not match current root\");\n        //validate proof\n        require(update_verifyProof(a,b,c,input),\n        \"SNARK proof is invalid\");\n        // update merkle root\n        currentRoot = input[0];\n        updateNumber++;\n        updates[input[1]] = updateNumber;\n        emit UpdatedState(input[0], input[1], input[2]); //newRoot, txRoot, oldRoot\n    }\n\n    // user tries to deposit ERC20 tokens\n    function deposit(\n        uint[2] memory pubkey,\n        uint amount,\n        uint tokenType\n    ) public payable {\n        require(\n            (amount > 0 && tokenType > 1) ||\n            (msg.value > 0 && tokenType == 1) ||\n            msg.sender == coordinator,\n            \"Deposit must be greater than 0.\"\n        );\n        require(\n            tokenType == 0 ||\n            tokenType == 1 ||\n            tokenRegistry.registeredTokens(tokenType) != address(0),\n        \"tokenType is not registered.\");\n        uint depositHash = mimcMerkle.hashBalance(\n            [pubkey[0], pubkey[1], amount, 0, tokenType]\n        );\n        pendingDeposits.push(depositHash);\n        emit RequestDeposit(pubkey, amount, tokenType);\n        queueNumber++;\n        uint tmpDepositSubtreeHeight = 0;\n        uint tmp = queueNumber;\n        while(tmp % 2 == 0){\n            pendingDeposits[pendingDeposits.length - 2] = mimcMerkle.hashPair(\n                [pendingDeposits[pendingDeposits.length - 2],\n                pendingDeposits[pendingDeposits.length - 1]]);\n            removeDeposit(pendingDeposits.length - 1);\n            tmp = tmp / 2;\n            tmpDepositSubtreeHeight++;\n        }\n        if (tmpDepositSubtreeHeight > depositSubtreeHeight){\n            depositSubtreeHeight = tmpDepositSubtreeHeight;\n        }\n    }\n\n\n\n    // coordinator adds certain number of deposits to balance tree\n    // coordinator must specify subtree index in the tree since the deposits\n    // are being inserted at a nonzero height\n    function processDeposits(\n        uint[2] memory subtreePosition,\n        uint[2] memory subtreeProof\n    ) public onlyCoordinator returns(uint256){\n        uint emptySubtreeRoot = mimcMerkle.zeroCache(2); //empty subtree of height 2\n        require(currentRoot == mimcMerkle.getRootFromProof2(\n            emptySubtreeRoot, subtreePosition, subtreeProof),\n            \"specified subtree is not empty\");\n        currentRoot = mimcMerkle.getRootFromProof2(\n            pendingDeposits[0], subtreePosition, subtreeProof);\n        removeDeposit(0);\n        queueNumber = queueNumber - 2**depositSubtreeHeight;\n        return currentRoot;\n    }\n\n    function withdraw(\n        uint[3] memory accountInfo, //[pubkeyX, pubkeyY, index]\n        uint[3] memory txInfo, //[nonce, amount, token_type_from]\n        uint[2][2] memory positionAndProof, //[[position], [proof]]\n        uint txRoot,\n        address recipient,\n        uint[2] memory a,\n        uint[2][2] memory b,\n        uint[2] memory c\n    ) public{\n        require(updates[txRoot] > 0, \"txRoot must exist\");\n        uint txLeaf = mimcMerkle.hashTx([\n            accountInfo[0], accountInfo[1], accountInfo[2],\n            0, 0, //withdraw to zero address\n            txInfo[0], txInfo[1], txInfo[2]\n        ]);\n        require(txRoot == mimcMerkle.getRootFromProof2(\n            txLeaf, positionAndProof[0], positionAndProof[1]),\n            \"transaction does not exist in specified transactions root\"\n        );\n\n        // message is hash of nonce and recipient address\n        uint m = mimcMerkle.hashPair([txInfo[0], uint(recipient)]);\n        require(withdraw_verifyProof(\n            a, b, c, [accountInfo[0], accountInfo[1], m]),\n            \"eddsa signature is not valid\");\n\n        emit Withdraw(accountInfo, recipient, txRoot, txInfo);\n    }\n\n    //call methods on TokenRegistry contract\n\n    function registerToken(\n        address tokenContract\n    ) public {\n        tokenRegistry.registerToken(tokenContract);\n    }\n\n    function approveToken(\n        address tokenContract\n    ) public onlyCoordinator {\n        tokenRegistry.approveToken(tokenContract);\n        emit RegisteredToken(tokenRegistry.numTokens(),tokenContract);\n    }\n\n    // helper functions\n    function removeDeposit(uint index) internal returns(uint[] memory) {\n        require(index < pendingDeposits.length, \"index is out of bounds\");\n\n        for (uint i = index; i<pendingDeposits.length-1; i++){\n            pendingDeposits[i] = pendingDeposits[i+1];\n        }\n        delete pendingDeposits[pendingDeposits.length-1];\n        pendingDeposits.length--;\n        return pendingDeposits;\n    }\n}\n",
  "sourcePath": "/home/moss/rollupnc/contracts/RollupNC.sol",
  "compiler": {
    "name": "solc",
    "version": "0.5.0+commit.1d4f565a.Emscripten.clang"
  },
  "schemaVersion": "3.0.6",
  "updatedAt": "2019-07-04T13:50:16.136Z",
  "devdoc": {
    "methods": {}
  },
  "userdoc": {
    "methods": {}
  }
}