{
  "contractName": "TransferVerifier",
  "abi": [
    {
      "constant": true,
      "inputs": [
        {
          "name": "a",
          "type": "uint256[2]"
        },
        {
          "name": "b",
          "type": "uint256[2][2]"
        },
        {
          "name": "c",
          "type": "uint256[2]"
        },
        {
          "name": "input",
          "type": "uint256[2]"
        }
      ],
      "name": "verifyProof",
      "outputs": [
        {
          "name": "r",
          "type": "bool"
        }
      ],
      "payable": false,
      "stateMutability": "view",
      "type": "function",
      "signature": "0xf5c9d69e"
    }
  ],
  "bytecode": "0x608060405234801561001057600080fd5b50611103806100206000396000f3fe608060405260043610610041576000357c0100000000000000000000000000000000000000000000000000000000900463ffffffff168063f5c9d69e14610046575b600080fd5b34801561005257600080fd5b506101b2600480360361014081101561006a57600080fd5b8101908080604001906002806020026040519081016040528092919082600260200280828437600081840152601f19601f82011690508083019250505050505091929192908060800190600280602002604051908101604052809291906000905b8282101561011f578382604002016002806020026040519081016040528092919082600260200280828437600081840152601f19601f820116905080830192505050505050815260200190600101906100cb565b50505050919291929080604001906002806020026040519081016040528092919082600260200280828437600081840152601f19601f820116905080830192505050505050919291929080604001906002806020026040519081016040528092919082600260200280828437600081840152601f19601f82011690508083019250505050505091929192905050506101cc565b604051808215151515815260200191505060405180910390f35b60006101d6610f73565b60408051908101604052808760006002811015156101f057fe5b6020020151815260200187600160028110151561020957fe5b602002015181525081600001819052506040805190810160405280604080519081016040528088600060028110151561023e57fe5b6020020151600060028110151561025157fe5b6020020151815260200188600060028110151561026a57fe5b6020020151600160028110151561027d57fe5b6020020151815250815260200160408051908101604052808860016002811015156102a457fe5b602002015160006002811015156102b757fe5b602002015181526020018860016002811015156102d057fe5b602002015160016002811015156102e357fe5b60200201518152508152508160200181905250604080519081016040528085600060028110151561031057fe5b6020020151815260200185600160028110151561032957fe5b602002015181525081604001819052506060600260405190808252806020026020018201604052801561036b5781602001602082028038833980820191505090505b50905060008090505b60028110156103b957848160028110151561038b57fe5b6020020151828281518110151561039e57fe5b90602001906020020181815250508080600101915050610374565b5060006103c682846103e6565b14156103d7576001925050506103de565b6000925050505b949350505050565b60006103f0610fa8565b6103f8610513565b9050806080015151600185510114151561041157600080fd5b610419610ff1565b6040805190810160405280600081526020016000815250905060008090505b8551811015610498576104898261048485608001516001850181518110151561045d57fe5b90602001906020020151898581518110151561047557fe5b9060200190602002015161096d565b610a07565b91508080600101915050610438565b506104bf81836080015160008151811015156104b057fe5b90602001906020020151610a07565b90506104f56104d18560000151610ac2565b8560200151846000015185602001518587604001518a604001518960600151610b5e565b15156105065760019250505061050d565b6000925050505b92915050565b61051b610fa8565b60408051908101604052807f23d563c42c1f88f21037fef57855c866dda3c8f75e89ec8a4fd90411e8e21fbe81526020017f24924311705fba7b067276bf1b6fbe60a55faf09697e584d65bdc6fd9c3983f18152508160000181905250604080519081016040528060408051908101604052807f047db9df9ce2855dae148ac10bce1a33dc9d01f8fefb4222e3f70af94acecb7f81526020017f18b765c5c49c241939b5d4edeb9ecd0a56ac4469d530f42e049ac8b06f9cd258815250815260200160408051908101604052807f149e9fb40263564ae2adf0b22c4447473f8e778db410fcd47f6914c134ddbad981526020017f0e792431822ae3986b47d16da6d1f48653a7bf5fbe4f21cdeb7c3d4200e8a7f18152508152508160200181905250604080519081016040528060408051908101604052807f0fdb8964b5e9a43f4e3526c6cd4a1d8f39be0592d2f90aba564d3319a1cd86a081526020017f272f693c729fa0abd8cfeee2e84aebb4626f5aeb988783e6cee987e72656b998815250815260200160408051908101604052807f189f3938bf5823c95a9dd9da228d04728016d128d8e72ecf4607cb8d52b4203f81526020017f193b4f34803ec24b733e611cce25180ce361eb5621435e86b26b95718c6865198152508152508160400181905250604080519081016040528060408051908101604052807f0b1cf58122523b41da6f21da98cde2f62d72a9bcf28054f656b2f96f0d8fde0c81526020017f12890c2079941947824e604e176008dd76d12b60fbc02af558d7ff31af74077c815250815260200160408051908101604052807f2ccbb18dfff55e1f35509f2fc392e82932c7a5797e88c903684dd894f278c32981526020017f1581971a450202729c6650262c22bc3f5f936c911c7ac350b2a22c7aff62b6b88152508152508160600181905250600360405190808252806020026020018201604052801561080257816020015b6107ef61100b565b8152602001906001900390816107e75790505b50816080018190525060408051908101604052807f2d9be60a6e2928cfe6f2e298511a24c7310518121f2f0d70b96244a34b3bf8d181526020017f25ee7b9e31de0863482955a900edbc264fb5f270d10286933725c699d1bca79d8152508160800151600081518110151561087357fe5b9060200190602002018190525060408051908101604052807f11d57889f55b3c01d7141fb75dc04c2a5841250f846a0aca5fd4c41cf08b933a81526020017f2080fb2c69bda142a565891799ec853c47e2e93d6a753fbe72a16b9d779ee698815250816080015160018151811015156108e857fe5b9060200190602002018190525060408051908101604052807f29b079d9061bc161271bac1d96d6c64bf6b26a3e983e70e1f092ae74518908c281526020017f2e31d0fc8ab1b272a86d0622a7cf082ebac01da816991e5b1452590a901734918152508160800151600281518110151561095d57fe5b9060200190602002018190525090565b610975610ff1565b61097d611025565b836000015181600060038110151561099157fe5b60200201818152505083602001518160016003811015156109ae57fe5b602002018181525050828160026003811015156109c757fe5b602002018181525050600060608360808460076107d05a03fa905080600081146109f0576109f2565bfe5b508015156109ff57600080fd5b505092915050565b610a0f610ff1565b610a17611048565b8360000151816000600481101515610a2b57fe5b6020020181815250508360200151816001600481101515610a4857fe5b6020020181815250508260000151816002600481101515610a6557fe5b6020020181815250508260200151816003600481101515610a8257fe5b602002018181525050600060608360c08460066107d05a03fa90508060008114610aab57610aad565bfe5b50801515610aba57600080fd5b505092915050565b610aca610ff1565b60007f30644e72e131a029b85045b68181585d97816a916871ca8d3c208c16d87cfd47905060008360000151148015610b07575060008360200151145b15610b2b576040805190810160405280600081526020016000815250915050610b59565b604080519081016040528084600001518152602001828560200151811515610b4f57fe5b0683038152509150505b919050565b600060606004604051908082528060200260200182016040528015610b9d57816020015b610b8a61100b565b815260200190600190039081610b825790505b50905060606004604051908082528060200260200182016040528015610bdd57816020015b610bca61106b565b815260200190600190039081610bc25790505b5090508a826000815181101515610bf057fe5b9060200190602002018190525088826001815181101515610c0d57fe5b9060200190602002018190525086826002815181101515610c2a57fe5b9060200190602002018190525084826003815181101515610c4757fe5b9060200190602002018190525089816000815181101515610c6457fe5b9060200190602002018190525087816001815181101515610c8157fe5b9060200190602002018190525085816002815181101515610c9e57fe5b9060200190602002018190525083816003815181101515610cbb57fe5b90602001906020020181905250610cd28282610ce2565b9250505098975050505050505050565b600081518351141515610cf457600080fd5b6000835190506000600682029050606081604051908082528060200260200182016040528015610d335781602001602082028038833980820191505090505b50905060008090505b83811015610f11578681815181101515610d5257fe5b90602001906020020151600001518260006006840201815181101515610d7457fe5b90602001906020020181815250508681815181101515610d9057fe5b90602001906020020151602001518260016006840201815181101515610db257fe5b90602001906020020181815250508581815181101515610dce57fe5b90602001906020020151600001516000600281101515610dea57fe5b60200201518260026006840201815181101515610e0357fe5b90602001906020020181815250508581815181101515610e1f57fe5b90602001906020020151600001516001600281101515610e3b57fe5b60200201518260036006840201815181101515610e5457fe5b90602001906020020181815250508581815181101515610e7057fe5b90602001906020020151602001516000600281101515610e8c57fe5b60200201518260046006840201815181101515610ea557fe5b90602001906020020181815250508581815181101515610ec157fe5b90602001906020020151602001516001600281101515610edd57fe5b60200201518260056006840201815181101515610ef657fe5b90602001906020020181815250508080600101915050610d3c565b50610f1a611092565b6000602082602086026020860160086107d05a03fa90508060008114610f3f57610f41565bfe5b50801515610f4e57600080fd5b6000826000600181101515610f5f57fe5b602002015114159550505050505092915050565b61010060405190810160405280610f8861100b565b8152602001610f9561106b565b8152602001610fa261100b565b81525090565b6101e060405190810160405280610fbd61100b565b8152602001610fca61106b565b8152602001610fd761106b565b8152602001610fe461106b565b8152602001606081525090565b604080519081016040528060008152602001600081525090565b604080519081016040528060008152602001600081525090565b606060405190810160405280600390602082028038833980820191505090505090565b608060405190810160405280600490602082028038833980820191505090505090565b60806040519081016040528061107f6110b5565b815260200161108c6110b5565b81525090565b602060405190810160405280600190602082028038833980820191505090505090565b604080519081016040528060029060208202803883398082019150509050509056fea165627a7a72305820dba0c74275b327d7fbc83d1f3bebee142e6c7cbc8475618ae191dc3ade8c28140029",
  "source": "//\n// Copyright 2017 Christian Reitwiessner\n// Permission is hereby granted, free of charge, to any person obtaining a copy of this software and associated documentation files (the \"Software\"), to deal in the Software without restriction, including without limitation the rights to use, copy, modify, merge, publish, distribute, sublicense, and/or sell copies of the Software, and to permit persons to whom the Software is furnished to do so, subject to the following conditions:\n// The above copyright notice and this permission notice shall be included in all copies or substantial portions of the Software.\n// THE SOFTWARE IS PROVIDED \"AS IS\", WITHOUT WARRANTY OF ANY KIND, EXPRESS OR IMPLIED, INCLUDING BUT NOT LIMITED TO THE WARRANTIES OF MERCHANTABILITY, FITNESS FOR A PARTICULAR PURPOSE AND NONINFRINGEMENT. IN NO EVENT SHALL THE AUTHORS OR COPYRIGHT HOLDERS BE LIABLE FOR ANY CLAIM, DAMAGES OR OTHER LIABILITY, WHETHER IN AN ACTION OF CONTRACT, TORT OR OTHERWISE, ARISING FROM, OUT OF OR IN CONNECTION WITH THE SOFTWARE OR THE USE OR OTHER DEALINGS IN THE SOFTWARE.\npragma solidity >=0.4.17;\n\nimport './Pairing.sol';\n\ncontract TransferVerifier {\n    using Pairing for *;\n    struct VerifyingKey {\n        Pairing.G1Point alfa1;\n        Pairing.G2Point beta2;\n        Pairing.G2Point gamma2;\n        Pairing.G2Point delta2;\n        Pairing.G1Point[] IC;\n    }\n    struct Proof {\n        Pairing.G1Point A;\n        Pairing.G2Point B;\n        Pairing.G1Point C;\n    }\n    function verifyingKey() pure internal returns (VerifyingKey memory vk) {\n        vk.alfa1 = Pairing.G1Point(16207976686896712039374020720990179716099077106081478590328149945571115933630,16541685107613919465726078049354919289010589197522285031347176292813368820721);\n        vk.beta2 = Pairing.G2Point([2031390129094529442166910691121196933228081593988130810950843360552770521983,11179543787048798781777018039111062889869409681458123580348864570297438491224], [9326521038611341766164322328750460156829290610293964460954352477997744634585,6546418172618026538234143505251940195574641865787786847770582059977296881649]);\n        vk.gamma2 = Pairing.G2Point([7172580490337278383768586766331909516033898541162627895649844141426066949792,17723969219826454493442861600933222764288891522104383532570086132421685066136], [11136831978747843167641636198717031091681964521118700968141689332342109511743,11412611844787998404953776764319511284325426542091399694617169331515248108825]);\n        vk.delta2 = Pairing.G2Point([5026607461532254766763595072098485362949433111367830887775328540038402137612,8383773018851600062295400861416601678584160834188819338496153008057372379004], [20261660729225167883053858316108245870364051969016003224745880220211414090537,9727535963529359266114291404723785684280863659280386812223454055673811351224]);\n        vk.IC = new Pairing.G1Point[](3);\n        vk.IC[0] = Pairing.G1Point(20629527164148149636861016109741116664546711833543579710182310153948120217809,17156938178721981762798209655490046214645785257672120177037417776395136575389);\n        vk.IC[1] = Pairing.G1Point(8066488779626675847148934730699876845594016043040731741508608750349284250426,14701901114662655259173117515246060091428942520822080534166524820742559688344);\n        vk.IC[2] = Pairing.G1Point(18856632837574597649873665254543610224245528704643105196870831752892195080386,20894408912757283838165129132856112907523721989841121687350472982074186216593);\n\n    }\n    function verify(uint[] memory input, Proof memory proof) view internal returns (uint) {\n        VerifyingKey memory vk = verifyingKey();\n        require(input.length + 1 == vk.IC.length);\n        // Compute the linear combination vk_x\n        Pairing.G1Point memory vk_x = Pairing.G1Point(0, 0);\n        for (uint i = 0; i < input.length; i++)\n            vk_x = Pairing.addition(vk_x, Pairing.scalar_mul(vk.IC[i + 1], input[i]));\n        vk_x = Pairing.addition(vk_x, vk.IC[0]);\n        if (!Pairing.pairingProd4(\n            Pairing.negate(proof.A), proof.B,\n            vk.alfa1, vk.beta2,\n            vk_x, vk.gamma2,\n            proof.C, vk.delta2\n        )) return 1;\n        return 0;\n    }\n    function verifyProof(\n            uint[2] memory a,\n            uint[2][2] memory b,\n            uint[2] memory c,\n            uint[2] memory input\n        ) view public returns (bool r) {\n        Proof memory proof;\n        proof.A = Pairing.G1Point(a[0], a[1]);\n        proof.B = Pairing.G2Point([b[0][0], b[0][1]], [b[1][0], b[1][1]]);\n        proof.C = Pairing.G1Point(c[0], c[1]);\n        uint[] memory inputValues = new uint[](input.length);\n        for(uint i = 0; i < input.length; i++){\n            inputValues[i] = input[i];\n        }\n        if (verify(inputValues, proof) == 0) {\n            return true;\n        } else {\n            return false;\n        }\n    }\n}\n",
  "sourcePath": "/Users/fred/dev/original_roll_up/RollupNC/contracts/TransferVerifier.sol",
  "compiler": {
    "name": "solc",
    "version": "0.5.0+commit.1d4f565a.Emscripten.clang"
  },
  "schemaVersion": "3.0.6",
  "updatedAt": "2019-04-08T09:21:21.201Z",
  "devdoc": {
    "methods": {}
  },
  "userdoc": {
    "methods": {}
  }
}