{
  "contractName": "Update_verifier",
  "abi": [
    {
      "constant": true,
      "inputs": [
        {
          "name": "a",
          "type": "uint256[2]"
        },
        {
          "name": "b",
          "type": "uint256[2][2]"
        },
        {
          "name": "c",
          "type": "uint256[2]"
        },
        {
          "name": "input",
          "type": "uint256[3]"
        }
      ],
      "name": "update_verifyProof",
      "outputs": [
        {
          "name": "r",
          "type": "bool"
        }
      ],
      "payable": false,
      "stateMutability": "view",
      "type": "function"
    }
  ],
  "bytecode": "0x608060405234801561001057600080fd5b50611383806100206000396000f3fe608060405260043610610041576000357c0100000000000000000000000000000000000000000000000000000000900463ffffffff168063b67868e614610046575b600080fd5b34801561005257600080fd5b506101b2600480360361016081101561006a57600080fd5b8101908080604001906002806020026040519081016040528092919082600260200280828437600081840152601f19601f82011690508083019250505050505091929192908060800190600280602002604051908101604052809291906000905b8282101561011f578382604002016002806020026040519081016040528092919082600260200280828437600081840152601f19601f820116905080830192505050505050815260200190600101906100cb565b50505050919291929080604001906002806020026040519081016040528092919082600260200280828437600081840152601f19601f820116905080830192505050505050919291929080606001906003806020026040519081016040528092919082600360200280828437600081840152601f19601f82011690508083019250505050505091929192905050506101cc565b604051808215151515815260200191505060405180910390f35b60006101d66111f3565b60408051908101604052808760006002811015156101f057fe5b6020020151815260200187600160028110151561020957fe5b602002015181525081600001819052506040805190810160405280604080519081016040528088600060028110151561023e57fe5b6020020151600060028110151561025157fe5b6020020151815260200188600060028110151561026a57fe5b6020020151600160028110151561027d57fe5b6020020151815250815260200160408051908101604052808860016002811015156102a457fe5b602002015160006002811015156102b757fe5b602002015181526020018860016002811015156102d057fe5b602002015160016002811015156102e357fe5b60200201518152508152508160200181905250604080519081016040528085600060028110151561031057fe5b6020020151815260200185600160028110151561032957fe5b602002015181525081604001819052506060600360405190808252806020026020018201604052801561036b5781602001602082028038833980820191505090505b50905060008090505b60038110156103b957848160038110151561038b57fe5b6020020151828281518110151561039e57fe5b90602001906020020181815250508080600101915050610374565b5060006103c682846103e6565b14156103d7576001925050506103de565b6000925050505b949350505050565b60006103f0611228565b6103f861057c565b9050806080015151600185510114151561047a576040517f08c379a00000000000000000000000000000000000000000000000000000000081526004018080602001828103825260128152602001807f76657269666965722d6261642d696e707574000000000000000000000000000081525060200191505060405180910390fd5b610482611271565b6040805190810160405280600081526020016000815250905060008090505b8551811015610501576104f2826104ed8560800151600185018151811015156104c657fe5b9060200190602002015189858151811015156104de57fe5b90602001906020020151610a49565b610b4c565b915080806001019150506104a1565b50610528818360800151600081518110151561051957fe5b90602001906020020151610b4c565b905061055e61053a8560000151610c70565b8560200151846000015185602001518587604001518a604001518960600151610d0c565b151561056f57600192505050610576565b6000925050505b92915050565b610584611228565b60408051908101604052807e54814d29dce7d78e56a7fa2e347e5a59194c6e105468bce7bc7290a1b9958681526020017eaedc990cd5be725c87458a337da71758748f5573b4b02824fe5914418e3d5d8152508160000181905250604080519081016040528060408051908101604052807f15e761cdf2d3ecc539c229850158616f913af7d7bd43c36787dbbd6eefac0d3281526020017f125b17778b31e0497f12865aac3acbb158b4725fb57fca4d66751b3c87c63e4f815250815260200160408051908101604052807f0cf852a8bc9bac3320e7cde8d1ddc3da2fc4bc4ed218f73ae7e75397d15d23c481526020017f02f9126cb90467b03d20b9e30d9ba06ab83c1b45696d09de2b1987bc3fcdc64d8152508152508160200181905250604080519081016040528060408051908101604052807f03b8139b96e5b19b0adcb946f911de7d1d49b5c5a4274721faec4c402ec452e781526020017f25e048457b132568aeae833e0e36f765da57892eb92e019b142d9b67ddbd7b50815250815260200160408051908101604052807f2244ad215c5c1b2145b38c57cf3ab654af6f9968feb406c0d08a7f1f99e9c40e81526020017f21b1aae1a72d3abe1f29e93e941b928524dd382705b88749085d63abd62569f68152508152508160400181905250604080519081016040528060408051908101604052807f0f38e189f3b9c22e7906b946e6ea4ecc01843ffec4e4b29470c603df482516f281526020017f04ab2058d11fd5559d6688745be349a55568ec8a6ce0350030083fbc2096b2bf815250815260200160408051908101604052807f05f8950f3a391a4b3a8556f969d31ed7abfa8fff3fba5af2631555c93464fb9081526020017f0f0a0c3d95fd6865b0c19def1e281a36bfecf3bb3f9d1b3be68c0d53b1d78b738152508152508160600181905250600460405190808252806020026020018201604052801561086957816020015b61085661128b565b81526020019060019003908161084e5790505b50816080018190525060408051908101604052807f16cc22771c154cac3a2cfc5e572e0dfdfe42f59e3d388e633a31442d2391524581526020017f26413195581a109fc11da97214fbd0c358992288cf0c3e7189123ca9978eea0a815250816080015160008151811015156108da57fe5b9060200190602002018190525060408051908101604052807f0a727d88b26d2250806687ec5151c89f05dda5729fb60e9a817aa7d2bb902a4f81526020017f1a5b429e6164512b183bbf2e99bd074bdcbbb3abe6758f844b95943cf7b725718152508160800151600181518110151561094f57fe5b9060200190602002018190525060408051908101604052807f0e1e725a099150e9906f09188387f475ffd1ebb30e09c105f47b9caaf3c97da581526020017f0260501f451e3bc3c2698c610a598a84d1b734cc2f6de100126eb57a042e0f75815250816080015160028151811015156109c457fe5b9060200190602002018190525060408051908101604052807f1ca7809be04be7eb1d4223b1df08d19bf6b572f22f9ba57291dc0597a6b90b1881526020017f0f6d5a9e299f98bbf93c5975fc679705f33161908e0366434408092e059b99ba81525081608001516003815181101515610a3957fe5b9060200190602002018190525090565b610a51611271565b610a596112a5565b8360000151816000600381101515610a6d57fe5b6020020181815250508360200151816001600381101515610a8a57fe5b60200201818152505082816002600381101515610aa357fe5b602002018181525050600060608360808460076107d05a03fa90508060008114610acc57610ace565bfe5b50801515610b44576040517f08c379a00000000000000000000000000000000000000000000000000000000081526004018080602001828103825260128152602001807f70616972696e672d6d756c2d6661696c6564000000000000000000000000000081525060200191505060405180910390fd5b505092915050565b610b54611271565b610b5c6112c8565b8360000151816000600481101515610b7057fe5b6020020181815250508360200151816001600481101515610b8d57fe5b6020020181815250508260000151816002600481101515610baa57fe5b6020020181815250508260200151816003600481101515610bc757fe5b602002018181525050600060608360c08460066107d05a03fa90508060008114610bf057610bf2565bfe5b50801515610c68576040517f08c379a00000000000000000000000000000000000000000000000000000000081526004018080602001828103825260128152602001807f70616972696e672d6164642d6661696c6564000000000000000000000000000081525060200191505060405180910390fd5b505092915050565b610c78611271565b60007f30644e72e131a029b85045b68181585d97816a916871ca8d3c208c16d87cfd47905060008360000151148015610cb5575060008360200151145b15610cd9576040805190810160405280600081526020016000815250915050610d07565b604080519081016040528084600001518152602001828560200151811515610cfd57fe5b0683038152509150505b919050565b600060606004604051908082528060200260200182016040528015610d4b57816020015b610d3861128b565b815260200190600190039081610d305790505b50905060606004604051908082528060200260200182016040528015610d8b57816020015b610d786112eb565b815260200190600190039081610d705790505b5090508a826000815181101515610d9e57fe5b9060200190602002018190525088826001815181101515610dbb57fe5b9060200190602002018190525086826002815181101515610dd857fe5b9060200190602002018190525084826003815181101515610df557fe5b9060200190602002018190525089816000815181101515610e1257fe5b9060200190602002018190525087816001815181101515610e2f57fe5b9060200190602002018190525085816002815181101515610e4c57fe5b9060200190602002018190525083816003815181101515610e6957fe5b90602001906020020181905250610e808282610e90565b9250505098975050505050505050565b600081518351141515610f0b576040517f08c379a00000000000000000000000000000000000000000000000000000000081526004018080602001828103825260168152602001807f70616972696e672d6c656e677468732d6661696c65640000000000000000000081525060200191505060405180910390fd5b6000835190506000600682029050606081604051908082528060200260200182016040528015610f4a5781602001602082028038833980820191505090505b50905060008090505b83811015611128578681815181101515610f6957fe5b90602001906020020151600001518260006006840201815181101515610f8b57fe5b90602001906020020181815250508681815181101515610fa757fe5b90602001906020020151602001518260016006840201815181101515610fc957fe5b90602001906020020181815250508581815181101515610fe557fe5b9060200190602002015160000151600060028110151561100157fe5b6020020151826002600684020181518110151561101a57fe5b9060200190602002018181525050858181518110151561103657fe5b9060200190602002015160000151600160028110151561105257fe5b6020020151826003600684020181518110151561106b57fe5b9060200190602002018181525050858181518110151561108757fe5b906020019060200201516020015160006002811015156110a357fe5b602002015182600460068402018151811015156110bc57fe5b906020019060200201818152505085818151811015156110d857fe5b906020019060200201516020015160016002811015156110f457fe5b6020020151826005600684020181518110151561110d57fe5b90602001906020020181815250508080600101915050610f53565b50611131611312565b6000602082602086026020860160086107d05a03fa9050806000811461115657611158565bfe5b508015156111ce576040517f08c379a00000000000000000000000000000000000000000000000000000000081526004018080602001828103825260158152602001807f70616972696e672d6f70636f64652d6661696c6564000000000000000000000081525060200191505060405180910390fd5b60008260006001811015156111df57fe5b602002015114159550505050505092915050565b6101006040519081016040528061120861128b565b81526020016112156112eb565b815260200161122261128b565b81525090565b6101e06040519081016040528061123d61128b565b815260200161124a6112eb565b81526020016112576112eb565b81526020016112646112eb565b8152602001606081525090565b604080519081016040528060008152602001600081525090565b604080519081016040528060008152602001600081525090565b606060405190810160405280600390602082028038833980820191505090505090565b608060405190810160405280600490602082028038833980820191505090505090565b6080604051908101604052806112ff611335565b815260200161130c611335565b81525090565b602060405190810160405280600190602082028038833980820191505090505090565b604080519081016040528060029060208202803883398082019150509050509056fea165627a7a723058205526e1f76ee4fad77280d1a27a2b9592beaba39f260f2bef1b365db5249cd1180029",
  "source": "//\n// Copyright 2017 Christian Reitwiessner\n// Permission is hereby granted, free of charge, to any person obtaining a copy of this software and associated documentation files (the \"Software\"), to deal in the Software without restriction, including without limitation the rights to use, copy, modify, merge, publish, distribute, sublicense, and/or sell copies of the Software, and to permit persons to whom the Software is furnished to do so, subject to the following conditions:\n// The above copyright notice and this permission notice shall be included in all copies or substantial portions of the Software.\n// THE SOFTWARE IS PROVIDED \"AS IS\", WITHOUT WARRANTY OF ANY KIND, EXPRESS OR IMPLIED, INCLUDING BUT NOT LIMITED TO THE WARRANTIES OF MERCHANTABILITY, FITNESS FOR A PARTICULAR PURPOSE AND NONINFRINGEMENT. IN NO EVENT SHALL THE AUTHORS OR COPYRIGHT HOLDERS BE LIABLE FOR ANY CLAIM, DAMAGES OR OTHER LIABILITY, WHETHER IN AN ACTION OF CONTRACT, TORT OR OTHERWISE, ARISING FROM, OUT OF OR IN CONNECTION WITH THE SOFTWARE OR THE USE OR OTHER DEALINGS IN THE SOFTWARE.\n//\n// 2019 OKIMS\n//      ported to solidity 0.5\n//      fixed linter warnings\n//      added requiere error messages\n//\npragma solidity ^0.5.0;\n\nimport \"../contracts/Pairing.sol\";\n\ncontract Update_verifier {\n    using Pairing for *;\n    struct VerifyingKey1 {\n        Pairing.G1Point alfa1;\n        Pairing.G2Point beta2;\n        Pairing.G2Point gamma2;\n        Pairing.G2Point delta2;\n        Pairing.G1Point[] IC;\n    }\n    struct Proof1 {\n        Pairing.G1Point A;\n        Pairing.G2Point B;\n        Pairing.G1Point C;\n    }\n    function verifyingKey1() internal pure returns (VerifyingKey1 memory vk) {\n        vk.alfa1 = Pairing.G1Point(149307559044692901831578064888623813524857951748131929604301878784916297094,308953899691249525215455385052758352247067380293878119422101275445346319709);\n        vk.beta2 = Pairing.G2Point([9907386513969861811115340933234526206872273725775992583899525256670366928178,8302576320452183926827941207220555457002563580938896125134989048507670085199], [5866502747398463731322191902062955190750094872538034580806572901244335891396,1344697778889418841357876084442639161937693201217780347281459972577564673613]);\n        vk.gamma2 = Pairing.G2Point([1682173733532678598265588951941389628654181112948742118243183898584957604583,17131847939025791549315704035439324708984659832645397328306264737795547167568], [15499977353758843157117298668500253930158461771715336080265510939693578568718,15240235314186278378132701219115794721895065044756819743532827901154329717238]);\n        vk.delta2 = Pairing.G2Point([6885192776484610123476675344574145377670416537666468324108107573781399410418,2111605492791937715413755907188747251506499904031143532696115069584242291391], [2700771085717846666192055454137160278650608184553851210387428744273575869328,6802445680705465233593689639502906127284085573501015518108755649428842842995]);\n        vk.IC = new Pairing.G1Point[](4);\n        vk.IC[0] = Pairing.G1Point(10311557340613601491567896937376252870257525376033255630304185711599385924165,17303075517255968042938837747714848269167053330707341186138469126809156774410);\n        vk.IC[1] = Pairing.G1Point(4725415454853978307666376051306947024521900810683407237645993658132024273487,11921376931246780996983804244069549518022510516699472823544413489451966604657);\n        vk.IC[2] = Pairing.G1Point(6386174518595405321313044530609092568680985765947588349880384314789396577701,1074795998130333046616253586777735333410538653597851036386380221170402070389);\n        vk.IC[3] = Pairing.G1Point(12960710846094750880738573896416296950537963085808524021756215405576472562456,6977904480036082477142755558849178892872032036600705787215366837932381673914);\n\n    }\n    function verify1(uint[] memory input, Proof1 memory proof) internal view returns (uint) {\n        VerifyingKey1 memory vk = verifyingKey1();\n        require(input.length + 1 == vk.IC.length,\"verifier-bad-input\");\n        // Compute the linear combination vk_x\n        Pairing.G1Point memory vk_x = Pairing.G1Point(0, 0);\n        for (uint i = 0; i < input.length; i++)\n            vk_x = Pairing.addition(vk_x, Pairing.scalar_mul(vk.IC[i + 1], input[i]));\n        vk_x = Pairing.addition(vk_x, vk.IC[0]);\n        if (!Pairing.pairingProd4(\n            Pairing.negate(proof.A), proof.B,\n            vk.alfa1, vk.beta2,\n            vk_x, vk.gamma2,\n            proof.C, vk.delta2\n        )) return 1;\n        return 0;\n    }\n    function update_verifyProof(\n            uint[2] memory a,\n            uint[2][2] memory b,\n            uint[2] memory c,\n            uint[3] memory input\n        ) public view returns (bool r) {\n        Proof1 memory proof;\n        proof.A = Pairing.G1Point(a[0], a[1]);\n        proof.B = Pairing.G2Point([b[0][0], b[0][1]], [b[1][0], b[1][1]]);\n        proof.C = Pairing.G1Point(c[0], c[1]);\n        uint[] memory inputValues = new uint[](input.length);\n        for(uint i = 0; i < input.length; i++){\n            inputValues[i] = input[i];\n        }\n        if (verify1(inputValues, proof) == 0) {\n            return true;\n        } else {\n            return false;\n        }\n    }\n}\n",
  "sourcePath": "/home/moss/rollupnc/build/Update_verifier.sol",
  "compiler": {
    "name": "solc",
    "version": "0.5.0+commit.1d4f565a.Emscripten.clang"
  },
  "schemaVersion": "3.0.6",
  "updatedAt": "2019-06-30T15:41:01.674Z",
  "devdoc": {
    "methods": {}
  },
  "userdoc": {
    "methods": {}
  }
}