{
  "contractName": "Update_verifier",
  "abi": [
    {
      "constant": true,
      "inputs": [
        {
          "name": "a",
          "type": "uint256[2]"
        },
        {
          "name": "b",
          "type": "uint256[2][2]"
        },
        {
          "name": "c",
          "type": "uint256[2]"
        },
        {
          "name": "input",
          "type": "uint256[3]"
        }
      ],
      "name": "update_verifyProof",
      "outputs": [
        {
          "name": "r",
          "type": "bool"
        }
      ],
      "payable": false,
      "stateMutability": "view",
      "type": "function"
    }
  ],
  "bytecode": "0x608060405234801561001057600080fd5b50611385806100206000396000f3fe608060405260043610610041576000357c0100000000000000000000000000000000000000000000000000000000900463ffffffff168063b67868e614610046575b600080fd5b34801561005257600080fd5b506101b2600480360361016081101561006a57600080fd5b8101908080604001906002806020026040519081016040528092919082600260200280828437600081840152601f19601f82011690508083019250505050505091929192908060800190600280602002604051908101604052809291906000905b8282101561011f578382604002016002806020026040519081016040528092919082600260200280828437600081840152601f19601f820116905080830192505050505050815260200190600101906100cb565b50505050919291929080604001906002806020026040519081016040528092919082600260200280828437600081840152601f19601f820116905080830192505050505050919291929080606001906003806020026040519081016040528092919082600360200280828437600081840152601f19601f82011690508083019250505050505091929192905050506101cc565b604051808215151515815260200191505060405180910390f35b60006101d66111f5565b60408051908101604052808760006002811015156101f057fe5b6020020151815260200187600160028110151561020957fe5b602002015181525081600001819052506040805190810160405280604080519081016040528088600060028110151561023e57fe5b6020020151600060028110151561025157fe5b6020020151815260200188600060028110151561026a57fe5b6020020151600160028110151561027d57fe5b6020020151815250815260200160408051908101604052808860016002811015156102a457fe5b602002015160006002811015156102b757fe5b602002015181526020018860016002811015156102d057fe5b602002015160016002811015156102e357fe5b60200201518152508152508160200181905250604080519081016040528085600060028110151561031057fe5b6020020151815260200185600160028110151561032957fe5b602002015181525081604001819052506060600360405190808252806020026020018201604052801561036b5781602001602082028038833980820191505090505b50905060008090505b60038110156103b957848160038110151561038b57fe5b6020020151828281518110151561039e57fe5b90602001906020020181815250508080600101915050610374565b5060006103c682846103e6565b14156103d7576001925050506103de565b6000925050505b949350505050565b60006103f061122a565b6103f861057c565b9050806080015151600185510114151561047a576040517f08c379a00000000000000000000000000000000000000000000000000000000081526004018080602001828103825260128152602001807f76657269666965722d6261642d696e707574000000000000000000000000000081525060200191505060405180910390fd5b610482611273565b6040805190810160405280600081526020016000815250905060008090505b8551811015610501576104f2826104ed8560800151600185018151811015156104c657fe5b9060200190602002015189858151811015156104de57fe5b90602001906020020151610a4b565b610b4e565b915080806001019150506104a1565b50610528818360800151600081518110151561051957fe5b90602001906020020151610b4e565b905061055e61053a8560000151610c72565b8560200151846000015185602001518587604001518a604001518960600151610d0e565b151561056f57600192505050610576565b6000925050505b92915050565b61058461122a565b60408051908101604052807f1180f2a64985d0035aec188f48d7b48ff3b916781ea0f9cf1020958dbafd140a81526020017f0af2833680e2e442c7930a3ebfbb358634dd7494bf15ece7335e46087c4f80bb8152508160000181905250604080519081016040528060408051908101604052807f139f21b5d030fa5858b651ad99736fa6f0ec20eb2cfbcf7583efd38dd83c5c1e81526020017f1bf6ce013790fe83682a15c7b930dd9e1a837116ed23071e97997ac202e4a036815250815260200160408051908101604052807f17f93eb3b07ffc372b968b3ac0d5f8c2f34d42d0952c8c3e07a3225558909f0781526020017f1cb9b60f30edcd81c08482849a32ce15e72c5c7fb2d55cd1b112056ec4a9677a8152508152508160200181905250604080519081016040528060408051908101604052807f0c1a98f9ca0817e3dd441f25166169cbeb32a50efeccf7ca462e184634056c0981526020017f16a7e84b99087133e28742f014d7c6b60bde436048c0b65862a74a01ed25f7c0815250815260200160408051908101604052807f25eb6bb1610954f9d89376ebcc1efbe6dd5349a523feb5de72fd35673b2cc09581526020017f019d6f1ea7d013662d033b9155221f98faa8cf0db3b7d1231783601fcc6efe018152508152508160400181905250604080519081016040528060408051908101604052807f1a9a2e6d5328a829c7577d9fc81aebbd6eb2e9bfc837c7d9b79873a03c2179ce81526020017f2e6cd312fe248f3ea3f6148061369c3bd92efc1dff6f960736ed33111ee5d800815250815260200160408051908101604052807f023cecde2009689e52e807e34b5050118d2d3b92eabf24cee16fc9b737d7888c81526020017f1968091ebef2de35912189e3e6293a80118b570d28f100472d4100d11e4e41f88152508152508160600181905250600460405190808252806020026020018201604052801561086b57816020015b61085861128d565b8152602001906001900390816108505790505b50816080018190525060408051908101604052807f29b317b0d4cdcb973043f05582d3f4b17390af99f872a1bfbc67a55e5e80101c81526020017f17d85d949b80d8a08040823c0eb3059579dea250409529b1a6d4ddcca6b711f2815250816080015160008151811015156108dc57fe5b9060200190602002018190525060408051908101604052807f02edfe3de2a21de11de89cab44eb8e73e35ceac1c836f6ba9127a8e51a32181f81526020017f219b443b1e8b2c8f6d4f88677c5b17580cf6fe34e3b9982a72eb7ead12c7c0e78152508160800151600181518110151561095157fe5b9060200190602002018190525060408051908101604052807f21d4b5428517e4a4c6ec1f9b0e34d3464146db6ec7fdc94dd5ac4c732ee397cb81526020017f101c0caea2455e3cd0c8a30f2e8a2ec973dcf769b363c55a87793da3fdd5c3bf815250816080015160028151811015156109c657fe5b9060200190602002018190525060408051908101604052807f07e05ab4c1016e9257836f65e5eb83650e19c5b834231485c4fd1a7fd15da2df81526020017f0f18a650af3b8c2ed12ec9ee5ffe63bb975341cea06ad7a11f57ee1bbaaed3a681525081608001516003815181101515610a3b57fe5b9060200190602002018190525090565b610a53611273565b610a5b6112a7565b8360000151816000600381101515610a6f57fe5b6020020181815250508360200151816001600381101515610a8c57fe5b60200201818152505082816002600381101515610aa557fe5b602002018181525050600060608360808460076107d05a03fa90508060008114610ace57610ad0565bfe5b50801515610b46576040517f08c379a00000000000000000000000000000000000000000000000000000000081526004018080602001828103825260128152602001807f70616972696e672d6d756c2d6661696c6564000000000000000000000000000081525060200191505060405180910390fd5b505092915050565b610b56611273565b610b5e6112ca565b8360000151816000600481101515610b7257fe5b6020020181815250508360200151816001600481101515610b8f57fe5b6020020181815250508260000151816002600481101515610bac57fe5b6020020181815250508260200151816003600481101515610bc957fe5b602002018181525050600060608360c08460066107d05a03fa90508060008114610bf257610bf4565bfe5b50801515610c6a576040517f08c379a00000000000000000000000000000000000000000000000000000000081526004018080602001828103825260128152602001807f70616972696e672d6164642d6661696c6564000000000000000000000000000081525060200191505060405180910390fd5b505092915050565b610c7a611273565b60007f30644e72e131a029b85045b68181585d97816a916871ca8d3c208c16d87cfd47905060008360000151148015610cb7575060008360200151145b15610cdb576040805190810160405280600081526020016000815250915050610d09565b604080519081016040528084600001518152602001828560200151811515610cff57fe5b0683038152509150505b919050565b600060606004604051908082528060200260200182016040528015610d4d57816020015b610d3a61128d565b815260200190600190039081610d325790505b50905060606004604051908082528060200260200182016040528015610d8d57816020015b610d7a6112ed565b815260200190600190039081610d725790505b5090508a826000815181101515610da057fe5b9060200190602002018190525088826001815181101515610dbd57fe5b9060200190602002018190525086826002815181101515610dda57fe5b9060200190602002018190525084826003815181101515610df757fe5b9060200190602002018190525089816000815181101515610e1457fe5b9060200190602002018190525087816001815181101515610e3157fe5b9060200190602002018190525085816002815181101515610e4e57fe5b9060200190602002018190525083816003815181101515610e6b57fe5b90602001906020020181905250610e828282610e92565b9250505098975050505050505050565b600081518351141515610f0d576040517f08c379a00000000000000000000000000000000000000000000000000000000081526004018080602001828103825260168152602001807f70616972696e672d6c656e677468732d6661696c65640000000000000000000081525060200191505060405180910390fd5b6000835190506000600682029050606081604051908082528060200260200182016040528015610f4c5781602001602082028038833980820191505090505b50905060008090505b8381101561112a578681815181101515610f6b57fe5b90602001906020020151600001518260006006840201815181101515610f8d57fe5b90602001906020020181815250508681815181101515610fa957fe5b90602001906020020151602001518260016006840201815181101515610fcb57fe5b90602001906020020181815250508581815181101515610fe757fe5b9060200190602002015160000151600060028110151561100357fe5b6020020151826002600684020181518110151561101c57fe5b9060200190602002018181525050858181518110151561103857fe5b9060200190602002015160000151600160028110151561105457fe5b6020020151826003600684020181518110151561106d57fe5b9060200190602002018181525050858181518110151561108957fe5b906020019060200201516020015160006002811015156110a557fe5b602002015182600460068402018151811015156110be57fe5b906020019060200201818152505085818151811015156110da57fe5b906020019060200201516020015160016002811015156110f657fe5b6020020151826005600684020181518110151561110f57fe5b90602001906020020181815250508080600101915050610f55565b50611133611314565b6000602082602086026020860160086107d05a03fa905080600081146111585761115a565bfe5b508015156111d0576040517f08c379a00000000000000000000000000000000000000000000000000000000081526004018080602001828103825260158152602001807f70616972696e672d6f70636f64652d6661696c6564000000000000000000000081525060200191505060405180910390fd5b60008260006001811015156111e157fe5b602002015114159550505050505092915050565b6101006040519081016040528061120a61128d565b81526020016112176112ed565b815260200161122461128d565b81525090565b6101e06040519081016040528061123f61128d565b815260200161124c6112ed565b81526020016112596112ed565b81526020016112666112ed565b8152602001606081525090565b604080519081016040528060008152602001600081525090565b604080519081016040528060008152602001600081525090565b606060405190810160405280600390602082028038833980820191505090505090565b608060405190810160405280600490602082028038833980820191505090505090565b608060405190810160405280611301611337565b815260200161130e611337565b81525090565b602060405190810160405280600190602082028038833980820191505090505090565b604080519081016040528060029060208202803883398082019150509050509056fea165627a7a72305820802a21f86bfb4e00e280bef90982143a913a383738a71c0f9035e4ba7dee88fd0029",
  "source": "//\n// Copyright 2017 Christian Reitwiessner\n// Permission is hereby granted, free of charge, to any person obtaining a copy of this software and associated documentation files (the \"Software\"), to deal in the Software without restriction, including without limitation the rights to use, copy, modify, merge, publish, distribute, sublicense, and/or sell copies of the Software, and to permit persons to whom the Software is furnished to do so, subject to the following conditions:\n// The above copyright notice and this permission notice shall be included in all copies or substantial portions of the Software.\n// THE SOFTWARE IS PROVIDED \"AS IS\", WITHOUT WARRANTY OF ANY KIND, EXPRESS OR IMPLIED, INCLUDING BUT NOT LIMITED TO THE WARRANTIES OF MERCHANTABILITY, FITNESS FOR A PARTICULAR PURPOSE AND NONINFRINGEMENT. IN NO EVENT SHALL THE AUTHORS OR COPYRIGHT HOLDERS BE LIABLE FOR ANY CLAIM, DAMAGES OR OTHER LIABILITY, WHETHER IN AN ACTION OF CONTRACT, TORT OR OTHERWISE, ARISING FROM, OUT OF OR IN CONNECTION WITH THE SOFTWARE OR THE USE OR OTHER DEALINGS IN THE SOFTWARE.\n//\n// 2019 OKIMS\n//      ported to solidity 0.5\n//      fixed linter warnings\n//      added requiere error messages\n//\npragma solidity ^0.5.0;\n\nimport \"../contracts/Pairing.sol\";\n\ncontract Update_verifier {\n    using Pairing for *;\n    struct VerifyingKey1 {\n        Pairing.G1Point alfa1;\n        Pairing.G2Point beta2;\n        Pairing.G2Point gamma2;\n        Pairing.G2Point delta2;\n        Pairing.G1Point[] IC;\n    }\n    struct Proof1 {\n        Pairing.G1Point A;\n        Pairing.G2Point B;\n        Pairing.G1Point C;\n    }\n    function verifyingKey1() internal pure returns (VerifyingKey1 memory vk) {\n        vk.alfa1 = Pairing.G1Point(7917149555917076442485460811909777643172123779351056324693654551846719394826,4951611073690893623603425524188028653311734329962048135762189262070041510075);\n        vk.beta2 = Pairing.G2Point([8875105465686720341186674712904773543947453194597092961073611637655479278622,12648513082242883747399976199505186196922009013736650767378141130365352583222], [10843573189236512463629578994560929360563112350364422931867477188218438328071,12992882994702592247172638168246070685372277522890169960846388765194231310202]);\n        vk.gamma2 = Pairing.G2Point([5474748006431279255319789618126794379623682063280643127711436943670196399113,10247549371914559718439752768990146778201763727381290211255857526196511569856], [17151527726792574591462066590083884759636614499946552420811006655719606632597,730474758069116614038178207980878121158408503671466027269611033467420605953]);\n        vk.delta2 = Pairing.G2Point([12032548938864581851720126563296534507139702590378124964968452442098113804750,20998667298348894000608943601590873124778020818610518892128714170102444316672], [1012271321673102351036853289058611388156989405204651083215168924447816517772,11491636253943378328437665624857388319721897639123643590474407317069649297912]);\n        vk.IC = new Pairing.G1Point[](4);\n        vk.IC[0] = Pairing.G1Point(18861255924036707419527061509341448150392916002902876440733895594039144615964,10785480352266025669062578699248202585494571632866109324557834131617191760370);\n        vk.IC[1] = Pairing.G1Point(1325123163515110228198890475035258435538344572686166451619972042655196649503,15200656210893497146633814869302507757960734426693804365290198305593027444967);\n        vk.IC[2] = Pairing.G1Point(15302146590442421277498148921813459145539182662093519812649412956168443369419,7286564824222066184019974261762452891969263830256031789617041779579646493631);\n        vk.IC[3] = Pairing.G1Point(3562589712880695396254371898263423073790075001217718615578697900383937602271,6828244923447125154569777398137502901149739800727967117333006915602786210726);\n\n    }\n    function verify1(uint[] memory input, Proof1 memory proof) internal view returns (uint) {\n        VerifyingKey1 memory vk = verifyingKey1();\n        require(input.length + 1 == vk.IC.length,\"verifier-bad-input\");\n        // Compute the linear combination vk_x\n        Pairing.G1Point memory vk_x = Pairing.G1Point(0, 0);\n        for (uint i = 0; i < input.length; i++)\n            vk_x = Pairing.addition(vk_x, Pairing.scalar_mul(vk.IC[i + 1], input[i]));\n        vk_x = Pairing.addition(vk_x, vk.IC[0]);\n        if (!Pairing.pairingProd4(\n            Pairing.negate(proof.A), proof.B,\n            vk.alfa1, vk.beta2,\n            vk_x, vk.gamma2,\n            proof.C, vk.delta2\n        )) return 1;\n        return 0;\n    }\n    function update_verifyProof(\n            uint[2] memory a,\n            uint[2][2] memory b,\n            uint[2] memory c,\n            uint[3] memory input\n        ) public view returns (bool r) {\n        Proof1 memory proof;\n        proof.A = Pairing.G1Point(a[0], a[1]);\n        proof.B = Pairing.G2Point([b[0][0], b[0][1]], [b[1][0], b[1][1]]);\n        proof.C = Pairing.G1Point(c[0], c[1]);\n        uint[] memory inputValues = new uint[](input.length);\n        for(uint i = 0; i < input.length; i++){\n            inputValues[i] = input[i];\n        }\n        if (verify1(inputValues, proof) == 0) {\n            return true;\n        } else {\n            return false;\n        }\n    }\n}\n",
  "sourcePath": "/home/moss/rollupnc/build/Update_verifier.sol",
  "compiler": {
    "name": "solc",
    "version": "0.5.0+commit.1d4f565a.Emscripten.clang"
  },
  "schemaVersion": "3.0.6",
  "updatedAt": "2019-07-04T13:50:15.973Z",
  "devdoc": {
    "methods": {}
  },
  "userdoc": {
    "methods": {}
  }
}