{
  "contractName": "Withdraw_verifier",
  "abi": [
    {
      "constant": true,
      "inputs": [
        {
          "name": "a",
          "type": "uint256[2]"
        },
        {
          "name": "b",
          "type": "uint256[2][2]"
        },
        {
          "name": "c",
          "type": "uint256[2]"
        },
        {
          "name": "input",
          "type": "uint256[3]"
        }
      ],
      "name": "withdraw_verifyProof",
      "outputs": [
        {
          "name": "r",
          "type": "bool"
        }
      ],
      "payable": false,
      "stateMutability": "view",
      "type": "function"
    }
  ],
  "bytecode": "0x608060405234801561001057600080fd5b50611384806100206000396000f3fe608060405260043610610041576000357c0100000000000000000000000000000000000000000000000000000000900463ffffffff1680633734d2f014610046575b600080fd5b34801561005257600080fd5b506101b2600480360361016081101561006a57600080fd5b8101908080604001906002806020026040519081016040528092919082600260200280828437600081840152601f19601f82011690508083019250505050505091929192908060800190600280602002604051908101604052809291906000905b8282101561011f578382604002016002806020026040519081016040528092919082600260200280828437600081840152601f19601f820116905080830192505050505050815260200190600101906100cb565b50505050919291929080604001906002806020026040519081016040528092919082600260200280828437600081840152601f19601f820116905080830192505050505050919291929080606001906003806020026040519081016040528092919082600360200280828437600081840152601f19601f82011690508083019250505050505091929192905050506101cc565b604051808215151515815260200191505060405180910390f35b60006101d66111f4565b60408051908101604052808760006002811015156101f057fe5b6020020151815260200187600160028110151561020957fe5b602002015181525081600001819052506040805190810160405280604080519081016040528088600060028110151561023e57fe5b6020020151600060028110151561025157fe5b6020020151815260200188600060028110151561026a57fe5b6020020151600160028110151561027d57fe5b6020020151815250815260200160408051908101604052808860016002811015156102a457fe5b602002015160006002811015156102b757fe5b602002015181526020018860016002811015156102d057fe5b602002015160016002811015156102e357fe5b60200201518152508152508160200181905250604080519081016040528085600060028110151561031057fe5b6020020151815260200185600160028110151561032957fe5b602002015181525081604001819052506060600360405190808252806020026020018201604052801561036b5781602001602082028038833980820191505090505b50905060008090505b60038110156103b957848160038110151561038b57fe5b6020020151828281518110151561039e57fe5b90602001906020020181815250508080600101915050610374565b5060006103c682846103e6565b14156103d7576001925050506103de565b6000925050505b949350505050565b60006103f0611229565b6103f861057c565b9050806080015151600185510114151561047a576040517f08c379a00000000000000000000000000000000000000000000000000000000081526004018080602001828103825260128152602001807f76657269666965722d6261642d696e707574000000000000000000000000000081525060200191505060405180910390fd5b610482611272565b6040805190810160405280600081526020016000815250905060008090505b8551811015610501576104f2826104ed8560800151600185018151811015156104c657fe5b9060200190602002015189858151811015156104de57fe5b90602001906020020151610a4a565b610b4d565b915080806001019150506104a1565b50610528818360800151600081518110151561051957fe5b90602001906020020151610b4d565b905061055e61053a8560000151610c71565b8560200151846000015185602001518587604001518a604001518960600151610d0d565b151561056f57600192505050610576565b6000925050505b92915050565b610584611229565b60408051908101604052807f0f4e2a80831358f59fe25973a20fc025f0440da813c252d461416fe2c053d19b81526020017f0a9ed884827f6ee85db87bfff877cfebe1b3a1cde80138ef4ae02823639f1d6d8152508160000181905250604080519081016040528060408051908101604052807f182c5bfada417d9d3ea90c47ca25fc3c1e36a1a34e30790df7934c4b6df6ec8981526020017f27b36d848276c6f456818e3f206772febb6ed453d328924fbe04feb8777ac528815250815260200160408051908101604052807f26d7490c23c6edc6a9eccd6476208ebb762ae8eccfb8dcdc3138914eef44244b81526020017f19b24f495c4da58e7669249c4b20b3dad00f07b4ce0522da3e77d611a58202578152508152508160200181905250604080519081016040528060408051908101604052807f051e2386568775afdc6d09da26887ede5053dbd0433e5de98c1e51a11a1676dc81526020017f1fbc374ae8b7220ef3a56cd442bdf262b1ccfe90113998f7c8b5f142f9d73cab815250815260200160408051908101604052807ef5a374bd8e13317d80af74f90db315ff279457c7b1e8207a86108b1b93e31481526020017f09cf3f2e3aa379cff0a708d3627345fc2aa0f0edd933a3d6bf48db87637c82d68152508152508160400181905250604080519081016040528060408051908101604052807f0c78ddfafe12f5215fdbf22f37aed2d3dd6334626244ad55c6b132bc721accf381526020017f2a4a01377a1614be4db9fed8260fe5ce35d56d8e71c20d0112fc8acfa124d4b4815250815260200160408051908101604052807f1a468bf509164c7b2129dc4290234b95e46765f4cbe93c1b43feafd7b5b10dc881526020017f1e7ec150a235e5126beea381c3bffe4d23b8c03f31f6d42ec8835c4ad817f7cb8152508152508160600181905250600460405190808252806020026020018201604052801561086a57816020015b61085761128c565b81526020019060019003908161084f5790505b50816080018190525060408051908101604052807f284f75407c5a95d3c575e2b06ddb6cf3b5ccef3cbcad8aec1d04612ce2c5ed4481526020017f10514647ef7afe31bd9d47851ce0c8256ba679eed9acc23707d98ac9c94f0f99815250816080015160008151811015156108db57fe5b9060200190602002018190525060408051908101604052807f041b8c180433e2d7c476bd0967827f18da208be7ab15352d9b5b2dbca8f8ae8a81526020017f1e8922f68d2a09a8fcb9feb8f27217203ca40b31d32a946ed33772b71687097d8152508160800151600181518110151561095057fe5b9060200190602002018190525060408051908101604052807f093c8d884113ed07736a1dff6c7197df08febeff7b7abe1a64f564515fbbbced81526020017f020824baf8143fe6621fe78b3fd58b2fac65e9fb7f005ef6d905a6d45e79a553815250816080015160028151811015156109c557fe5b9060200190602002018190525060408051908101604052807f191cc269ba636687c62c15257c72baff07519f5eb59ed2748a9e7444223a6d2981526020017f13d78660111881720eaec6ca8b0532a0619a1cdc6400d2adad4857dbd0365f6c81525081608001516003815181101515610a3a57fe5b9060200190602002018190525090565b610a52611272565b610a5a6112a6565b8360000151816000600381101515610a6e57fe5b6020020181815250508360200151816001600381101515610a8b57fe5b60200201818152505082816002600381101515610aa457fe5b602002018181525050600060608360808460076107d05a03fa90508060008114610acd57610acf565bfe5b50801515610b45576040517f08c379a00000000000000000000000000000000000000000000000000000000081526004018080602001828103825260128152602001807f70616972696e672d6d756c2d6661696c6564000000000000000000000000000081525060200191505060405180910390fd5b505092915050565b610b55611272565b610b5d6112c9565b8360000151816000600481101515610b7157fe5b6020020181815250508360200151816001600481101515610b8e57fe5b6020020181815250508260000151816002600481101515610bab57fe5b6020020181815250508260200151816003600481101515610bc857fe5b602002018181525050600060608360c08460066107d05a03fa90508060008114610bf157610bf3565bfe5b50801515610c69576040517f08c379a00000000000000000000000000000000000000000000000000000000081526004018080602001828103825260128152602001807f70616972696e672d6164642d6661696c6564000000000000000000000000000081525060200191505060405180910390fd5b505092915050565b610c79611272565b60007f30644e72e131a029b85045b68181585d97816a916871ca8d3c208c16d87cfd47905060008360000151148015610cb6575060008360200151145b15610cda576040805190810160405280600081526020016000815250915050610d08565b604080519081016040528084600001518152602001828560200151811515610cfe57fe5b0683038152509150505b919050565b600060606004604051908082528060200260200182016040528015610d4c57816020015b610d3961128c565b815260200190600190039081610d315790505b50905060606004604051908082528060200260200182016040528015610d8c57816020015b610d796112ec565b815260200190600190039081610d715790505b5090508a826000815181101515610d9f57fe5b9060200190602002018190525088826001815181101515610dbc57fe5b9060200190602002018190525086826002815181101515610dd957fe5b9060200190602002018190525084826003815181101515610df657fe5b9060200190602002018190525089816000815181101515610e1357fe5b9060200190602002018190525087816001815181101515610e3057fe5b9060200190602002018190525085816002815181101515610e4d57fe5b9060200190602002018190525083816003815181101515610e6a57fe5b90602001906020020181905250610e818282610e91565b9250505098975050505050505050565b600081518351141515610f0c576040517f08c379a00000000000000000000000000000000000000000000000000000000081526004018080602001828103825260168152602001807f70616972696e672d6c656e677468732d6661696c65640000000000000000000081525060200191505060405180910390fd5b6000835190506000600682029050606081604051908082528060200260200182016040528015610f4b5781602001602082028038833980820191505090505b50905060008090505b83811015611129578681815181101515610f6a57fe5b90602001906020020151600001518260006006840201815181101515610f8c57fe5b90602001906020020181815250508681815181101515610fa857fe5b90602001906020020151602001518260016006840201815181101515610fca57fe5b90602001906020020181815250508581815181101515610fe657fe5b9060200190602002015160000151600060028110151561100257fe5b6020020151826002600684020181518110151561101b57fe5b9060200190602002018181525050858181518110151561103757fe5b9060200190602002015160000151600160028110151561105357fe5b6020020151826003600684020181518110151561106c57fe5b9060200190602002018181525050858181518110151561108857fe5b906020019060200201516020015160006002811015156110a457fe5b602002015182600460068402018151811015156110bd57fe5b906020019060200201818152505085818151811015156110d957fe5b906020019060200201516020015160016002811015156110f557fe5b6020020151826005600684020181518110151561110e57fe5b90602001906020020181815250508080600101915050610f54565b50611132611313565b6000602082602086026020860160086107d05a03fa9050806000811461115757611159565bfe5b508015156111cf576040517f08c379a00000000000000000000000000000000000000000000000000000000081526004018080602001828103825260158152602001807f70616972696e672d6f70636f64652d6661696c6564000000000000000000000081525060200191505060405180910390fd5b60008260006001811015156111e057fe5b602002015114159550505050505092915050565b6101006040519081016040528061120961128c565b81526020016112166112ec565b815260200161122361128c565b81525090565b6101e06040519081016040528061123e61128c565b815260200161124b6112ec565b81526020016112586112ec565b81526020016112656112ec565b8152602001606081525090565b604080519081016040528060008152602001600081525090565b604080519081016040528060008152602001600081525090565b606060405190810160405280600390602082028038833980820191505090505090565b608060405190810160405280600490602082028038833980820191505090505090565b608060405190810160405280611300611336565b815260200161130d611336565b81525090565b602060405190810160405280600190602082028038833980820191505090505090565b604080519081016040528060029060208202803883398082019150509050509056fea165627a7a7230582053717f2c32d73755460766bd46ff88d5ef6804493a6155f39f1e9bc8271a8ae70029",
  "source": "//\n// Copyright 2017 Christian Reitwiessner\n// Permission is hereby granted, free of charge, to any person obtaining a copy of this software and associated documentation files (the \"Software\"), to deal in the Software without restriction, including without limitation the rights to use, copy, modify, merge, publish, distribute, sublicense, and/or sell copies of the Software, and to permit persons to whom the Software is furnished to do so, subject to the following conditions:\n// The above copyright notice and this permission notice shall be included in all copies or substantial portions of the Software.\n// THE SOFTWARE IS PROVIDED \"AS IS\", WITHOUT WARRANTY OF ANY KIND, EXPRESS OR IMPLIED, INCLUDING BUT NOT LIMITED TO THE WARRANTIES OF MERCHANTABILITY, FITNESS FOR A PARTICULAR PURPOSE AND NONINFRINGEMENT. IN NO EVENT SHALL THE AUTHORS OR COPYRIGHT HOLDERS BE LIABLE FOR ANY CLAIM, DAMAGES OR OTHER LIABILITY, WHETHER IN AN ACTION OF CONTRACT, TORT OR OTHERWISE, ARISING FROM, OUT OF OR IN CONNECTION WITH THE SOFTWARE OR THE USE OR OTHER DEALINGS IN THE SOFTWARE.\n//\n// 2019 OKIMS\n//      ported to solidity 0.5\n//      fixed linter warnings\n//      added requiere error messages\n//\npragma solidity ^0.5.0;\n\nimport \"../contracts/Pairing.sol\";\n\ncontract Withdraw_verifier {\n    using Pairing for *;\n    struct VerifyingKey {\n        Pairing.G1Point alfa1;\n        Pairing.G2Point beta2;\n        Pairing.G2Point gamma2;\n        Pairing.G2Point delta2;\n        Pairing.G1Point[] IC;\n    }\n    struct Proof {\n        Pairing.G1Point A;\n        Pairing.G2Point B;\n        Pairing.G1Point C;\n    }\n    function verifyingKey() internal pure returns (VerifyingKey memory vk) {\n        vk.alfa1 = Pairing.G1Point(6922800137825317709854761355372187011858344780436583871134917149313155191195,4803784671734536341847818528932882296576899739109031190886857376596443995501);\n        vk.beta2 = Pairing.G2Point([10933884458737887847524918447301956757519185837911795297344621204920128171145,17957222582146940185712455178179651834664421890519480187098620374198951527720], [17568264519861915881346970642000475859008751835083506466670054353375487861835,11622867207870388111799709147880193051297336471189776202369713435199225856599]);\n        vk.gamma2 = Pairing.G2Point([2314814837727256517626731298130669884032170765374949037074717845387088393948,14354247169852509374040191445363883827139240183883544548478704393542027394219], [434005662841513791739829681715009043857597042407333768922295560985940058900,4436989036011280518283051107457856579371984798454058662716477926042565903062]);\n        vk.delta2 = Pairing.G2Point([5641307883459031045923988805799239245158709285783645550675128741895092227315,19127894720691385427863062532759388152288298190621244002030372836123190023348], [11884779306585534141320787638271074963593674938817958519447989015299191016904,13793342398583494317726604955220825424113403939950827305407964119117512308683]);\n        vk.IC = new Pairing.G1Point[](4);\n        vk.IC[0] = Pairing.G1Point(18232904104303297873093719810864101736199938641397297718631109346032311725380,7380605251200034124104001624308618350875294716090431273232183450375725977497);\n        vk.IC[1] = Pairing.G1Point(1857923157051946493109870272686657870623832942011551538538675866353123503754,13811684811761627748889561500261753002191141079133439432390863607280693610877);\n        vk.IC[2] = Pairing.G1Point(4177803280777240753305605861155518255972875641421525121340898537102303280365,919013977229102941523648795342669105063118976479518177460620481121085924691);\n        vk.IC[3] = Pairing.G1Point(11358634721610109138847130535034796534152977445684368465400997280095961509161,8974743665975153988629230472309829939606752638645846239330617458522009788268);\n\n    }\n    function verify(uint[] memory input, Proof memory proof) internal view returns (uint) {\n        VerifyingKey memory vk = verifyingKey();\n        require(input.length + 1 == vk.IC.length,\"verifier-bad-input\");\n        // Compute the linear combination vk_x\n        Pairing.G1Point memory vk_x = Pairing.G1Point(0, 0);\n        for (uint i = 0; i < input.length; i++)\n            vk_x = Pairing.addition(vk_x, Pairing.scalar_mul(vk.IC[i + 1], input[i]));\n        vk_x = Pairing.addition(vk_x, vk.IC[0]);\n        if (!Pairing.pairingProd4(\n            Pairing.negate(proof.A), proof.B,\n            vk.alfa1, vk.beta2,\n            vk_x, vk.gamma2,\n            proof.C, vk.delta2\n        )) return 1;\n        return 0;\n    }\n    function withdraw_verifyProof(\n            uint[2] memory a,\n            uint[2][2] memory b,\n            uint[2] memory c,\n            uint[3] memory input\n        ) public view returns (bool r) {\n        Proof memory proof;\n        proof.A = Pairing.G1Point(a[0], a[1]);\n        proof.B = Pairing.G2Point([b[0][0], b[0][1]], [b[1][0], b[1][1]]);\n        proof.C = Pairing.G1Point(c[0], c[1]);\n        uint[] memory inputValues = new uint[](input.length);\n        for(uint i = 0; i < input.length; i++){\n            inputValues[i] = input[i];\n        }\n        if (verify(inputValues, proof) == 0) {\n            return true;\n        } else {\n            return false;\n        }\n    }\n}\n",
  "sourcePath": "/home/moss/rollupnc/build/Withdraw_verifier.sol",
  "compiler": {
    "name": "solc",
    "version": "0.5.0+commit.1d4f565a.Emscripten.clang"
  },
  "schemaVersion": "3.0.6",
  "updatedAt": "2019-06-30T15:41:01.683Z",
  "devdoc": {
    "methods": {}
  },
  "userdoc": {
    "methods": {}
  }
}