{
  "contractName": "WithdrawVerifier",
  "abi": [
    {
      "constant": true,
      "inputs": [
        {
          "name": "a",
          "type": "uint256[2]"
        },
        {
          "name": "b",
          "type": "uint256[2][2]"
        },
        {
          "name": "c",
          "type": "uint256[2]"
        },
        {
          "name": "input",
          "type": "uint256[8]"
        }
      ],
      "name": "verifyProof",
      "outputs": [
        {
          "name": "r",
          "type": "bool"
        }
      ],
      "payable": false,
      "stateMutability": "view",
      "type": "function"
    }
  ],
  "bytecode": "0x608060405234801561001057600080fd5b506113c1806100206000396000f3fe608060405260043610610041576000357c0100000000000000000000000000000000000000000000000000000000900463ffffffff168063c9219a7a14610046575b600080fd5b34801561005257600080fd5b506101b3600480360361020081101561006a57600080fd5b8101908080604001906002806020026040519081016040528092919082600260200280828437600081840152601f19601f82011690508083019250505050505091929192908060800190600280602002604051908101604052809291906000905b8282101561011f578382604002016002806020026040519081016040528092919082600260200280828437600081840152601f19601f820116905080830192505050505050815260200190600101906100cb565b50505050919291929080604001906002806020026040519081016040528092919082600260200280828437600081840152601f19601f82011690508083019250505050505091929192908061010001906008806020026040519081016040528092919082600860200280828437600081840152601f19601f82011690508083019250505050505091929192905050506101cd565b604051808215151515815260200191505060405180910390f35b60006101d7611231565b60408051908101604052808760006002811015156101f157fe5b6020020151815260200187600160028110151561020a57fe5b602002015181525081600001819052506040805190810160405280604080519081016040528088600060028110151561023f57fe5b6020020151600060028110151561025257fe5b6020020151815260200188600060028110151561026b57fe5b6020020151600160028110151561027e57fe5b6020020151815250815260200160408051908101604052808860016002811015156102a557fe5b602002015160006002811015156102b857fe5b602002015181526020018860016002811015156102d157fe5b602002015160016002811015156102e457fe5b60200201518152508152508160200181905250604080519081016040528085600060028110151561031157fe5b6020020151815260200185600160028110151561032a57fe5b602002015181525081604001819052506060600860405190808252806020026020018201604052801561036c5781602001602082028038833980820191505090505b50905060008090505b60088110156103ba57848160088110151561038c57fe5b6020020151828281518110151561039f57fe5b90602001906020020181815250508080600101915050610375565b5060006103c782846103e7565b14156103d8576001925050506103df565b6000925050505b949350505050565b60006103f1611266565b6103f9610514565b9050806080015151600185510114151561041257600080fd5b61041a6112af565b6040805190810160405280600081526020016000815250905060008090505b85518110156104995761048a8261048585608001516001850181518110151561045e57fe5b90602001906020020151898581518110151561047657fe5b90602001906020020151610c2b565b610cc5565b91508080600101915050610439565b506104c081836080015160008151811015156104b157fe5b90602001906020020151610cc5565b90506104f66104d28560000151610d80565b8560200151846000015185602001518587604001518a604001518960600151610e1c565b15156105075760019250505061050e565b6000925050505b92915050565b61051c611266565b60408051908101604052807f246d7ff53b88a2324e98d236fbe6107a834bbe20fe5b8bc134108ea622d048cb81526020017f2e58b4fd0047b2ea5aafb9ea34d953d862fafd5b872380aa2320bf100b9b972f8152508160000181905250604080519081016040528060408051908101604052807f172355650d612c6755433014ac609b8b0d50655ef721ead1256afb8e2f2ea6fa81526020017f1dce351b6e0eed47e723ed962c7b1c7a9b5e632b402622a4e9278c80ac0d03e7815250815260200160408051908101604052807f03fd1fc944053614298ba654dbc67ca482f36cb545015ca93514cc194fad702481526020017f2013d76c13cc72b51917716f07b6d04cdd4b37eaa6d419502a8ff658bdb719f98152508152508160200181905250604080519081016040528060408051908101604052807f08644fb2b788c3f0edcc5c1518e4bb62495b889169baa16837d5b7a3dc9e808a81526020017f282a6151d7923aa872f7a92422cc73e1e640e47be67339e3afc61e79e6e84f06815250815260200160408051908101604052807f0e5271db8eb5d974f1b53d5695c66ac5d710d3449fd0a55b000d4aa88aa8d63981526020017f0bad8f6ff697e4e90696fb20e41551541ef8fac0bd019d1340d70a64e6b79e9f8152508152508160400181905250604080519081016040528060408051908101604052807e105ec7a66a8c761f6cb08badc494188228d0f0c28c643d4383895c4317d1f381526020017f19eb5b67002adf0328a4c3e1674f2c7564f45ff2f28d0d9352b4caef2292c84e815250815260200160408051908101604052807f23cf7b4fa36db041378506c6e828aa73d9752eedaee1b997b8fb99beb097940b81526020017f225dd1ae165692d4279278aa603813d930c5dd957d222a49c9418bf552dd0f678152508152508160600181905250600960405190808252806020026020018201604052801561080257816020015b6107ef6112c9565b8152602001906001900390816107e75790505b50816080018190525060408051908101604052807f09ba3d6d4f0646d6798f2b1ccf9b2cf913e5f396a0632321845aa4f098f91e8d81526020017f1f097d61910dd80286857a118cfae0edde8cfebd6ad8190ade6806d1d350b58d8152508160800151600081518110151561087357fe5b9060200190602002018190525060408051908101604052807f1e6ab4d164bb3fe6dadc41cf9ba769cf063d1334f83a42877c66f7eccf26ced081526020017f1f87c0cf62a7e67fdcc32b4c12f7a293b0820fd87967a06416bda6f5a5bbc601815250816080015160018151811015156108e857fe5b9060200190602002018190525060408051908101604052807f25d0f030c9cabba704dc423218567065867ad478979a8bffa87023eb95fbe66281526020017f2074339b54a813e0efa2ccce48cb7f0191194bc883b9be0e88025c046dd658128152508160800151600281518110151561095d57fe5b9060200190602002018190525060408051908101604052807f064f073a99c43a8556639c077c5dbc7e24be12764bfba7093e2378a4f4c6ac7581526020017f258f7517227f5447551be2703e00ff21a5c465797034a7d3407a8a0622181376815250816080015160038151811015156109d257fe5b9060200190602002018190525060408051908101604052807f18c98f3581785c90a77ae7cb65ab384fc9fb003122eb892752ba89040e62698c81526020017f0cc312d2b254b95cbaed42144bb4868f1ec9a643fb54fda968408ccc8d6b8c1a81525081608001516004815181101515610a4757fe5b9060200190602002018190525060408051908101604052807f0ae41ba4f58cfb71fe972b5a0e963cdc3dd592e7bfa69cd39b226cbc228df46581526020017f1c8f821afc4afbe3ca86a0f784c5932d989803e70debd0f2335979ff1173424e81525081608001516005815181101515610abc57fe5b9060200190602002018190525060408051908101604052807f240d3d6fa68bf4ec038d85627748036aa2c4b4345a37e49bbe89101ae5456ac781526020017f01adb8bbaf9f987f9fce4a486dc9aa0b3efa1293ddf8a74ef938ce503747bd0d81525081608001516006815181101515610b3157fe5b9060200190602002018190525060408051908101604052807f0e3f11e33b4312163e523ffa56b7e5db78575c12a3f91bfe949c5be76320773881526020017f1a21c9269c7b14a3b07c91b4d7733025bba8c82973fe9d8b9e27a4214c08c83281525081608001516007815181101515610ba657fe5b9060200190602002018190525060408051908101604052807f11e845c75e98062e01b9e2594ac8610923e3fc8a59e05a3a2e09122f436ae24581526020017f04572e3d8b1cd07225d4e674f0250af5869ff98a946bf56eb7087f6002a45a2c81525081608001516008815181101515610c1b57fe5b9060200190602002018190525090565b610c336112af565b610c3b6112e3565b8360000151816000600381101515610c4f57fe5b6020020181815250508360200151816001600381101515610c6c57fe5b60200201818152505082816002600381101515610c8557fe5b602002018181525050600060608360808460076107d05a03fa90508060008114610cae57610cb0565bfe5b50801515610cbd57600080fd5b505092915050565b610ccd6112af565b610cd5611306565b8360000151816000600481101515610ce957fe5b6020020181815250508360200151816001600481101515610d0657fe5b6020020181815250508260000151816002600481101515610d2357fe5b6020020181815250508260200151816003600481101515610d4057fe5b602002018181525050600060608360c08460066107d05a03fa90508060008114610d6957610d6b565bfe5b50801515610d7857600080fd5b505092915050565b610d886112af565b60007f30644e72e131a029b85045b68181585d97816a916871ca8d3c208c16d87cfd47905060008360000151148015610dc5575060008360200151145b15610de9576040805190810160405280600081526020016000815250915050610e17565b604080519081016040528084600001518152602001828560200151811515610e0d57fe5b0683038152509150505b919050565b600060606004604051908082528060200260200182016040528015610e5b57816020015b610e486112c9565b815260200190600190039081610e405790505b50905060606004604051908082528060200260200182016040528015610e9b57816020015b610e88611329565b815260200190600190039081610e805790505b5090508a826000815181101515610eae57fe5b9060200190602002018190525088826001815181101515610ecb57fe5b9060200190602002018190525086826002815181101515610ee857fe5b9060200190602002018190525084826003815181101515610f0557fe5b9060200190602002018190525089816000815181101515610f2257fe5b9060200190602002018190525087816001815181101515610f3f57fe5b9060200190602002018190525085816002815181101515610f5c57fe5b9060200190602002018190525083816003815181101515610f7957fe5b90602001906020020181905250610f908282610fa0565b9250505098975050505050505050565b600081518351141515610fb257600080fd5b6000835190506000600682029050606081604051908082528060200260200182016040528015610ff15781602001602082028038833980820191505090505b50905060008090505b838110156111cf57868181518110151561101057fe5b9060200190602002015160000151826000600684020181518110151561103257fe5b9060200190602002018181525050868181518110151561104e57fe5b9060200190602002015160200151826001600684020181518110151561107057fe5b9060200190602002018181525050858181518110151561108c57fe5b906020019060200201516000015160006002811015156110a857fe5b602002015182600260068402018151811015156110c157fe5b906020019060200201818152505085818151811015156110dd57fe5b906020019060200201516000015160016002811015156110f957fe5b6020020151826003600684020181518110151561111257fe5b9060200190602002018181525050858181518110151561112e57fe5b9060200190602002015160200151600060028110151561114a57fe5b6020020151826004600684020181518110151561116357fe5b9060200190602002018181525050858181518110151561117f57fe5b9060200190602002015160200151600160028110151561119b57fe5b602002015182600560068402018151811015156111b457fe5b90602001906020020181815250508080600101915050610ffa565b506111d8611350565b6000602082602086026020860160086107d05a03fa905080600081146111fd576111ff565bfe5b5080151561120c57600080fd5b600082600060018110151561121d57fe5b602002015114159550505050505092915050565b610100604051908101604052806112466112c9565b8152602001611253611329565b81526020016112606112c9565b81525090565b6101e06040519081016040528061127b6112c9565b8152602001611288611329565b8152602001611295611329565b81526020016112a2611329565b8152602001606081525090565b604080519081016040528060008152602001600081525090565b604080519081016040528060008152602001600081525090565b606060405190810160405280600390602082028038833980820191505090505090565b608060405190810160405280600490602082028038833980820191505090505090565b60806040519081016040528061133d611373565b815260200161134a611373565b81525090565b602060405190810160405280600190602082028038833980820191505090505090565b604080519081016040528060029060208202803883398082019150509050509056fea165627a7a72305820eee7fe31676433863a79096366259dd7140caee6839a1c2a8272c5b773d01dba0029",
  "source": "//\n// Copyright 2017 Christian Reitwiessner\n// Permission is hereby granted, free of charge, to any person obtaining a copy of this software and associated documentation files (the \"Software\"), to deal in the Software without restriction, including without limitation the rights to use, copy, modify, merge, publish, distribute, sublicense, and/or sell copies of the Software, and to permit persons to whom the Software is furnished to do so, subject to the following conditions:\n// The above copyright notice and this permission notice shall be included in all copies or substantial portions of the Software.\n// THE SOFTWARE IS PROVIDED \"AS IS\", WITHOUT WARRANTY OF ANY KIND, EXPRESS OR IMPLIED, INCLUDING BUT NOT LIMITED TO THE WARRANTIES OF MERCHANTABILITY, FITNESS FOR A PARTICULAR PURPOSE AND NONINFRINGEMENT. IN NO EVENT SHALL THE AUTHORS OR COPYRIGHT HOLDERS BE LIABLE FOR ANY CLAIM, DAMAGES OR OTHER LIABILITY, WHETHER IN AN ACTION OF CONTRACT, TORT OR OTHERWISE, ARISING FROM, OUT OF OR IN CONNECTION WITH THE SOFTWARE OR THE USE OR OTHER DEALINGS IN THE SOFTWARE.\npragma solidity >=0.4.17;\n\nimport './Pairing.sol';\n\ncontract WithdrawVerifier {\n    using Pairing for *;\n    struct VerifyingKey {\n        Pairing.G1Point alfa1;\n        Pairing.G2Point beta2;\n        Pairing.G2Point gamma2;\n        Pairing.G2Point delta2;\n        Pairing.G1Point[] IC;\n    }\n    struct Proof {\n        Pairing.G1Point A;\n        Pairing.G2Point B;\n        Pairing.G1Point C;\n    }\n    function verifyingKey() pure internal returns (VerifyingKey memory vk) {\n        vk.alfa1 = Pairing.G1Point(16476732012301042730011246641536083092278452705158821655996025075030561933515,20963122711769175988699608251460349890303840385235124684915985052693778110255);\n        vk.beta2 = Pairing.G2Point([10465624537485495595370760376313796448932318426877217712907922486038883116794,13481409636324504992818740524549235581330386382245384977387150022077926147047], [1804170233388140620634213711793605454681091524357409310824879252013270790180,14509068038119152355525523379715535411508489338599689112558078308853753518585]);\n        vk.gamma2 = Pairing.G2Point([3795737551304284142846743856326680475079644991307580526601205674094163296394,18167393195904964285525340218645993183167501938293956080924145046787486928646], [6478047156072218329730436498207600786519787246870279816828249109353510524473,5282095844873571257571416134444319219200880134931812797652249384186214325919]);\n        vk.delta2 = Pairing.G2Point([28923699748111225790904938766212383762005153998233654681947089539230585331,11723661110614280849469360468386840719751998082192195818257547688932162062414], [16197538104670917865167050602522354206014865232836204253364481025933638603787,15544400787225130968748166387533981449397262140525918134457200436566791360359]);\n        vk.IC = new Pairing.G1Point[](9);\n        vk.IC[0] = Pairing.G1Point(4399873144781771055068675152259979445153568038400922287099032147093320441485,14038465278348416328847092454163163787944591204939934302304665902093559707021);\n        vk.IC[1] = Pairing.G1Point(13757919205944035317208123072866046454052445505084886540148148326922560392912,14261553386223558609638361500866208135987893317833626497695789915194428999169);\n        vk.IC[2] = Pairing.G1Point(17104737321506600220240172259830697813814266172594093196780399974010542876258,14679321590949612372616143058504687902289157933421431778505747826373201123346);\n        vk.IC[3] = Pairing.G1Point(2853507901711929308937986644249775048473599677758459622072992361484239940725,16989042655878511286353948963109220398528341448766630645506490424074658386806);\n        vk.IC[4] = Pairing.G1Point(11211633018258412489084370006056219120389592882649706685941934557337428846988,5772419272434465314853067311505931342633505605939221273263594403454790634522);\n        vk.IC[5] = Pairing.G1Point(4926160411044260444112319578163782151934264665506576474771088177051837789285,12918316845148008058896465969616136827899494518581319068096249437138506170958);\n        vk.IC[6] = Pairing.G1Point(16306655577460358530549631817237166283665452642439816343497890657358731111111,759252372123068002141864927164228859561469810258198714992364929059564010765);\n        vk.IC[7] = Pairing.G1Point(6443814701083573007059058375341493116437129043736290526416649877797205997368,11819828308275640967316718623011353808846499069341537496200673575452621195314);\n        vk.IC[8] = Pairing.G1Point(8099708540433323599128338736715614847547727773557684576897587618203883463237,1963286228507746085751423244378237032866916608476730467423036531775614769708);\n\n    }\n    function verify(uint[] memory input, Proof memory proof) view internal returns (uint) {\n        VerifyingKey memory vk = verifyingKey();\n        require(input.length + 1 == vk.IC.length);\n        // Compute the linear combination vk_x\n        Pairing.G1Point memory vk_x = Pairing.G1Point(0, 0);\n        for (uint i = 0; i < input.length; i++)\n            vk_x = Pairing.addition(vk_x, Pairing.scalar_mul(vk.IC[i + 1], input[i]));\n        vk_x = Pairing.addition(vk_x, vk.IC[0]);\n        if (!Pairing.pairingProd4(\n            Pairing.negate(proof.A), proof.B,\n            vk.alfa1, vk.beta2,\n            vk_x, vk.gamma2,\n            proof.C, vk.delta2\n        )) return 1;\n        return 0;\n    }\n    function verifyProof(\n            uint[2] memory a,\n            uint[2][2] memory b,\n            uint[2] memory c,\n            uint[8] memory input\n        ) view public returns (bool r) {\n        Proof memory proof;\n        proof.A = Pairing.G1Point(a[0], a[1]);\n        proof.B = Pairing.G2Point([b[0][0], b[0][1]], [b[1][0], b[1][1]]);\n        proof.C = Pairing.G1Point(c[0], c[1]);\n        uint[] memory inputValues = new uint[](input.length);\n        for(uint i = 0; i < input.length; i++){\n            inputValues[i] = input[i];\n        }\n        if (verify(inputValues, proof) == 0) {\n            return true;\n        } else {\n            return false;\n        }\n    }\n}\n",
  "sourcePath": "/Users/fred/dev/original_roll_up/RollupNC/contracts/WithdrawVerifier.sol",
  "compiler": {
    "name": "solc",
    "version": "0.5.0+commit.1d4f565a.Emscripten.clang"
  },
  "schemaVersion": "3.0.6",
  "updatedAt": "2019-04-08T09:21:21.208Z",
  "devdoc": {
    "methods": {}
  },
  "userdoc": {
    "methods": {}
  }
}