{
  "contractName": "Withdraw",
  "abi": [
    {
      "constant": true,
      "inputs": [],
      "name": "BAL_DEPTH",
      "outputs": [
        {
          "name": "",
          "type": "uint256"
        }
      ],
      "payable": false,
      "stateMutability": "view",
      "type": "function",
      "signature": "0xca717ee2"
    },
    {
      "constant": true,
      "inputs": [],
      "name": "TX_DEPTH",
      "outputs": [
        {
          "name": "",
          "type": "uint256"
        }
      ],
      "payable": false,
      "stateMutability": "view",
      "type": "function",
      "signature": "0xd63a2c18"
    },
    {
      "inputs": [
        {
          "name": "_mimc",
          "type": "address"
        },
        {
          "name": "_eddsa",
          "type": "address"
        }
      ],
      "payable": false,
      "stateMutability": "nonpayable",
      "type": "constructor",
      "signature": "constructor"
    },
    {
      "anonymous": false,
      "inputs": [
        {
          "indexed": true,
          "name": "_recipient",
          "type": "address"
        },
        {
          "indexed": true,
          "name": "_tokenType",
          "type": "uint256"
        },
        {
          "indexed": false,
          "name": "_amt",
          "type": "uint256"
        }
      ],
      "name": "Withdrawn",
      "type": "event",
      "signature": "0x92ccf450a286a957af52509bc1c9939d1a6a481783e142e41e2499f0bb66ebc6"
    },
    {
      "constant": false,
      "inputs": [
        {
          "name": "_ethRecipient",
          "type": "address"
        },
        {
          "name": "_from",
          "type": "uint256[2]"
        },
        {
          "name": "_to",
          "type": "uint256[2]"
        },
        {
          "name": "_amt",
          "type": "uint256"
        },
        {
          "name": "_tokenType",
          "type": "uint256"
        },
        {
          "name": "_pubkey",
          "type": "uint256[2]"
        },
        {
          "name": "_txLeafHash",
          "type": "uint256"
        },
        {
          "name": "_R",
          "type": "uint256[2]"
        },
        {
          "name": "_s",
          "type": "uint256"
        },
        {
          "name": "_txRoot",
          "type": "uint256"
        },
        {
          "name": "_merkleProof",
          "type": "uint256[3]"
        },
        {
          "name": "_merklePos",
          "type": "uint256[3]"
        }
      ],
      "name": "withdraw",
      "outputs": [
        {
          "name": "",
          "type": "bool"
        }
      ],
      "payable": false,
      "stateMutability": "nonpayable",
      "type": "function",
      "signature": "0x0272bb5d"
    }
  ],
  "bytecode": "0x60806040526006600055600460015534801561001a57600080fd5b506040516040806105928339810180604052604081101561003a57600080fd5b81019080805190602001909291908051906020019092919050505081600260006101000a81548173ffffffffffffffffffffffffffffffffffffffff021916908373ffffffffffffffffffffffffffffffffffffffff16021790555080600360006101000a81548173ffffffffffffffffffffffffffffffffffffffff021916908373ffffffffffffffffffffffffffffffffffffffff16021790555050506104aa806100e86000396000f3fe608060405260043610610057576000357c0100000000000000000000000000000000000000000000000000000000900463ffffffff1680630272bb5d1461005c578063ca717ee21461027e578063d63a2c18146102a9575b600080fd5b34801561006857600080fd5b50610264600480360361028081101561008057600080fd5b81019080803573ffffffffffffffffffffffffffffffffffffffff16906020019092919080604001906002806020026040519081016040528092919082600260200280828437600081840152601f19601f820116905080830192505050505050919291929080604001906002806020026040519081016040528092919082600260200280828437600081840152601f19601f8201169050808301925050505050509192919290803590602001909291908035906020019092919080604001906002806020026040519081016040528092919082600260200280828437600081840152601f19601f82011690508083019250505050505091929192908035906020019092919080604001906002806020026040519081016040528092919082600260200280828437600081840152601f19601f8201169050808301925050505050509192919290803590602001909291908035906020019092919080606001906003806020026040519081016040528092919082600360200280828437600081840152601f19601f820116905080830192505050505050919291929080606001906003806020026040519081016040528092919082600360200280828437600081840152601f19601f82011690508083019250505050505091929192905050506102d4565b604051808215151515815260200191505060405180910390f35b34801561028a57600080fd5b50610293610472565b6040518082815260200191505060405180910390f35b3480156102b557600080fd5b506102be610478565b6040518082815260200191505060405180910390f35b6000600360009054906101000a900473ffffffffffffffffffffffffffffffffffffffff1673ffffffffffffffffffffffffffffffffffffffff1663da0473218d8989896040518563ffffffff167c01000000000000000000000000000000000000000000000000000000000281526004018085600260200280838360005b8381101561036e578082015181840152602081019050610353565b5050505090500184815260200183600260200280838360005b838110156103a2578082015181840152602081019050610387565b5050505090500182815260200194505050505060206040518083038186803b1580156103cd57600080fd5b505afa1580156103e1573d6000803e3d6000fd5b505050506040513d60208110156103f757600080fd5b8101908080519060200190929190505050151561041357600080fd5b888d73ffffffffffffffffffffffffffffffffffffffff167f92ccf450a286a957af52509bc1c9939d1a6a481783e142e41e2499f0bb66ebc68c6040518082815260200191505060405180910390a39c9b505050505050505050505050565b60005481565b6001548156fea165627a7a7230582093eedd51a09d25478d16bebb27c035ff08f7d747196d5662d9112cfa0de074210029",
  "source": "//\n// Copyright 2017 Christian Reitwiessner\n// Permission is hereby granted, free of charge, to any person obtaining a copy of this software and associated documentation files (the \"Software\"), to deal in the Software without restriction, including without limitation the rights to use, copy, modify, merge, publish, distribute, sublicense, and/or sell copies of the Software, and to permit persons to whom the Software is furnished to do so, subject to the following conditions:\n// The above copyright notice and this permission notice shall be included in all copies or substantial portions of the Software.\n// THE SOFTWARE IS PROVIDED \"AS IS\", WITHOUT WARRANTY OF ANY KIND, EXPRESS OR IMPLIED, INCLUDING BUT NOT LIMITED TO THE WARRANTIES OF MERCHANTABILITY, FITNESS FOR A PARTICULAR PURPOSE AND NONINFRINGEMENT. IN NO EVENT SHALL THE AUTHORS OR COPYRIGHT HOLDERS BE LIABLE FOR ANY CLAIM, DAMAGES OR OTHER LIABILITY, WHETHER IN AN ACTION OF CONTRACT, TORT OR OTHERWISE, ARISING FROM, OUT OF OR IN CONNECTION WITH THE SOFTWARE OR THE USE OR OTHER DEALINGS IN THE SOFTWARE.\npragma solidity >=0.4.17;\n\n// import \"./dependencies/EdDSA.sol\";\nimport \"./dependencies/SafeMath.sol\";\n\ncontract MiMC{\n\n    function MiMCpe7(uint,uint) public pure returns (uint) {}\n\n}\n\ncontract EdDSA{\n\n    function Verify( uint256[2] memory, uint256, uint256[2] memory, uint256 )\n        public view returns (bool) {}\n\n}\n\n\ncontract Withdraw{\n\n    using SafeMath for uint;\n    using SafeMath for uint256; \n\n    uint public BAL_DEPTH = 6;\n    uint public TX_DEPTH = 4;\n\n    MiMC mimc;\n    EdDSA eddsa;\n\n    constructor(address _mimc, address _eddsa) public {\n        mimc = MiMC(_mimc);\n        eddsa = EdDSA(_eddsa);\n    }\n\n    event Withdrawn(\n        address indexed _recipient,\n        uint indexed _tokenType,\n        uint _amt\n    );\n\n    function withdraw(\n        address _ethRecipient, //ethereum address to claim withdraw\n        uint256[2] memory _from,\n        uint[2] memory _to,\n        uint _amt,\n        uint _tokenType,\n        uint[2] memory _pubkey, \n        uint256 _txLeafHash, \n        uint256[2] memory _R, \n        uint256 _s,\n        uint _txRoot,\n        uint[3] memory _merkleProof, // log n path from leaf to root\n        uint[3] memory _merklePos //position in Merkle path (left or right)\n    ) public returns(bool){\n        // require(multihash6([_from[0], _from[1], _to[0], _to[1], _amt, _tokenType]) \n        //         == _txLeafHash);\n        require(eddsa.Verify(_from, _txLeafHash, _R, _s));\n        // require (verifyMerkleProof3(_txLeafHash, _txRoot, _merkleProof, _merklePos));\n        emit Withdrawn(_ethRecipient, _tokenType, _amt);\n    }\n\n    // //only for paths of length 3 until i figure out how to generalise array length\n    // function verifyMerkleProof3(\n    //     uint _leafHash,\n    //     uint _root,\n    //     uint[3] memory _merkleProof, // log n path from leaf to root\n    //     uint[3] memory _merklePos //position in Merkle path (left or right)\n    // ) internal pure returns(bool){\n    //     uint[3] memory root;\n    //     uint left = _leafHash - _merklePos[0]*(_leafHash - _merkleProof[0]);\n    //     uint right = _merkleProof[0] - _merklePos[0]*(_merkleProof[0] - _leafHash);\n    //     root[0] = mimc.MiMCpe7(left, right);\n    //     for (uint i = 1; i < 3; i++) {\n    //         left = root[i-1] - _merklePos[i]*(root[i-1] - _merkleProof[0]);\n    //         right = _merkleProof[0] - _merklePos[i]*(_merkleProof[0] - root[i-1]);              \n    //         root[i] = mimc.MiMCpe7(left, right);\n    //         }\n    //     return(root[2] == _root);\n    // }\n\n    // //only for arrays of length 6 until i figure out how to generalise array length\n    // function multihash6(uint[6] memory _array) internal pure \n    // returns(uint){\n    //     uint[5] memory hashResult;\n    //     // mimc.MiMCpe7(0,1);\n    //     hashResult[0] = mimc.MiMCpe7(_array[0], _array[1]);\n    //     for (uint i = 1; i < _array.length; i++) {\n    //         hashResult[i] = mimc.MiMCpe7(hashResult[i-1], _array[i]);\n    //     }\n    //     return hashResult[4];\n    // }\n\n}",
  "sourcePath": "/home/user/rollupnc/contracts/Withdraw.sol",
  "compiler": {
    "name": "solc",
    "version": "0.5.0+commit.1d4f565a.Emscripten.clang"
  },
  "schemaVersion": "3.0.6",
  "updatedAt": "2019-04-07T16:41:35.496Z",
  "devdoc": {
    "methods": {}
  },
  "userdoc": {
    "methods": {}
  }
}